:100000000C9401070C945C1F0C9448070C9448074F
:100010000C9448070C9448070C9448070C94480724
:100020000C9448070C9448070C947B320C944F3383
:100030000C94EA2C0C9448070C9448070C9448073D
:100040000C9448070C9448070C9448070C944807F4
:100050000C9448070C94412D0C9448070C944807C5
:100060000C9448070C9448070C9448070C944807D4
:100070000C9448070C9448070C9448070C944807C4
:100080000C9448070C9448070C9448070C944807B4
:100090000C9448070C9448070C9448070C944807A4
:1000A0000C9448070C9448070C94480729001E003C
:1000B0001F002000210022002F00350014001A002C
:1000C0000800150017002D002B0004001600070083
:1000D00009000A004C00E1001D001B000600190089
:1000E00005002C00E000E300E20035045F5D2C0019
:1000F0004C00460027002600250024002300300085
:100100003100130012000C0018001C002E003400F7
:1001100033000F000E000D000B002A00E500380030
:10012000370036001000110028004F005200510027
:100130005000605D28002A0044003A003B003C006B
:100140003D003E002F0235021E021F022002210246
:1001500022022D022B001E001F0020002100220081
:100160004C00E100230024002500260027002C007D
:10017000E000E300E20035045F5D2C004C00450028
:1001800043004200410040003F003002310227029C
:1001900026022502240223022E02340233020F001B
:1001A0000E000D000B002A00E5003802370236026F
:1001B0001000110028004D004B004E004A00605D09
:1001C00028002A0044003A003B003C003D003E006D
:1001D0002F0235021E021F022002210222022D02DE
:1001E0002B001E001F002000210022004C00E10017
:1001F000230024002500260027002C00E000E30057
:10020000E20035045F5D2C004C00450043004200D5
:10021000410040003F003002310227022602250241
:10022000240223022E02340233020F000E000D00BE
:100230000B002A00E50038023702360210001100D8
:1002400028004D004B004E004A00605D28002A0047
:10025000000000000000000000000000000000009E
:10026000000000000000000000000000000000008E
:10027000000000000000000000000000000000007E
:10028000000000000000000000000000000000006E
:100960000000000000000000000000000100010085
:10097000010001000100010001000100005CC25CF7
:10098000C35CC65CC55C010001000100BF5CC15CCA
:10099000BE5CBD5C0100010001000100010001001E
:1009A000010001000100010001000100010001003F
:1009B000010001000100010001000100010001002F
:1009C00001000100C95CCA5CC75CC85C0100010091
:1009D000010001000100010001000100010001000F
:1009E00001000100010001000100010001000100FF
:1009F00001000100010001000000000000000000F3
:100A00002A2B280000000000000000000000000069
:100A100000000029000000002C1E34202122243474
:100A20002627252E362D3738271E1F202122232446
:100A300025263333362E37381F0405060708090AE2
:100A40000B0C0D0E0F101112131415161718191A7E
:100A50001B1C1D2F3130232D350405060708090AFC
:100A60000B0C0D0E0F101112131415161718191A5E
:100A70001B1C1D2F3130354C000000000000000011
:100A80000000000000000000000000000000000066
:100A90000000000000000000000000007E0F00D4F5
:100AA000FFFFFFC7000000781E0F0500047F3F1FF7
:100AB000643214643214783C1E1E140A0522232565
:100AC0002628292A2C2D2F3032333536383A3B3D13
:100AD0003E4042434547494A4C4E50515355575961
:100AE0005A5C5E6062646668696B6D6F717375777E
:100AF000797B7D7F81838587898A8C8E909294967D
:100B0000989A9C9E9FA1A3A5A7A8AAACAEAFB1B38B
:100B1000B4B6B8B9BBBCBEBFC1C2C3C5C6C7C9CADB
:100B2000CBCCCDCED0D1D2D2D3D4D5D6D7D7D8D99D
:100B3000D9DADADBDBDBDCDCDCDCDCDDDDDDDDDCFB
:100B4000DCDCDCDCDBDBDBDADAD9D9D8D7D7D6D50D
:100B5000D4D3D2D2D1D0CECDCCCBCAC9C7C6C5C3CF
:100B6000C2C1BFBEBCBBB9B8B6B4B3B1AFAEACAA1C
:100B7000A8A7A5A3A19F9E9C9A98969492908E8CCC
:100B80008A89878583817F7D7B79777573716F6DA6
:100B90006B6968666462605E5C5A59575553515080
:100BA0004E4C4A4947454342403E3D3B3A38363534
:100BB0003332302F2D2C2A292826252322FFAA7FE5
:100BC0005540000102030405060708090A0B171621
:100BD0001514131211100F0E0D0C0001010101016B
:100BE00001010101020202020202020202030303E6
:100BF00003030303030404040404040405050505B6
:100C00000506060606060707070707080808080975
:100C10000909090A0A0A0B0B0B0C0C0C0D0D0D0E21
:100C20000E0E0F0F0F1010111111121213131414B6
:100C3000151516161717181819191A1A1B1B1C1D2B
:100C40001D1E1E1F20202122222324242526262784
:100C50002829292A2B2C2D2D2E2F303132323334B6
:100C600035363738393A3B3C3D3E3F4041424344BC
:100C700045464748494A4C4D4E4F5051535455569E
:100C800058595A5B5D5E5F616264656668696B6C4A
:100C90006D6F7072737577787A7B7D7E80828385C5
:100CA00087888A8C8E8F91939596989A9C9EA0A205
:100CB000A3A5A7A9ABADAFB1B3B5B7BABCBEC0C20F
:100CC000C4C6C9CBCDCFD1D4D6D8DBDDDFE2E4E7D3
:100CD000E9EBEEF0F3F5F8FAFDFF120345007200C0
:100CE00067006F00440061007300680000000C039F
:100CF0004F006D006B0062006400000004030904F3
:100D000009025B00030100A0FA09040000010301CD
:100D1000010009211101000122400007058103089B
:100D2000000A09040100020300000009211101006A
:100D3000012222000705820320000107050303208A
:100D40000001090402000103000000092111010053
:100D5000012232000705840320000A12011001005D
:100D6000000008EDFE60600001010200010660FF66
:100D70000961A1010962150026FF0095207508810F
:100D8000020963150026FF00952075089102C00531
:100D9000010980A101850319012AB700150126B7B1
:100DA00000950175108100C0050C0901A1018504A1
:100DB00019012AA002150126A002950175108100D3
:100DC000C005010906A101050719E029E71500255D
:100DD00001950875018102950175088101050719C2
:100DE0000029FF150026FF009506750881000508FB
:100DF0001901290595057501910295017503910168
:100E0000C00011241FBECFEFDAE0DEBFCDBF04B6B5
:100E100003FE27C08091A7039091A803A091A90386
:100E2000B091AA038730904BA740B04BD1F41092F9
:100E3000A7031092A8031092A9031092AA0314BE4C
:100E400084B7877F84BF0FB6F894A895809160001F
:100E5000886180936000109260000FBEE0E0F8E3CC
:100E6000099511E0A0E0B1E0E4EAFDE602C00590DA
:100E70000D92A23EB107D9F723E0A2EEB1E001C086
:100E80001D92A73AB207E1F70E943B2F0C949536CA
:100E90000C9400000C94DD0B0895CF93FB018F356B
:100EA0002DE59207F1F038F48E359D4591F0C1E0C3
:100EB0008C2FCF91089580362DE59207F1F0813681
:100EC0009D45A9F7C28180E1CC2311F10E9424291C
:100ED00006C0C281CC2361F380E00E94D907C0E044
:100EE000E7CFC28181E0CC2359F00E94242940E160
:100EF00062E081E00E944008F2CFC28182E0F3CF3D
:100F00000E94452940E162E081E00E944008D0CF84
:100F10000E944529CDCF81E008950C944D07089596
:100F20000C948F071F93CF93DF9300D000D00F92C4
:100F3000CDB7DEB749835A836B833091A50289818F
:100F40009A8131111DC06623B9F02223A9F00E94B5
:100F5000142A182F682F89819A810E94C0296981DB
:100F60007A81812F0F900F900F900F900F90DF914B
:100F7000CF911F910C94511B0E94EC29182FEFCF99
:100F80000E94142A69817A81EDCFFC01262F4081CD
:100F900051816281738184810C949207CF93DF9396
:100FA000EC0160E00E94C507BE01DF91CF910C9477
:100FB0009007CF93DF93C1E0D0E002C0CC0FDD1FDC
:100FC0008A95E2F78C2F0E94A22BBE0190E080E070
:100FD000DF91CF910C94C2288F929F92AF92BF92D3
:100FE000CF92DF92EF92FF920F931F936B017C01E0
:100FF00081E090E0A0E0B0E04C015D0104C0880C0D
:10100000991CAA1CBB1C4A95D2F7B501A4014C013E
:101010005D0104C0880C991CAA1CBB1C2A95D2F740
:10102000482959296A297B2904C0880F991FAA1FBA
:10103000BB1F0A95D2F78A019B010C211D212E218D
:101040003F21041715072607370789F48C299D29A6
:10105000AE29BF29BC01CD011F910F91FF90EF90E8
:10106000DF90CF90BF90AF909F908F900895809524
:101070009095A095B0958C219D21AE21BF21EACFFE
:101080000F93382F262F60910B0370910C038091E2
:101090000D0390910E03042F432F0E94EC070F9134
:1010A0000C94FE280E94B90B0E946E180C944A07FB
:1010B0000C94DF0B0E942A250E944C072FEF84E33B
:1010C0009CE0215080409040E1F700C000000C946B
:1010D000AF2D0F931F93CF93DF938C0161E00E949C
:1010E000C507EC01B8010E940219882309F448C021
:1010F000B801CE010E948D07882309F441C0B801D0
:10110000CE010E94DA178823D9F1B801CE010E94DE
:10111000881C8823A9F1B801CE010E94DA1C88231B
:1011200079F1B801CE010E94FD1D882349F1B80173
:10113000CE010E942616882319F1F80182818823A6
:1011400061F0CA35FDE5DF0721F170F4C115ECE56A
:10115000DE07A1F0CE3DDC45C9F0C801DF91CF919B
:101160001F910F910C948B07CB358DE5D807A1F01B
:10117000CC35DD4591F70E94BB2AEFCF0E945A087B
:1011800080E0DF91CF911F910F9108950E94392C3B
:10119000F7CF0E94C42AE1CF0E94C72ADECFDF9298
:1011A000EF92FF920F931F93CF93DF93E82FF0E01E
:1011B000E850F64FD490282F26952695269530E0B6
:1011C000F901E856F54F0491877010E0082E02C02F
:1011D000159507950A94E2F701701127F901E85770
:1011E000F54FE490F12C082E02C0F594E7940A9490
:1011F000E2F791E0E922FF24F901E858F54FC491A4
:10120000D0E002C0D595C7958A95E2F7C170DD2779
:101210000115110519F081EE0E94C821E114F104B5
:1012200019F086EE0E94C8218D2D0E94B822EF2869
:1012300019F086EE0E945222012B19F081EE0E94D5
:101240005222CD2B51F08CE2DF91CF911F910F9163
:10125000FF90EF90DF900C94B822DF91CF911F9117
:101260000F91FF90EF90DF900895EF92FF920F9310
:101270001F93CF93DF93EC01162F0AE08881882318
:1012800009F454C0813009F04EC08981813099F44D
:101290007E0122E0E20EF11C8A810E94B822E70161
:1012A0002196812F815050F3EFE9FFE03197F1F75C
:1012B00000C00000F7CF823041F47E0182E0E80EEA
:1012C000F11C8A810E94C821EACF833041F47E015B
:1012D000E2E0EE0EF11C8A810E945222E0CF8430BF
:1012E00011F02196DDCF2A81229690E080E0AE01B8
:1012F0004F5F5F4F2053330B2A30310548F0019781
:1013000078F2EFE9FFE03197F1F700C00000F7CF86
:10131000089FB001099F700D1124C901860F971F06
:101320002981EA01E4CF0E94CF08BACFDF91CF91A3
:101330001F910F91FF90EF90089560E00C94350994
:1013400008950C94A00981E008950C94A309CF930B
:10135000C82F0E94A1098C2FCF910C94A50990E071
:1013600080E008950895FC01EE0FFF1FE855F54F4A
:10137000859194910895CF93DF930E94511B0E9411
:10138000C70AEC01811520E5920708F041C08115DC
:1013900030E4930708F0B4C0803E910518F5803C16
:1013A000910508F09DC0883A910570F4853A910541
:1013B00008F08EC081309105F9F00097E9F00497AC
:1013C000D8F4D0E0C0E018C08F3B9105D0F7C85AE0
:1013D000D0E0CC0FDD1FCB5CDE4F0990D881C02D53
:1013E000D4640AC08115904258F4C11581E0D80731
:1013F00018F4C83ED10528F7CE01DF91CF910895AA
:10140000C11590E3D90708F071C0CE019F706AC082
:10141000811525E5920758F5811534E5930708F005
:101420009EC0811542E5940750F4C11581E5D807A7
:1014300008F469C0DC2FCC27C16FD06ADDCF982FAC
:10144000969596959E0123703327C115D34508F0D4
:1014500077C0C1E0D0E002C0CC0FDD1F2A95E2F7D3
:1014600020E2929FC0011124C82BD92B67C0C1155F
:1014700089E5D807A8F4C11598E5D90708F074C024
:10148000C11526E5D20708F09CCF8C2F0E945E0B79
:10149000C82FD0E0DC2FCC27CC27DF71D062ACCFB7
:1014A000C1153AE5D30708F464C0CE019056811502
:1014B000904208F086CF8D2F8F710E945E0B90E0D6
:1014C000982F882788279F719C012C2BE901E6CF54
:1014D000C55AD0E0CD59DE4FC881D0E0D0648CCF62
:1014E000805C91090E94B309EC0186CFCE01992757
:1014F000D3FF03C0EC01D86C7FCFEC01D06C7CCF64
:10150000DF70D06A79CFCE01E4E096958795EA95B1
:10151000E1F783702C2F26952695237090E2299F62
:1015200090011124382B8C2F8370C1E0D0E002C0D1
:10153000CC0FDD1F8A95E2F7C22BD32BDC685CCF82
:10154000C1E0D0E002C0CC0FDD1F2A95E2F730E207
:10155000939FC0011124C82BD92BDA684DCFD82F07
:10156000CC27C46FD06A48CFDC2FCC27C06FD06A9D
:1015700043CF8C2F8F700E945E0B34E0D695C795B9
:101580003A95E1F7CF709C2FEC01D06935CF8238C6
:101590009105B1F1B0F48133910509F475C048F4B7
:1015A0008932910509F469C08A32910509F473C042
:1015B00008958533910509F459C08933910501F1E6
:1015C0000895833E9105A9F138F4803E9105F9F024
:1015D000823E910549F10895863E9105A9F1873E25
:1015E0009105C9F1843E910519F520912D0321FF44
:1015F0001FC080912C0384FD14C087EE90E00895F5
:1016000020912C032370A1F080EE90E008952091AA
:101610002C0320FD47C030912D0330FF09C024FF6B
:1016200044C090E080E004C020912C0322FDF7CF5D
:10163000089520912C0322FD3BC030912D0330FDF5
:10164000E3CF24FFF5CFEDCF20912C0323FFF0CF84
:1016500024FDE7CFD2CF20912C0323FD2CC0309165
:101660002D0331FFEECF84EE90E0089520912C03FE
:1016700025FFDECF89E290E0089520912C0325FF1D
:10168000D7CF85E390E0089520912C0326FFD0CF9B
:101690008AE290E0089520912C0326FFC9CF81E3D0
:1016A00090E0089589E390E0089583EE90E0089536
:1016B00082EE90E0089586EE90E0089590912C03DC
:1016C00092FF06C0282F28712830F9F4877F8460A4
:1016D00093FF06C0282F28712831F1F4877E84619A
:1016E00020912D0320FF06C0382F38713830D9F4EF
:1016F000877F816021FF06C0282F28712831D1F40F
:10170000877E816194FD877E0895282F247124307F
:10171000F9F68B7F8860DCCF282F2471243101F704
:101720008B7E8861DDCF382F3171313019F78E7F94
:101730008860E0CF282F2171213121F78E7E8861CA
:10174000E1CF0C94DC180E94B50C8FE39CE9019763
:10175000F1F700C000000E94B50C80E00E94E10B90
:1017600080FF04C00E94A10B0C94AF2D08950C942F
:10177000A30B0E948F2B811102C00E94392C0E9462
:101780009A2B809320030E94A72B90932D03809384
:101790002C030E94B70B0E949E2B682F70E090E0F4
:1017A00080E00E94C22860910B0370910C0380912D
:1017B0000D0390910E030C94FC28089508950C9449
:1017C000DE0BE82FF0E0E85CFC4F8081089508957F
:1017D00080EA8A95F1F7089500C008950C94E80B0B
:1017E000F894E82FE295EF70F0E031A1282F2F70E8
:1017F00081E090E001C0880F2A95EAF7982F909534
:10180000932391A392A1892B82A37894089508959C
:101810000C94070CCF93DF930E94880D80910401F4
:101820008091040195E0811190E09093430385E05D
:10183000891B8093420384E90E94F00B87E90E9490
:10184000F00B86EC0E94F00B84E30E94F00B85E322
:101850000E94F00BC6E6D1E089910E94F00B81E076
:10186000CD36D807C9F7EEE2F3E0A8E3B3E0119272
:101870001D9283E0E833F807D1F785E00E94370D29
:101880000E945208DF91CF910C949D0DFF920F930F
:101890001F93CF93DF9300D000D00F92CDB7DEB768
:1018A0000E946E0DF82E60914303882309F450C006
:1018B0008E010F5F1F4F85E0F80111928A95E9F7BD
:1018C000862F90E0B801885C9C4F0E94501E8111C9
:1018D00022C08091E4018F5F8093E4018630B0F1F3
:1018E000E0914203F0E0E85CFC4FD801CE0106969F
:1018F00011921D92A817B907D9F70E9458088F2D89
:101900000F900F900F900F900F90DF91CF911F913C
:101910000F91FF9008951092E401A0914203B0E06E
:10192000A85CBC4F9E012A5F3F4FF12C4D91F801FE
:1019300091918F01491731F0AD0141505109FA01E0
:101940009083F82E0217130789F7D7CFF12CD5CF44
:1019500070E0685C7C4F8091420390E0885C9C4F13
:101960000E94851E0E94080CCACFCF92DF92EF9290
:10197000FF920F931F93CF93DF930DE611E08EE25A
:10198000E82E83E0F82EC0E0CC24C394D12CF801DB
:1019900081918F01F894E82FE295EF70F0E021A19A
:1019A0008F70A60102C0440F551F8A95E2F7CA0145
:1019B000922F982B91A392A18095892382A378944A
:1019C0000E94EC0BE6E6F1E030E020E0D0E041914F
:1019D000A42FA295AF70B0E090968C9190E04F70DC
:1019E00002C0959587954A95E2F780FD3CC08C2D05
:1019F000022E01C0880F0A94EAF7D82B2F5F3F4FC1
:101A00002730310521F7F801319780810E94F00BD2
:101A10000E94EE0BF7018081D81739F1D08381E065
:101A2000C82BFFEFEF1AFF0A41E00237140709F055
:101A3000AECF6091430370E0685C7C4F2C2F45E093
:101A40008EE293E00E94380D0E94460CC11101C045
:101A5000C82F8C2FDF91CF911F910F91FF90EF90A6
:101A6000DF90CF90089580E0C8CF80E0D9CF08956F
:101A7000FF920F931F93CF93DF93F82E092F162F0A
:101A8000D72FC42F222349F081E08093E7010E94E1
:101A90001A2D9093E6018093E5018091E701882358
:101AA000A1F08091E5019091E6010E94322D069708
:101AB00060F0EF2DF02FA12FBD2FCE0FDF2FD11D06
:101AC000EC17FD0741F41092E701DF91CF911F91D0
:101AD0000F91FF90089581918D93F2CF8091E8014D
:101AE000811107C00E940635882351F081E0809360
:101AF000E80181E09091E801913009F080E00895DB
:101B000082E08093E8010E940135F3CF0C946E0DC2
:101B10000E94860D80930401809104016CE088236B
:101B200049F080E00E943D0E0E946E0D882321F056
:101B30000C94271E8CE0F6CF08950E946E0D811143
:101B400002C00C942D1E0895EF92FF920F931F93E5
:101B5000CF93DF93EB01E82FD11110C0442321F084
:101B6000F0E0E652F44FE4916E2F7E2F8E2FDF913E
:101B7000CF911F910F91FF90EF9008950D2F10E0DE
:101B8000282F30E0442329F02652344FF9012491C4
:101B900030E0F6E0CF9FC0011124EFEFF0E0BF018D
:101BA0000E943D35AB018C2F90E0880F991FA5E571
:101BB000A49FB001A59F700D1124861B970B982F31
:101BC000990F980FBF01601B710B629FD001639F3B
:101BD000B00D729FB00D11248B2F9D9FB001112469
:101BE000672F7727EF01C61BD70BBE01629FE0016D
:101BF000639FD00D729FD00D11247F01E91AF10867
:101C0000E09EB001E19E700DF09E700D1124672FD3
:101C10007727E61BF70BE29F8001E39F100DF29FF1
:101C2000100D1124E12F722F4230510599F048F424
:101C30004115510569F04130510581F0EB2F8D2F91
:101C400007C04430510569F080F046305105B1F7C6
:101C50006E2F8DCFE22F7B2F812FFACFE22F7D2F9A
:101C6000F7CFEB2F822F712FF3CF7B2F822FED2F0A
:101C7000EFCF41E00C94A40D0895E8E0F1E08083FB
:101C8000618308950C94390ECF93DF93762FE90189
:101C9000682F842F0E94420E798368838A83DF91A4
:101CA000CF91089580914403982F9E7F29F48170ED
:101CB00082608093440308958635E8F381708465DB
:101CC000F8CF88E090E00C943636CF92DF92EF9216
:101CD000FF926B017C010E94520EB701A60188E0C1
:101CE00090E0FF90EF90DF90CF900C94543660918D
:101CF00044037091450380914603909147030C94EF
:101D0000650EE4E4F3E083E0808311828FEF828349
:101D100083831482AEE6B2E012968C9112978360B0
:101D200012968C9360817181828193810C94650EEF
:101D30008091440380FF02C08695089580E0089555
:101D400090914803933018F49F5F90934803882341
:101D500051F0609144037091450380914603909146
:101D600047030C94650E089581E00C94A00E9091A9
:101D70004803992319F0915090934803882351F018
:101D8000609144037091450380914603909147030D
:101D90000C94650E089581E00C94B70E8091480371
:101DA000089580934803662351F060914403709135
:101DB000450380914603909147030C94650E089566
:101DC00060E00C94D10E8091450308958091460304
:101DD000089580914703089570E00C947E18CF9287
:101DE000DF92EF920F931F93CF93DF93CDB7DEB7C0
:101DF000C854D1090FB6F894DEBF0FBECDBF6091B5
:101E000009018091440380FF37C0E2ECFBE09E01B2
:101E10002F5F3F4F8E01075B1F4FC901A4914A2FCF
:101E200050E0DA01AA0FBB1FA40FB51FA75BBC4F80
:101E3000CD90DD90EC90D901CD92DD92ED929D0197
:101E40003196A017B10751F720910801B3E02B9FFD
:101E5000800D911D11240E94EC0EC85BDF4F0FB660
:101E6000F894DEBF0FBECDBFDF91CF911F910F91D0
:101E7000EF90DF90CF90089580910A0190910B012F
:101E800023E0829FF0011124E75BFC4F891708F0E3
:101E9000BCCF1182108212828F5F3396F7CF909160
:101EA000440390FF14C090910A0120910B0133E08C
:101EB000939FF0011124E75BFC4F921710F00C94F4
:101EC000EF0E8183608342839F5F3396F6CF089540
:101ED000CF93DF9300D00F92CDB7DEB7909144033C
:101EE00090FF0AC09E012F5F3F4F0E94440E4B811E
:101EF00069818A810E944F0F0F900F900F90DF91A0
:101F0000CF910895CF93DF93EC01EC81F0E0E3549F
:101F1000F54F4491E4E4F3E0628181810E94680F0F
:101F20008C818F5F8C83DF91CF910895CF93DF9366
:101F3000EC01E4E4F3E0438162818C810E94680F4C
:101F40008C818F5F8C83DF91CF9108950F931F93C6
:101F5000CF93DF9300D00F92CDB7DEB78C01809185
:101F6000E90181110AC09E012F5F3F4F4FEF6FEFD4
:101F70000E94440E8A818093E901F80164816130F6
:101F800069F08091E90140E0662361F040E0623051
:101F900011F44091E90180E060E004C06091E90142
:101FA00040E080E00E944F0FF801848190E00196AC
:101FB00063E070E00E94513584830F900F900F9082
:101FC000DF91CF911F910F910895AF92BF92CF9261
:101FD000DF92EF92FF920F931F93CF93DF9300D086
:101FE0000F92CDB7DEB7182FF62E042FE22E909168
:101FF000440390FF3AC0E92FE695AE2FB0E0A95810
:10200000BE4F8C9180936E029E7F9230E1F59E01CF
:102010002F5F3F4F812F0E94440E4B8169818A813F
:102020000E944F0F80914503811308C080914603A1
:102030008F1104C080914703801729F080917002AE
:1020400082608093700210934503F09246030093E0
:102050004703EE2051F06091440370914503809155
:102060004603909147030E94650E0F900F900F90CA
:10207000DF91CF911F910F91FF90EF90DF90CF9064
:10208000BF90AF900895823019F400914703CACFF2
:10209000863019F410914503C5CF8930D9F38931C1
:1020A00009F6E9518E2F8170D82EE695F0E0E354C1
:1020B000F44FA590B490C12CBB2460910C01C616BE
:1020C00018F00E94EF0EAECF2C2D30E0A29EC00182
:1020D000A39E900DB29E900D112470E00E943D359C
:1020E000812FD11013C0860F40910A01420F532F48
:1020F000511D9A01220F331F240F351F275B3C4FC0
:10210000402F6F2D0E94440EC394D7CF861BECCF77
:10211000E4E4F3E09181282F4381628188E0890F14
:102120000C94E50F81E00C948810E4E4F3E09181D5
:10213000282F4381628188EF890F0C94E50F81E09D
:102140000C949510E4E4F3E0628121E1620F08F45D
:102150006FEF282F438181810C94E50F81E00C946F
:10216000A210E4E4F3E0628121E1621B08F460E084
:10217000282F438181810C94E50F81E00C94B110EC
:10218000E4E4F3E0438121E1420F08F44FEF282F0C
:10219000628181810C94E50F81E00C94C010E4E42D
:1021A000F3E0438121E1421B08F440E0282F6281E3
:1021B00081810C94E50F81E00C94CF1020E00C9409
:1021C000E50FEF92FF921F93CF93DF93EC0110E0A6
:1021D000EE24EA94F12C60910C01161770F00E9425
:1021E000EF0E9A818C8190FF27C08F5F8C83DF91E7
:1021F000CF911F91FF90EF90089520910A01422FF7
:10220000410F5527551FCA019A01220F331F280F6E
:10221000391F275B3C4F70E0C7010E945135962F54
:102220008C814091470360914603199F800D1124D2
:102230000E94440E1F5FCFCF8150D8CF8F929F92C4
:10224000AF92BF92CF92DF92EF92FF920F931F93C4
:10225000CF93DF93EC018A81BB24BA9480FD02C046
:10226000BB24B3948C8181110AC081E0B8122AC0CA
:1022700080910C0181508093EB0181E08C83A12C33
:1022800048E1942E80910C01A816F8F00E94EF0E00
:102290008091EB0191E0B91261C081115AC0809127
:1022A0000C0181508093EB011C82DF91CF911F9133
:1022B0000F91FF90EF90DF90CF90BF90AF909F90E5
:1022C0008F9008951092EB01D8CF00910A01CA2C8B
:1022D000D12C0C0D1D2D111DC801880F991F080F41
:1022E000191F075B1C4FF80111821082128234E023
:1022F000E32EF12C812C8091EB01880D89311CF1AA
:10230000692D0E942F35892F082E000C990BC816B5
:10231000D90691F4809147038E9DA0018F9D500DA9
:102320001124559547955595479598016091460319
:10233000809145030E94440E8B0CF1E0EF1AF108E6
:10234000D1F6A3949FCF87FFDFCF90910C01890F27
:10235000DBCF81508093EB01BC82A7CF90E0019648
:1023600060910C0170E00E9451358093EB018C83E9
:102370009CCFEF92FF920F931F93CF93DF93EC01CB
:102380008C81811109C081E08C831092EA0192E076
:10239000909307018093060180910A0190910B01AF
:1023A00023E0829FF0011124E75BFC4F891768F15D
:1023B00010E003E060910C01161768F10E94EF0E27
:1023C000809106012091EA01280F2093EA01909163
:1023D0000701980F90930701191654F4022E000C70
:1023E000330B40910C014150550B2417350734F045
:1023F000819580930601813009F41C82DF91CF9191
:102400001F910F91FF90EF90089511821082128218
:102410008F5F3396CBCFE12EF12C70E0C7010E9485
:10242000513520910A01820F482F50E02091EA0196
:10243000022E000C330BE216F306BCF020910701CC
:10244000022E000C330B2E153F057CF0809F90016F
:102450001124275B3C4F40914703609146038091D4
:1024600045030E94440E1F5FA5CFFA01EE0FFF1F28
:10247000E40FF51FE75BFC4F118210821282F3CF4D
:102480008F929F92AF92BF92CF92DF92EF92FF9284
:102490000F931F93CF93DF93EC014C81042F10E037
:1024A0009801D8010E949C359B01AC010E94B23575
:1024B0004B015C01E0E2F0E0E01BF10BA5E5B0E0D0
:1024C000AC019B010E94B2356B017C019F01DF01D1
:1024D0000E9494359B01AC010E94BD359B01AC016B
:1024E000280D391D4A1D5B1DC701B6010E946535C7
:1024F000F22E822F90E039E23F1560F143E0249FF5
:102500009001112435952795122F109500E085E54F
:10251000E82EEF1880910C01081758F10E94EF0E79
:102520009C8181E0992319F0903219F48FEF809308
:10253000050180910501890F8C83DF91CF911F9157
:102540000F91FF90EF90DF90CF90BF90AF909F9052
:102550008F90089525E530E0B901681B790B9B0148
:10256000220F331F260F371F37FFCCCF2F5F3F4F70
:10257000C9CF8E2D01FD8F2D20910A01622F600F92
:102580007727771F9B01220F331F260F371F275BEB
:102590003C4F412F609146030E94440E0F5FBACF1B
:1025A0000F931F93CF93DF93EC0110E000E0909125
:1025B0000C019017110609F06CF40E94EF0E8C814B
:1025C00090E00196817099278C83DF91CF911F91C4
:1025D0000F91089520910A01A801420F511D9A01FF
:1025E000220F331F240F351F275B3C4F4C81609116
:1025F00046038091450396959017110651F04CF0D3
:10260000442349F0409147030E94440E0F5F1F4F3F
:10261000CECF4423B9F340E0F7CF4F925F926F9251
:102620007F928F929F92AF92BF92CF92DF92EF9262
:10263000FF920F931F93CF93DF93FC01628044803E
:1026400081E08483EDEBFAE07490ECE3FBE0E4914D
:10265000812C75E0972EF2E0CF2EDD24D394AA24AE
:10266000AA94B12C55245A94E7190E2F10E08091AA
:102670000C01881690F0DF91CF911F910F91FF9080
:10268000EF90DF90CF90BF90AF909F908F907F9012
:102690006F905F904F900C94EF0EE82CF12C82E03D
:1026A000861568F09E9CF0019F9CF00D1124E1516D
:1026B000FE4F8091450380838091460381834110C2
:1026C00023C09E9CF0019F9CF00D1124E151FE4F10
:1026D0001382128220910A01C701820F911D9C0171
:1026E000220F331F280F391F275B3C4F9E9CF001A0
:1026F0009F9CF00D1124E151FE4F42816181808148
:102700000E94440E8394B3CF9E9CE0019F9CD00D09
:102710001124C151DE4F8B818823E9F081508B83D6
:10272000859DC00111246C8170E00E943D35FB0144
:10273000FF27E354F54F8491E82FE719E59DC00189
:102740001124B8010E943D3580914703689FB00174
:1027500011247A83BFCF0E9411362091470326951A
:1027600021582C9DA0012D9D500D1124452F55273A
:10277000841795070CF0AECF82E0861588F40E948E
:102780001136B5010E94513588830E94113620917F
:1027900046032695622F70E00E945135280F298349
:1027A0009E9CF0019F9CF00D1124E151FE4F12827E
:1027B00080914703893C58F088EC9E9CF0019F9CD7
:1027C000F00D1124E151FE4F8483838383CF843144
:1027D000A0F784E1F2CF8091700208951092700208
:1027E000089525E0E4E4F3E0DC0101900D922A95E0
:1027F000E1F720916E0230916F0240917002FC016E
:102800002583368347830895EEE6F2E011828281C4
:10281000846082830895E4E4F3E080818E7F808386
:102820000E940414EEE6F2E08281816082832FEF41
:1028300080E792E0215080409040E1F700C0000026
:102840000C94EF0EE4E4F3E080818E7F808360815E
:102850007181828193810E94650E0E940414EEE6CC
:10286000F2E08281816082832FEF80E792E0215045
:1028700080409040E1F700C000000C94EF0E6091A2
:102880004403669570E04BE050E08DE091E00E94DB
:102890002136892B19F481E080936F020E94A62DC6
:1028A00090936802809367028091700284608093A5
:1028B000700208959091440390FF3AC09170811185
:1028C0002DC0926090934403809170028160809348
:1028D0007002662351F0609144037091450380912A
:1028E0004603909147030E94650E609144036695EC
:1028F00070E04BE050E08DE091E00E942136892BA2
:10290000A1F00E94041481E080936A024091470381
:1029100060914603809145030C94DE108B3210F0D9
:102920009465D0CF880F982BCDCF0E943F14EBCF6A
:102930000895682F90914403969581E0890F8B321A
:1029400008F081E00C945A1481E00C949914682FDB
:102950009091440396958FEF890F09F48AE20C94C5
:102960005A1481E00C94A71461E00C945A14E4E426
:10297000F3E080818160808386950C94B41480910B
:10298000440380FD0C9422140C94B71460E00C9462
:102990005A1480916D02811133C00E948F2B8111D6
:1029A00004C00E94392C0E94810E0E94610E609327
:1029B00044037093450380934603909347038091AB
:1029C00070028360809370026E7F61F40E94810EBA
:1029D0000E94610E60934403709345038093460305
:1029E000909347030E94520E0E9404148091440366
:1029F00080FF03C086950E94C61481E080936D021B
:102A00000895E4E4F3E080818160808386950C94EE
:102A1000C6141F93CF93DF93EC01162F8F8180FF95
:102A20000CC0888180FF24C0809144038160809322
:102A30004403888186950E945A148F8181FF06C0C5
:102A4000212F4B816A8189810E94E50F8F8182FF4E
:102A500005C08E81882379F00E943F148F8183FF07
:102A600003C081E080936A02DF91CF911F910895A6
:102A70000E940B14E2CF0E940414F0CFEF92FF9259
:102A80000F931F93CF93DF9380916F02882309F4F4
:102A900062C080916E02E0914403E695E81BE093EA
:102AA0006902823009F05EC0F0E0E754F54FE4912E
:102AB000CE2FD0E002E81FE080916A02882361F007
:102AC00010926A020E94A62D90936802809367027A
:102AD00010926C0210926B020E94A62DE091670288
:102AE000F09168029C012E1B3F0B2F3F3F4798F54A
:102AF0002091EE012223B1F01092EE012091EC0121
:102B00003091ED01821B930B8F3F9F4758F4205D5E
:102B10003A483093ED012093EC0180917002886077
:102B200080937002E0906B02F0906C02EC0FFD1F3E
:102B3000F0936802E093670287E692E0F801099556
:102B400080916B0290916C02892B29F4EF2819F087
:102B500081E08093EE01DF91CF911F910F91FF9063
:102B6000EF900895863049F4F0E0EA54F54FE4918F
:102B7000CE2FD0E006E91FE09FCF893051F4E695D3
:102B8000F0E0ED54F54FE491CE2FD0E001EE10E1EE
:102B900093CF8F3051F4E695F0E0E055F54FE49196
:102BA000CE2FD0E00EE111E187CF853149F4F0E07E
:102BB000E355F54FE491CE2FD0E009EB11E17CCF46
:102BC000C8E2D0E000E412E1883109F475CF833225
:102BD00039F4EBEAFAE0C591D49106EA1FE06CCF34
:102BE000C4EFD1E000ED12E1843209F465CFC0ED0D
:102BF000D7E00CE31EE0853209F05ECF8E2F63E054
:102C00000E942335E92FF0E0E855F54FE491CE2FEF
:102C1000D0E00DE013E150CFFA01811101C0FB01BA
:102C20000994CF93DF93C82FD62F0E94980E8C174C
:102C300040F00E94980E8D1720F4DF91CF910C94F4
:102C4000A4148C2FDF91CF910C94B4141F93CF93C5
:102C5000DF93EC01FB01128111111BC00E94CA2AF3
:102C60008272CC3CFCE5DF0709F4A0C008F045C047
:102C7000C63CECE5DE0709F485C0F8F4C33C9CE5EE
:102C8000D90709F475C050F4C23CDC4509F46DC0A5
:102C900011E0812FDF91CF911F910895C43C9CE5F5
:102CA000D90709F46AC04FE950E162E970E1C53C17
:102CB000DC4571F70E940C16ECCFC93CFCE5DF0740
:102CC00009F46AC068F4C73CECE5DE0709F45FC0AC
:102CD0004EEA50E16DEB70E1C83CDC4559F3D8CFCA
:102CE000CA3C9CE5D90709F45CC04BEC5EE064EBA0
:102CF0007EE0CB3CDC45F1F2CBCFC13DFCE5DF070C
:102D000009F463C098F4CE3C9CE5D90709F457C098
:102D100008F451C0CF3CFCE5DF0709F453C0C03DC7
:102D2000DC4509F0B5CF6EE089E01CC0C43D9CE5F0
:102D3000D90709F450C058F4C23DFCE5DF0709F497
:102D400047C0C33DDC4509F0A3CF88E135C0C53D90
:102D50009CE5D90709F442C06AE285E2CD35DD453C
:102D600009F096CF0E94111694CF0E94BF1491CF04
:102D700041EB54E164EA74E19DCF44EA54E161EB34
:102D800074E198CF42E950E16FE970E193CF4DEBE8
:102D900050E16EEA70E18ECF4BED50E16CEC70E1EA
:102DA00089CF4CEC50E16BED70E184CF44EB5EE0F9
:102DB0006BEC7EE07FCF81E00E94B4146ACF65E0C7
:102DC00082E0D0CF68E086E0CDCF64E18FE0CACF6B
:102DD00067E185E1C7CF62E289E1C4CF83E2ECCF4E
:102DE000809191038170089586E090E00C942E36D6
:102DF000682F86E090E00C944236809191030C9409
:102E0000F816E1E9F3E080818470896380830C9493
:102E1000F8168091910386958695869508950E946F
:102E20008F2B811104C00E94392C0E9401170E942F
:102E3000F41680939103803420F087708863809328
:102E4000910390919103892F817090FF04C0892F85
:102E50008695869586950C940F1880919103982FEE
:102E6000969596959695973040F49F5F990F990F98
:102E7000990F8770892B80939103809191038160D2
:102E8000809391030E94F816809191038695869510
:102E900086950C940F1880919103982F987F79F064
:102EA000885080939103887F91E009F490E08091AD
:102EB000910390FB80F9809391030E94F816809112
:102EC00091038695869586950C940F1880919103B1
:102ED00080FD13C0816080939103813019F489E0F3
:102EE00080939103809191030E94F8168091910341
:102EF0008695869586950C940F1808958091910378
:102F000080FF08C08E7F809391030E94F81680E0B6
:102F10000C940F1808958091910380FD0C947E17F6
:102F20000C94661790919103892F869586958695C6
:102F30008F5F8F7197708830D8F4880F880F880F53
:102F4000892B8093910380919103887F91E009F40C
:102F500090E08091910390FB80F9809391030E940F
:102F6000F816809191038695869586950C940F1896
:102F700090939103E8CF883008F087E09091910317
:102F80009770282F220F220F220F922B90939103DC
:102F9000987F21E009F420E09091910320FB90F9C3
:102FA000909391030C940F180E94BB17809191038A
:102FB0000C94F8169C01FB018281882349F12D3B7A
:102FC000FCE53F07C9F040F42B3BECE53E0769F018
:102FD0002C3B3C4579F008952F3B9CE5390791F057
:102FE00070F0203C3C4589F0089587E00E94D4179A
:102FF00080E0089580E0FACF0E944B17F9CF0E943D
:103000002D17F6CF0E948B17F3CF0E949217F0CFA7
:1030100081E00895269A2E9808952E980895CF92CB
:10302000DF92EF92FF92CF93C82F883040F5811145
:1030300027C0809180008F7D809380000E940D18B2
:103040002C2F30E0AFEFBFEF0E949C3527E030E03F
:1030500040E050E00E946535C9012C3764E1360735
:10306000A8F469E070E00E943D3570938B00609396
:103070008A00CF91FF90EF90DF90CF900895C7E046
:1030800080918000806280938000DACF2A50374D93
:103090004F4F5F4F942F832F722F662725EF38E213
:1030A00041E050E00E94653569017A01CA01B90129
:1030B0000E9413359B01AC01C701B6010E94133574
:1030C000672F782F892F99276115710521E08207D5
:1030D000910559F66FEF7FEFC8CF08950E940A1847
:1030E00082E28093800089E1809381008FEF9FEFDF
:1030F00090938700809386000C940F17539A4BB1DE
:10310000477F5BB15860EFB7F8949B01220F331FE4
:10311000260F371F280F391F2817390741F4EFBF33
:103120008FE594E00197F1F700C000000895DC01FD
:103130006D91CD0178E05BB9000000C067FF4BB92D
:10314000660F000000C000C000C04BB900C07A95F7
:1031500091F7E2CF83E290E00E942E36813289F42B
:1031600084E290E00E942E36863059F485E290E0A9
:103170000E942E3691E0863009F090E0892F817010
:10318000089580E0FCCFCF93C82F6FEF811161E2EB
:1031900083E290E00E944236C1110CC0CFEF6C2F49
:1031A00084E290E00E9442366C2F85E290E0CF915D
:1031B0000C944236C6E0F3CF80E00E94C3180C9412
:1031C000892B089586E290E00E942E36682F70E0E9
:1031D00090E080E0089586E290E00C9442360E94F0
:1031E000E1180E94AA1881110CC060E070E0CB01C8
:1031F0000E94EB180E94C91A0E94B51B81E00C9432
:10320000C3180895CF93FB01C281CC2309F19C011F
:1032100022513F452031310520F582510E94C51BC6
:10322000C0E08C2FCF91089581E00E94242943E0D3
:1032300062E081E00E944008F3CF81E00E944529CE
:1032400043E062E081E00E944008EBCF82E0F6CFED
:103250008031FFE59F0789F381319F45B9F3C1E0D4
:10326000E0CF8031EFE59E07F9F281319F45C9F645
:1032700082E0DBCF2FEFFC0120830895CF93DF9313
:10328000EC018881893029F08A3079F0DF91CF9183
:1032900008950E9409172FEF829FC001112467E053
:1032A00070E00E943D356983F1CF1982EFCFFC01B8
:1032B0002081293061F48181F7E08F9FC0011124C2
:1032C0006FEF70E00E943D35862F0C94BB17089578
:1032D000CF93DF93EC0188818138A9F028F48038FE
:1032E00071F0DF91CF910895823881F08338C9F76A
:1032F0000E94E30E89830E94E60E8A83F2CF0E9429
:10330000E90E8983EECF0E94980EFBCF0E94CE0E6D
:10331000F8CFCF93DF93EC0188818138E1F028F476
:10332000803869F0DF91CF910895823811F18338A8
:10333000C9F70E94E90E482F6A81898108C0D981A6
:103340000E94E60EC82F0E94E30E4D2F6C2FDF91D6
:10335000CF910C94DE1089810E94C614898181115D
:1033600004C0DF91CF910C940B14DF91CF910C949A
:1033700001158981DF91CF910C94E00ECF92DF92FD
:10338000FF920F931F93CF93DF93EC01F62EDC0196
:10339000ED918D01E150E33108F0B8C0F0E0E9565D
:1033A000F94C0C948735198289E08A836F2DCE0100
:1033B000DF91CF911F910F91FF90DF90CF900C94F0
:1033C000302E8981823069F0833071F08130D9F4F8
:1033D0000E94262D0E948D356A837B838C839D837A
:1033E000E5CF0E94E218F6CF6E01B2E0CB0ED11C01
:1033F00010E0812F0E94E10BF60181936F011F5FA6
:103400001A30B9F7D3CF6F2DCE010E943A19CECF23
:1034100089818230C1F76A817B818C819D810E9484
:103420008D350E94EB18C2CF4B816A8189810E9441
:103430009B1A9827892798279D838C83B7CF2C8147
:103440003D813227232732274B816A8189810E945F
:10345000B41AACCF0E94C91AA9CFCD010E94571946
:10346000C8010E948919A2CFCD010E943E19C8014E
:103470000E9468199BCF0E94FD160E94770E96CF7E
:103480000E945E1B898392CF0E94601B9827892728
:1034900098279A8389838ACF6B8170E089819A818A
:1034A000AE014C5F5F4F9827892798270E94631BC6
:1034B0007DCF6B8170E089819A81AE014C5F5F4F57
:1034C0009827892798270E948A1B70CF0E94B51BD6
:1034D0006DCF0E94891AD6CF6B8170E089819A8165
:1034E000AE014C5F5F4F9827892798270E94011BE8
:1034F0005DCF6B8170E089819A81AE014C5F5F4F37
:103500009827892798270E94271B50CF8FEF888301
:103510004DCF84E0089550E0440F551F9EE0699F11
:10352000400D511D11249CE8899F400D511D11240F
:10353000CA01879608950F931F93CF93DF930E943C
:103540008B1A8C010E942E36C82FD0E0DC2FCC279E
:10355000C80101960E942E369E01282BC901DF91D9
:10356000CF911F910F9108950F931F93CF93DF93E6
:10357000122F032F0E948B1AEC01602F0E944236FB
:10358000612FCE010196DF91CF911F910F910C9485
:103590004236AF92BF92CF92DF92EF92FF921F938B
:1035A000CF93DF938CEAC82E80E0D82ED0E076014E
:1035B000C0E014C0F50125913491412F6C2F8D2F5F
:1035C0000E94B41A82E0A80EB11C1F5F173091F759
:1035D0008EE0E80EF11CCF5FCA3019F0570110E001
:1035E000E9CFDF5F8CE8C80ED11CD43001F7DF9142
:1035F000CF911F91FF90EF90DF90CF90BF90AF9051
:103600000895EF92FF920F931F93CF93DF93EC01F6
:103610008A017C01E60EF71ECE018796CE15DF05E6
:1036200039F4DF91CF911F910F91FF90EF900895A2
:10363000C03322E0D20740F40E942E36F801808386
:103640000F5F1F4F2196E8CFF8011082F9CFCF927C
:10365000DF92EF92FF920F931F93CF93DF937C0142
:103660006A018C01060F171FEC01CE018796C01767
:10367000D10749F4DF91CF911F910F91FF90EF9007
:10368000DF90CF900895C03322E0D20740F4FE01CE
:10369000EE19FF09EC0DFD1D60810E944236219656
:1036A000E4CF462F843038F47A3028F4673018F4A9
:1036B000672F0C949B1A90E080E0089580E10895B4
:1036C00089EA91E00895EF92FF920F931F93CF93B1
:1036D000DF93EC018A017C01E60EF71ECE01895AC8
:1036E0009D4FCE15DF0539F4DF91CF911F910F91DA
:1036F000FF90EF900895C93A21E0D20740F40E946C
:103700002E36F80180830F5F1F4F2196E7CFF80117
:103710001082F9CFCF92DF92EF92FF920F931F9317
:10372000CF93DF937C016A018C01060F171FEC0118
:10373000CE01895A9D4FC017D10749F4DF91CF912F
:103740001F910F91FF90EF90DF90CF900895C93AAD
:1037500021E0D20740F4FE01EE19FF09EC0DFD1D3A
:1037600060810E9442362196E3CFCF93DF93C7E575
:10377000D2E060E0CE010E9442362196C11584E07D
:10378000D807B9F7DF91CF910895DF92EF92FF92BA
:103790000F931F93CF93DF9300D000D0CDB7DEB748
:1037A000F82E8FE08F1540F08FEF93E00E942E36B9
:1037B00007E512E08823C1F00F900F900F900F9053
:1037C000DF91CF911F910F91FF90EF90DF900895BF
:1037D000011584E0180781F3C8010E942E3681117B
:1037E00001C0FA940F5F1F4FF110F2CF19821A82B5
:1037F0001B821C82DD24D39478018FEFE81AF80A2B
:10380000C8010E942E3689831A828823A9F29FEF6D
:10381000980F933078F48A83D9820E5F1F4FC701C7
:103820000E942E368B83882339F2CE0101960E94A6
:103830009D09E2CF8701F9CF0F931F93CF93DF93B9
:10384000C42FD22FFC0182818823C9F040937302D8
:103850000E941A2D909372028093710280E28C0F65
:10386000883008F050C0C77081E001C0880FCA9549
:10387000EAF7DF91CF911F910F910C94C022109124
:103880007302141335C080917102909172020E94EC
:10389000322D8837910560F5C0E2CD0F1D17B9F0C4
:1038A00080E2810F883040F4177081E001C0880FFA
:1038B0001A95EAF70E94C722C83048F481E09D2F8C
:1038C000977001C0880F9A95EAF70E94C022802F56
:1038D0000E94B822C830B8F4D77081E001C0880FC8
:1038E000DA95EAF7DF91CF911F910F910C94C722DF
:1038F00080E28C0F883038F4C77081E001C0880FF7
:10390000CA95EAF7EFCFDF91CF911F910F910895FC
:103910000F939C01CB01233F4CE5340759F1A8F4E8
:10392000283DFCE53F0701F1293D4CE53407D1F185
:10393000273D3C4591F406E221EE41EE67ED7CE542
:103940000E941C1C80E00F910895253FFCE53F0775
:10395000E9F0B0F0263F3C45F9F0FC018281882374
:1039600039F110927302EFCF07E225EE45EE68EDD4
:103970007CE5E6CF06E221EE40EE63EF7CE5E0CFAA
:1039800007E225EE44EE64EF7CE5DACF06E221EEB5
:1039900042EE65EF7CE5D4CF07E225EE46EE66EF1A
:1039A0007CE5CECF08E221E045EE69ED7CE5C8CFAD
:1039B00081E0C9CFCF93DF93EC01FB0182818823A3
:1039C00009F419C1C230FCE5DF07C0F1C6319CE53E
:1039D000D90730F09E012A5F3C452930310570F54A
:1039E0000E94A72B90932D0380932C03C031ECE50C
:1039F000DE0709F4CFC008F05BC0C8308CE5D807FB
:103A000009F4B6C088F5C430ECE5DE0709F4A8C0B7
:103A1000C0F4C2308CE5D80709F49CC080912C0317
:103A20008260C330DC4509F498C080912C039091EA
:103A30002D030E94B52B0E942A2580E0DF91CF91B3
:103A4000089580912C038061C630ECE5DE0709F40F
:103A500084C080912C038860C730DC4508F47DC0A9
:103A600080912C03806279C0CC308CE5D80709F4B2
:103A700089C070F480912C038C60CA30ECE5DE07BD
:103A800009F46BC008F478C080912C038E7F65C068
:103A9000CE308CE5D80709F479C080912C038B7F58
:103AA000CF30DC4508F459C080912C038F7E55C07F
:103AB000CB3FECE5DE0709F457C030F5C3318CE5A8
:103AC000D80709F46FC078F4C131ECE5DE0709F4DA
:103AD00065C0C231DC4509F0A8CF0E942A2580913B
:103AE0002C038F773AC0C5318CE5D80709F462C042
:103AF00008F476C080912D038160CA3FDC4509F04F
:103B000094CF80932D0391CFCF3FFCE5DF0709F4DD
:103B10004DC088F480912D038D7FCD3F9CE5D90762
:103B200081F380912D038E7FCE3FDC4550F3809151
:103B30002D038360E6CFC130FDE5DF0709F459C0EE
:103B400008F444C080E0C230DD4509F06ECF0E9429
:103B50003B2C6BCF80912C03816080932C0365CF2D
:103B600080912C038460F9CF80912D038260C9CFAE
:103B700080912C038064F1CF0E942A2580912C0330
:103B80008068EBCF80912C038D7FE7CF80912C0351
:103B9000877FE3CF80912C038F7DDFCF80912C0333
:103BA0008F7BDBCF80912C03837FD7CF80912D0338
:103BB0008C7FA7CF80912C0382FB992790F921E07D
:103BC000922790FB82F990FB83F9C7CF80912D0358
:103BD000982F909591708E7F892B90FB81F991CFD2
:103BE0000E942A2590912C03892F97FB87F98058F2
:103BF000B4CF81E0ACCF81E021CFCF93DF93EB0155
:103C000086319C4511F50E94CA2A9A81992399F020
:103C10008A7A91E009F490E090937402811109C0CE
:103C200089E20E94842A0E941A2B80E0DF91CF91C2
:103C3000089585E3F6CF80917402811104C089E272
:103C40000E948B2AF0CF85E3FBCF81E0EFCF62E0CB
:103C500070E088E191E00C94091F62E070E088E177
:103C600091E00C94121F0E94EB13882361F081E80D
:103C700092E00E94F11381E090E00E94EB1F892BFB
:103C800011F40C94EE13089580918002883039F479
:103C900060E081E892E00E94091510928002089588
:103CA000CF93DF93D62FC72F0E94331E90E080E082
:103CB0000E94EB1F009739F5ED2FFC2FDC01A55872
:103CC000BD4F2C912193019685309105B9F70E9443
:103CD000F0168823B1F00E94091780937A020E949F
:103CE0008B2D6E5F7F4F8F4F9F4F60937602709347
:103CF0007702809378029093790281E0DF91CF91EF
:103D0000089580E0EACF80E0F9CFCF93DF93D62FFC
:103D1000C72F0E94441E60917602709177028091B5
:103D20007802909179020E946E2DED2FFC2F90E089
:103D300080E02191DC01A558BD4F2C930196853080
:103D40009105B9F780917A02DF91CF910C940F1809
:103D50008EE1489B02C08150E1F7489BFECF089559
:103D6000589880E28A95F1F7589A0895FC013BE053
:103D70003A95F1F720E090E080E031E040E14A95AB
:103D8000F1F7880F489B02C08160232742E04A95E3
:103D9000F1F7000040E14A95F1F79F5F6913EECF1C
:103DA00090E19A95F1F799B132E03A95F1F7000078
:103DB00040E14A95F1F7917092272081920F90830C
:103DC0000895EF92FF920F931F93CF93DF930F927B
:103DD000CDB7DEB719828C017C01E60EF11C0E1501
:103DE0001F0561F481E09981911180E00F90DF91CE
:103DF000CF911F910F91FF90EF9008950E94A81E00
:103E000068E0CE0101960E94B61EF80181938F01F1
:103E1000E6CF90938B0280938A0260938902509A36
:103E2000589A089590938B0280938A026093890236
:103E30005098589AE89AE9E6F0E080818C7F808378
:103E400008956150770B91E001C0990F6A95EAF7E8
:103E500020E031E0911108C0222391F0589A80E2CD
:103E60008A95F1F758980895492F482339F0589AC0
:103E7000232740E24A95F1F79695ECCF5898F9CF71
:103E80005898EDCFFF920F931F93CF93DF93EC01E0
:103E90008C01060F111DC017D10731F4DF91CF91AE
:103EA0001F910F91FF900895F9900E94B01E68E055
:103EB0008F2D0E94211FEFCF1F920F920FB60F92EE
:103EC00011240F931F932F933F934F935F936F93FF
:103ED0007F938F939F93AF93BF93EF93FF93CF9372
:103EE000DF930F92CDB7DEB719820E94A81E67E05C
:103EF000CE0101960E94B61E082F069506950695DE
:103F0000982F92959570202F2570920F292F23704E
:103F1000969596958770920F891344C08981811177
:103F200041C0809189028017E8F120E12A95F1F7DC
:103F3000589A509A82E08A95F1F700C0A8E00A9F4B
:103F4000C001112400918A0210918B02080F191FE1
:103F50005898F8016581662321F0868197810E9437
:103F6000421F0E94B01EF0E1FA95F1F75898509860
:103F7000589A20E12A95F1F7D80112966C91129780
:103F8000662331F113968D919C910E94E11ED80118
:103F9000ED91FC91882311F088E001C082E08083DC
:103FA0000E94A81E0F90DF91CF91FF91EF91BF91DA
:103FB000AF919F918F917F916F915F914F913F91C1
:103FC0002F911F910F910F900FBE0F901F9018957A
:103FD000ED91FC91E1CF0F931F93CF93DF9320914D
:103FE0008902281719060CF471C08C0193E0000FA8
:103FF000111F9A95E1F7C0918A02D0918B02C00FF0
:10400000D11FF894509A589825E02A95F1F70000AE
:10401000982F969595708570980F892F8370969537
:104020009695980F092B0E94B01E00C067E0802F64
:104030000E94211F80E18A95F1F75098589A489B79
:1040400017C087E090E0489915C06D81662321F183
:104050008E819F810E94E11E81111EC0509A589A44
:10406000E881F98182E08083789482E090E00DC05D
:1040700000C0E5CF019771F4509A589AE881F98110
:1040800081E08083789481E090E0DF91CF911F916F
:104090000F91089500C0D7CF0E94A81E20E22A9554
:1040A000F1F75898509A80E18A95F1F76A81662372
:1040B00021F08B819C810E94421F0E94B01EE881EA
:1040C000F9811082789490E080E0DFCF84E090E086
:1040D000DCCF90939102809390020895E09190023A
:1040E000F0919102309721F00190F081E02D099438
:1040F00080E00895E0919002F0919102309721F0D4
:104100000280F381E02D0994089520918E02309170
:104110008F022817390771F090938F0280938E02D7
:10412000E0919002F0919102309721F00680F781A2
:10413000E02D0994089520918C0230918D0228176A
:10414000390771F090938D0280938C02E091900278
:10415000F0919102309721F00084F185E02D0994CF
:1041600008950E94262D6093A1027093A20280936D
:10417000A3029093A40260939D0270939E02809389
:104180009F029093A002089585B7806885BF85B788
:10419000806885BF0895089508950C94CB200895F4
:1041A0000C94CF200E94C42087E89BE20E94C02D7F
:1041B0000E94CC200C94CD200C946E0D089508958F
:1041C0000E94DE200C94DF200E94112D0E94652D9C
:1041D0000E940A0C0E94EF180E940F170E94C91437
:1041E0000C94D020AF92BF92CF92DF92EF92FF92C9
:1041F0000F931F93CF93DF93CDB7DEB72A970FB6F8
:10420000F894DEBF0FBECDBF0E94B50C81110E9495
:10421000B12083E9A82E82E0B82E10E000E0C02E85
:10422000802F0E94E10BE82EF501F1905F01F81656
:1042300009F44FC08091200381FD0E94E70B8F2D70
:104240008E25D12CFF24F394982F9F21E9F10E9411
:10425000DC20882399F0DE82CF82EF2081E009F410
:1042600080E088870E941A2D8160782F9A8789873D
:104270004E815F8168858A850E949121F801ED5603
:10428000FD4F8081F826F0820E943E150E946D1835
:104290000E946E2090919202891791F10E946E20E7
:1042A000809392022A960FB6F894DEBF0FBECDBF60
:1042B000DF91CF911F910F91FF90EF90DF90CF9002
:1042C000BF90AF900C94A709D394FF0CF7E0DF12D6
:1042D000BBCF0F5F1F4F0A30110509F0A0CF8FEF42
:1042E00089838A831B820E941A2D8160782F9D8387
:1042F0008C8349815A816B818D810E949121C4CF29
:104300002A960FB6F894DEBF0FBECDBFDF91CF91D6
:104310001F910F91FF90EF90DF90CF90BF90AF90E3
:104320000895DF92EF92FF920F931F93CF93DF9345
:10433000CDB7DEB72B970FB6F894DEBF0FBECDBF5B
:104340007A878B87F42E052F162FE72ED82E611132
:104350000E94EA2A1E821D827E2DEC82DD824F2D74
:10436000502F612F8D2D9E812B960FB6F894DEBFB6
:104370000FBECDBFDF91CF911F910F91FF90EF90B6
:10438000DF900C94A027FC01808191810C94562A27
:10439000CF93C82F882309F483C08238C1F40E94C8
:1043A0006E2081FD7DC089E30E94842A0E941A2B21
:1043B0002FEF81EE94E0215080409040E1F700C063
:1043C000000089E30E948B2ACF910C941A2B83382A
:1043D000A1F40E946E2080FD63C083E50E94842AC0
:1043E0000E941A2B2FEF81EE94E0215080409040E4
:1043F000E1F700C0000083E5E5CF8438A1F40E9416
:104400006E2082FD4DC087E40E94842A0E941A2BF0
:104410002FEF81EE94E0215080409040E1F700C002
:10442000000087E4CFCF8CEF8C0F813A90F46C2F93
:1044300080912801909129010E94522C882329F013
:104440008C2F0E948B2A0E941A2B8C2F0E94842A68
:10445000BBCF80E28C0F883048F4C77081E001C088
:10446000880FCA95EAF70E94CD2AAECFEBE5EC0F94
:10447000E33040F4F0E0E053FE4F808190E0CF91D4
:104480000C948520C85AC73158F4EC2FF0E0EE0F99
:10449000FF1FEE55FE4F80819181CF910C949B20A0
:1044A000CF910895882309F44BC0823871F40E949B
:1044B0006E2081FF45C089E30E94842A0E941A2B46
:1044C00089E30E948B2A0C941A2B833859F40E949A
:1044D0006E2080FF35C083E50E94842A0E941A2B3B
:1044E00083E5EFCF843859F40E946E2082FF28C004
:1044F00087E40E94842A0E941A2B87E4E2CF9CEF73
:10450000980F913AF0F290E2980F983050F487703B
:1045100091E001C0990F8A95EAF7892F0E94D32A6A
:10452000D2CF9BE5980F933020F490E080E00C947C
:104530008520885A873120F490E080E00C949B20FD
:1045400008951F93CF93DF93182FEB010E94C8218A
:10455000209731F4812FDF91CF911F910C9452223B
:104560008FE99FE00197F1F700C000002197F0CF9D
:1045700070E060E0893311F460E570E00C94A122F2
:10458000882321F00E94CD2A0C941A2B08958823A9
:1045900021F00E94D32A0C941A2B0895BF92CF9237
:1045A000DF92EF92FF920F931F93CF93DF936C01F3
:1045B000D62FC72FFC011281058102950F700E9432
:1045C000A22AE82E8823A1F0E12E112389F08C2F56
:1045D000807F803429F080E28D0FE12C883040F01C
:1045E00082E00E946B2B0E94A22A91E0E82EE9262D
:1045F000BC2EB2949FE0B922EB2DF0E0E655F94CC9
:104600000C9487350C2F0F70C07F11F00295007F3E
:104610001123A9F0002359F080E28D0F883010F0AB
:10462000D11109C0802F0E94CD2A0E941A2B8D2FF4
:104630000E94C82114C0802F0E94DD2AF6CF8D2F42
:104640000E945222002359F080E28D0F883010F032
:10465000D1112CC0802F0E94D32A0E941A2B2B2DFF
:104660002850330B2430310520F40E946E200E9424
:10467000A709EE2009F493C10E949E2A80FD8FC1F4
:10468000F60112820E94982A0E942429C6010E94E3
:10469000F0240E94982ADF91CF911F910F91FF90F3
:1046A000EF90DF90CF90BF900C944529802F0E940F
:1046B000E32AD3CFFC2FFF70FF2EC07FC03219F04A
:1046C000F29480EFF822DD2369F0D13049F1112313
:1046D00091F1002351F1F601858180FFA8CF8F7001
:1046E000858323C0112381F0011106C00E94FD2A99
:1046F0008F290E94C022B3CF0130C1F70E94FD2A4A
:104700008F290E94032BABCF011106C00E94102BF2
:104710008F2D0E94C722A3CF013009F4A0CFF6CF7E
:10472000112329F0063008F09ACF8F2DE2CF053003
:1047300008F095CFEDCF002359F3D93349F4FFEFBB
:1047400027EE33E0F15020403040E1F700C0000098
:104750008D2F0E94522283CF8C2F86958695837051
:1047600069F0813009F07BCF8D2F9C2F9370111150
:1047700002C090E080E00E949B2071CF8D2F9C2F83
:104780009370111102C090E080E00E94852067CFF5
:104790008C2F837009F041C0111161CF4D2F4295CC
:1047A00046954770440F440F0D2F0F7010E030E016
:1047B00020E0042E04C0000F111F221F331F0A9493
:1047C000D2F760E070E0CB01D4FF0FC06FE070E083
:1047D00080E090E004C0660F771F881F991F4A95FC
:1047E000D2F76095709580959095C695C695C370E3
:1047F000602B712B822B932BC23049F058F4C130BF
:1048000019F00E94D6282BCF0E94C42828CF0E94DE
:10481000E82825CF0E94C22822CF8695112311F0C7
:104820008C2F8170882309F41ACF4D2F429546951D
:104830004770440F440F0D2F0F7010E030E020E060
:10484000042E04C0000F111F221F331F0A94D2F739
:1048500060E070E0CB01D4FF0FC06FE070E080E05B
:1048600090E004C0660F771F881F991F4A95D2F702
:104870006095709580959095C695C695C370602B90
:10488000712B822B932BC23049F058F4C13019F0B0
:104890000E949B29E4CE0E948929E1CE0E94AD2985
:1048A000DECE0E94FE28DBCECF70112329F08C2FA4
:1048B0000E9424298D2F1DCF8D2F0E94C7228C2F5F
:1048C0000E944529CCCED23F89F160F4D03FC9F097
:1048D000D13F29F1112309F442C00111A8CE8C2F38
:1048E0008F7121C0D33F39F1D43FA1F7112369F172
:1048F000CF718C2F0E94242963E08C2F0E94502BB3
:10490000AECE112341F0053008F0A9CE8C2F8F7167
:104910000E946829A4CE063008F0A1CEF7CF8C2FD4
:104920008F71112369F20E94242999CE8C2F8F71E7
:104930001123C9F3C5CF112329F08C2F8F710E9449
:104940000F298DCE0E940A298ACE81E00E946B2B0E
:10495000023008F484CE82E00E946B2B80CE0023CC
:1049600059F0D93309F0F4CE8FEF97EEE3E08150A0
:104970009040E040E1F7EACE8C2F8F71A1CF4C2F11
:104980004F706D2FC6010E94AF090E943A2867CE72
:104990004C2F4F706D2FC6010E94B20960CEDF917F
:1049A000CF911F910F91FF90EF90DF90CF90BF902C
:1049B00008950F931F93CF93DF93EC016881798162
:1049C0008A810E94602A8C010E94BF290E94C1280E
:1049D000B801CE01DF91CF911F910F910C94CE229F
:1049E000CF93DF93EC018B819C81892B29F0888107
:1049F000998189238F3F59F4DF91CF910895CE019A
:104A00000E94D924CE01DF91CF910C94CE07CE0124
:104A10000E9469088111F3CF0E94A22A882361F3C2
:104A20008A81882349F382E0DF91CF910C946B2B2C
:104A300090E080E00E94852090E080E00E949B2032
:104A40000E94EA2A0E94FA2A0C941A2B0E94922AA7
:104A50000C9418250E94DA2A0C942625E92FE29559
:104A6000EF70E250EE3070F4F0E0E654F94C0C9444
:104A70008735803F19F020F4883E20F481E00895C6
:104A8000843FE1F380E00895883EC0F3813FD1F791
:104A9000F5CF93FB882780F908950E94562A0C943D
:104AA0002E25CF93DF9300D000D00F92CDB7DEB785
:104AB0000F900F900F900F900F90DF91CF9108956E
:104AC000CF93DF9300D000D000D0CDB7DEB72696CD
:104AD0000FB6F894DEBF0FBECDBFDF91CF91089522
:104AE0001F93CF93DF93C091A60216E08091A70297
:104AF0008C1304C0DF91CF911F910895D0E01C9FCB
:104B0000F0011D9FF00D1124E855FD4F40815181AA
:104B100062817381848195810E9460252196C7708E
:104B2000E5CF4091D8025091D9026091DA0270919C
:104B3000DB028091DC029091DD020C9460251F93D2
:104B4000CF93DF938091DD02807FA9F48091DA0218
:104B5000882389F08091A602C091A7026091D802B3
:104B60007091D902A091DB02B091DC02D62FD7233D
:104B700016E0C81304C0DF91CF911F91089590E013
:104B8000109711F0DF3F19F401968770F2CF189F4C
:104B90009001199F300D1124F901E855FD4F418115
:104BA0004713F2CF40814613EFCF42814111ECCF42
:104BB000438154814A1B5B0B4837510528F780918C
:104BC000DD028F7080618093DD02F901E355FD4FB6
:104BD00080818F708061808388ED92E00E94F02454
:104BE000DF91CF911F910C947025AF92BF92CF921D
:104BF000DF92EF92FF920F931F93CF93DF93CDB786
:104C0000DEB761970FB6F894DEBF0FBECDBF8C0143
:104C100085E0F801DE011D9601900D928A95E1F77D
:104C2000F80140815181E28088EDC82E82E0D82EC3
:104C30006091DB027091DC026115710509F461C1BC
:104C40009091D8022091D902892F82238F3F09F4B5
:104C500058C1A380B480F090DA02F501E61BF70B8F
:104C6000FF2009F4FCC08091DD02382F307FE83747
:104C7000F10508F0B2C0311179C0FE2C251323C014
:104C8000941321C0E1101FC08F7080618093DD02FA
:104C90000E949125C6010E94F0248091DD02F80156
:104CA00085838F2D61960FB6F894DEBF0FBECDBF02
:104CB000DF91CF911F910F91FF90EF90DF90CF90F8
:104CC000BF90AF900895AB2829F0842F85238F3FA4
:104CD00009F033C180E0F82FF170DF2E80FF3CC077
:104CE0008091A6022091A70236E0821315C04D875D
:104CF0005E878D859E850E94562A292F22952F70CA
:104D00002230F0F0243018F59F70F1F0F801958111
:104D1000907FD1F4D12C1EC090E0389FF001399FD4
:104D2000F00D1124E855FD4F6181651306C06081C7
:104D3000641303C062816E110FC001968770D5CFD6
:104D40009F7011F0882331F3805E883018F3C8011A
:104D50000E94F024FD2CA5CFEE2009F4A2CF809173
:104D6000DD0281608093DD02F12C9BCF251306C00C
:104D7000941304C0F801EE2009F48DC04D875E87BE
:104D80008D859E850E944D25882319F1EE2009F11D
:104D90008091DD02803270F02091D8023091D902EA
:104DA00038872F831986BB86AA868C87CE01079603
:104DB0000E94F02486E0F801A8EDB2E001900D9287
:104DC0008A95E1F70E949F250E949125FF24F39484
:104DD00068CFC8010E94F024F9CF311113C07A2D99
:104DE000B98AA88A6E2D89890E94512588ED92E0A2
:104DF0000E94F02486E0F60111928A95E9F70E945C
:104E00009125B2CF25130FC094130DC0E1100BC034
:104E1000F8018583C8010E94F02486E0F601119212
:104E20008A95E9F73ECF4D875E878D859E850E94E6
:104E30004D25882371F2EE2061F28091DD028032EF
:104E400008F4B8CF2091D8023091D9023A8329834F
:104E50001B82BD82AC828E83CE010196A9CFE8373A
:104E6000F10508F041C0FE2CEE2009F4B2CF251365
:104E70002AC0941328C08091DD0280FD1BC0982FAA
:104E8000907FC1F0F8018583903F31F0982F907F9B
:104E9000905F8F70892B8583C8010E94F02486E083
:104EA000F801A8EDB2E001900D928A95E1F70E9419
:104EB0009125F7CE86E0F801A8EDB2E001900D92C1
:104EC0008A95E1F7EECE4D875E878D859E850E949F
:104ED0004D2581116FCF8091DD0281608093DD02CD
:104EE000C8010E94F024DDCE7A2DB98AA88A6E2DE1
:104EF00089890E94512586E0F60111928A95E9F789
:104F0000D6CFEE2009F465CF4D875E878D859E85CF
:104F10000E944D25F82E882309F45BCF86E0F80126
:104F2000A8EDB2E001900D928A95E1F788ED92E04C
:104F30000E94C3210E949F25BACF81E08E25CBCE4F
:104F40001F93CF93DF93CDB7DEB72C970FB6F894AE
:104F5000DEBF0FBECDBF4F83588769877A878B87A7
:104F60009C87CE0107960E94F525882369F08A85E3
:104F70009B85892B39F04F815885842F85238F3F5E
:104F800009F071C016E05FC086E0FE013796DE01D1
:104F9000119601900D928A95E1F78A859B85892B60
:104FA00089F38F81988589238F3F61F32091A70230
:104FB00030E0C9010196877099274091A6024817F1
:104FC000190671F40E942A251092A7021092A602D7
:104FD00086E0E8EDF2E0DF011D928A95E9F7D2CF95
:104FE00096E0929FD001939FB00D1124A855BD4F1C
:104FF000FE01319601900D929A95E1F78093A702F8
:105000000E947025BFCF819FC001112488559D4FFC
:105010000E94F5258823E9F0E091A6021E9FF00189
:105020001124E855FD4F4081518162817381848153
:1050300095810E9460258091A60290E0019687707C
:1050400099278093A6028091A6029091A7028913C6
:10505000DACF2C960FB6F894DEBF0FBECDBFDF912E
:10506000CF911F91089569857A858B859C850E94D3
:10507000602588CFEF92FF920F931F93CF93DF931A
:105080008C01892B81F0F12CEE24E394E801219628
:10509000F8018491843770F4843008F05FC0813067
:1050A000B1F08230A1F1DF91CF911F910F91FF906C
:1050B000EF900895853709F44CC008F43DC09CE793
:1050C000980F903780F78F770E94522249C00E5F69
:1050D0001F4FFE01849190E2980F983060F4877022
:1050E000FE2D01C0FF0F8A95EAF78F2F0E94ED2A4F
:1050F0000E941A2B02C00E94C8218F2D815030F2CD
:10510000EFE9FFE03197F1F700C00000F7CF0E5F45
:105110001F4FFE01849190E2980F983050F48770F1
:10512000FE2D01C0FF0F8A95EAF78F2F0E94F32A08
:10513000DFCF0E945222E1CF0E5F1F4FFE01C491CC
:10514000C150D8F28FE99FE00197F1F700C000004D
:10515000F7CF0E5F1F4FFE01F490CFCF0E94C82102
:105160008E01CBCF08950C94B2280E94B32860938F
:105170000F037093100380931103909312030C9408
:10518000182508950C94B5280F931F9300910F03D1
:10519000109110032091110330911203602B712B99
:1051A000822B932B1F910F910C94B5280F931F9373
:1051B00000910F03109110032091110330911203FD
:1051C00060237123822393231F910F910C94B528A0
:1051D0000F931F9300910F0310911003209111035F
:1051E0003091120360277127822793271F910F9117
:1051F0000C94B5280C94B2280C94FA280E94FC2830
:1052000060930B0370930C0380930D0390930E0334
:105210000C94182560E070E0CB010C94FE280F93ED
:105220001F9341E050E060E070E08A019B0104C000
:10523000000F111F221F331F8A95D2F7C901B80131
:105240001F910F910C94FE280F931F9341E050E0A3
:1052500060E070E004C0440F551F661F771F8A95F9
:10526000D2F780910B0390910C03A0910D03B091A4
:105270000E038A019B01082B192B2A2B3B2BC901FA
:10528000B8011F910F910C94FE280F931F9341E0DA
:1052900050E060E070E004C0440F551F661F771FA8
:1052A0008A95D2F7CB01BA0160957095809590955B
:1052B00000910B0310910C0320910D0330910E030C
:1052C00060237123822393231F910F910C94FE2856
:1052D0000F931F9341E050E060E070E004C0440F82
:1052E000551F661F771F8A95D2F780910B03909107
:1052F0000C03A0910D03B0910E038A019B010827B6
:1053000019272A273B27C901B8011F910F910C9437
:10531000FE280F931F9300910B0310910C03209113
:105320000D0330910E03602B712B822B932B1F9159
:105330000F910C94FE280F931F9300910B03109173
:105340000C0320910D0330910E03602371238223FF
:1053500093231F910F910C94FE280F931F9300919C
:105360000B0310910C0320910D0330910E03602765
:105370007127822793271F910F910C94FE2808957F
:1053800027E0929F800D1124982F977041E001C073
:10539000440F9A95EAF786958695869595E0899FBC
:1053A000F0011124E252FD4F90E080E070E0519155
:1053B000DF0111979B01082E02C0369527950A94AC
:1053C000E2F7217021952527242325272C93019688
:1053D0008530910561F7089527E0929F800D112493
:1053E000982F977086958695869525E0829FF00187
:1053F0001124E252FD4F50E040E080E0219130E086
:10540000092E02C0369527950A94E2F721703327BA
:10541000042E01C0220F0A94EAF7822B4F5F5F4FE0
:105420004530510559F70895BF92CF92DF92EF9220
:10543000FF920F931F93CF93DF938C01C0900B03C8
:10544000D0900C03E0900D03F0900E0380910F03B9
:1054500090911003A0911103B0911203C82AD92A88
:10546000EA2AFB2ACFE1D0E0BC2ED701C6010C2EE0
:1054700004C0B695A795979587950A94D2F780FDB5
:105480000EC0219788F7B12C8B2DDF91CF911F9102
:105490000F91FF90EF90DF90CF90BF900895B801EB
:1054A0008C2F0E94BB09019761F3EECFCF93DF935E
:1054B000EC010E94142ABE01DF91CF910C94BB092C
:1054C0001F93CF93DF93EB019091A502992331F0C5
:1054D000CB01DF91CF911F910C94562A882379F04C
:1054E000CB010E94142A182F682FCE010E94C029D8
:1054F000BE01812FDF91CF911F910C94BB09CB018D
:105500000E94EC29182FF4CF682F809128019091E8
:1055100029010C94882C682F8091280190912901F1
:105520000C948A2C80912801909129010C948C2C48
:105530008091130385958595859508958091130332
:105540008770089590911303977081E009F480E0CB
:10555000089590912D0392FB222720F9281751F0EE
:1055600080FB92F990932D0380912C0390912D0351
:105570000C94B52B089580912D0382FB882780F928
:1055800091E089270C94A92A81E00C94A92A80E053
:105590000C94A92A80911F03089590911F03892BD1
:1055A00080931F030895809590911F0398239093F3
:1055B0001F03089510921F03089590911E03892BD5
:1055C00080931E030895809590911E0398239093D5
:1055D0001E03089510921E03089590911D03892BB8
:1055E00080931D030895809590911D0398239093B7
:1055F0001D03089510921D030895809114030895CA
:1056000008950C94002B90912D0392FD08C0909169
:105610001403981721F0809314030C94012B089520
:1056200080911403882329F01092140380E00C94D5
:10563000012B0895E0912801F091290180911F0329
:105640008083E0912801F0912901808190911E03CF
:10565000892B8083E0912801F0912901808190912C
:105660001D03892B808390911403992381F0E0918D
:105670002801F09129018081892B80838091280164
:10568000909129010E94402C81110E94102B809141
:105690002801909129010C947A2008950C944D2BA7
:1056A00090912D0392FD10C098E0899F90011124E4
:1056B000622B609313030E94242980911303859524
:1056C000859585950C944E2B0C94242910921303E8
:1056D00080E00C944E2B9091130380958923809346
:1056E0001303282F277039F4282F082E000C330BB2
:1056F0009217130621F490912D0392FF07C0859510
:10570000859585950E9445290C94662B089580E027
:1057100008956FEF7FEF90E080E00C94603690E0AA
:1057200080E00E943C3621E08A3E9E4F09F020E056
:10573000822F089582E090E00C942E3683E090E072
:105740000C942E36682F83E090E00C944236CF9371
:1057500084E090E00E942E36C82F82E290E00E9402
:105760002E36982F8C2FCF910895CF93C92F682F65
:1057700084E090E00E9442366C2F82E290E0CF916C
:105780000C944236AB01BC018FE090E00C9454368F
:10579000AB01BC0183E190E00C94543660E070E012
:1057A000CB010C94C82B60E070E0CB010E94C22BAF
:1057B0000C94CE2B6AEE7EEF90E080E00E94603683
:1057C00060E082E090E00E94423660E083E090E09A
:1057D0000E94423610920F03109210031092110390
:1057E0001092120360E084E090E00E94423660E094
:1057F00082E290E00E94423660E085E090E00E9404
:10580000423660E086E090E00E9442366FEF87E02B
:1058100090E00E94423640E050E0BA0188E090E01B
:105820000E94543660E08DE090E00E94423640E0F5
:1058300050E0BA0188E190E00E94543660E087E1D0
:1058400090E00E94423640E050E0BA018CE190E0E6
:105850000E94543670E060E080E290E00E94603682
:1058600040E050E0BA0188E190E00E9454360C9488
:10587000D32B0C94DA2B682F8EE090E00C944236F8
:105880009C012E5F3F4FAC01485F5F4F80E02417C3
:10589000350709F40895F90191919F019923B9F30E
:1058A0008F5FF5CF662349F0FC013296089621916F
:1058B000261729F0E817F907D1F780E0089581E06D
:1058C00008959C01FC0132969FEF80E041914617BC
:1058D00051F09F3F19F4411101C0982F8F5F86301E
:1058E000A9F79F3F09F40895290F311D97FD3A95B7
:1058F000F90162830895FC013296089621912613DE
:1059000003C0DF0111971C92E817F907B9F7089552
:105910000C94612C0C947B2C029626E0FC011192D5
:105920002A95E9F70895089508950C94942C809190
:105930009E03843061F10E94952C80E00E940F1834
:1059400080E00E94A7091092210388E190E020E402
:105950000FB6F894A895809360000FBE2093600066
:1059600083B7817F846083BF83B7816083BF78946E
:10597000889583B78E7F83BF0FB6F894A8958091E2
:105980006000886180936000109260000FBE0895EF
:105990000895CF930E94932C0E94B50C0E94C82CAE
:1059A000C0E08C2F0E94E10B811105C0CF5FCA308F
:1059B000C1F7CF91089581E0FCCF08950C94DD2CC0
:1059C0000E942A250E940F170E946E200E94A7099C
:1059D0000C94DE2C1F921FB61F9211248F939F935D
:1059E000AF93BF9380912103811113C080919203E3
:1059F00090919303A0919403B09195034196A11DBA
:105A0000B11D8093920390939303A0939403B0935A
:105A10009503BF91AF919F918F911F901FBE1F90D3
:105A2000189582E084BD93E095BD9AEF97BD809371
:105A30006E0008952FB7F89480919203909193038C
:105A4000A0919403B09195032FBF08952FB7F894B8
:105A500060919203709193038091940390919503C8
:105A60002FBF08959C014FB7F894809192039091B5
:105A70009303A0919403B09195034FBF821B930BA6
:105A8000089578941F921FB61F9211248F939F93AD
:105A9000AF93BF938091920390919303A09194034D
:105AA000B09195030196A11DB11D8093920390932F
:105AB0009303A0939403B0939503BF91AF919F91EB
:105AC0008F911F901FBE1F901895109296031092F1
:105AD000970310929803109299030895CF92DF9242
:105AE000EF92FF926B017C010E946E0D81110EC03E
:105AF0000E94262DC61AD70AE80AF90AC092960310
:105B0000D0929703E0929803F0929903FF90EF9060
:105B1000DF90CF9008950F931F930E946E0D8823FE
:105B200021F01F910F910C94262D0E94262D00919B
:105B30009603109197032091980330919903600F79
:105B4000711F821F931F1F910F9108950E946E0D68
:105B500081110C941A2D0E948B2DCB01089587E79B
:105B600097E7909301088093000888E19AE00FB6C8
:105B7000F894A895809360000FBE90936000FFCFCB
:105B80009093E3018093E201089580912A030895A0
:105B90000895CF93DF9300D00F92CDB7DEB79091E9
:105BA0009E03943011F589837B836A839093E90087
:105BB0008FEF9091E800815095FD06C095ED9A9584
:105BC000F1F700008111F5CF8091E80085FF0DC04D
:105BD00050E040E063E070E0CE0101960E94213089
:105BE0008091E8008E778093E8000F900F900F90DF
:105BF000DF91CF910895BC0184E00C94C92DBC01C4
:105C000083E00C94C92DCF93DF93EC0181E0809366
:105C1000E9008FEF9091E800815095FD06C095ED69
:105C20009A95F1F700008111F5CF8091E80085FF8A
:105C300014C050E040E068E070E0CE010E942130E6
:105C40008091E8008E778093E80088E0FE01A2E270
:105C5000B3E001900D928A95E1F7DF91CF9108951D
:105C6000CF93FC01603221F580919E03843001F5D1
:105C7000C091E900CF702091EC00922F917020FD2F
:105C800090E8C92B82E08093E9008091E80080FFD2
:105C90000CC050E040E060E270E0CF010E94213093
:105CA0008091E8008E778093E800CF70C093E90080
:105CB000CF91089580919D03811109C00E94003207
:105CC0000E945D328091E20084608093E20008953A
:105CD00010929D03089508950895089542E061EC9F
:105CE00081E00E947C3142E261EC84E00E947C31E0
:105CF00042E261EC82E00E947C3142E260EC83E0AF
:105D00000C947C318091A003833009F461C030F49D
:105D10008130D1F1823009F49DC008958A3009F4B0
:105D200089C08B3009F46FC0893009F050C0809170
:105D30009F03813209F04BC08091A3039091A4038B
:105D4000009719F0029709F042C08091E800877F20
:105D50008093E8008091E80082FF35C09091F300C5
:105D60008091F200029729F48091F1008B7F8130BD
:105D700021F48091F10080932A038091E8008B77D1
:105D80008093E8000C94B03180919F03813AF9F43C
:105D90008091E800877F8093E8008091A303909131
:105DA000A403892B61F468E082E293E070E00E9432
:105DB000BF308091E8008B778093E800089560E021
:105DC00090E080E0F3CF80919E038111C3CF0895CE
:105DD00080919F03813AD9F78091A3039091A40306
:105DE000892BA9F78091E800877F8093E800809154
:105DF000E80080FFFCCF809134018093F100809116
:105E0000E8008E77BDCF80919F03813201F78091AA
:105E1000A3039091A403892BD1F68091E800877F9A
:105E20008093E8000E94B0318091A10380933401F7
:105E30000C942A2580919F03813249F68091E800D5
:105E4000877F8093E8000E94B0318091A203809305
:105E50002B03089580919F03813A09F0B8CF809178
:105E6000E800877F8093E8008091E80080FFFCCF06
:105E700080912B03C2CFCDB7DEB7A0970FB6F894B1
:105E8000DEBF0FBECDBF84B7877F84BF0FB6F89447
:105E9000A8958091600088618093600010926000F6
:105EA0000FBE80E890E00FB6F89480936100909365
:105EB00061000FBE0E94D2200E9400320E945D321B
:105EC0008091E20084608093E20078940E94E6343E
:105ED0000E94E4208AE291E00E94692013E0809110
:105EE0009E038530B9F00E94F22080919E03843099
:105EF000C1F00E94E020F3CF0E94972C80919C0378
:105F0000882341F00E94C92C882321F00E940B3085
:105F10000E942A2580919E03853071F30E94E02C17
:105F2000E2CF1093E9008091E80082FFE2CF8091F8
:105F3000E80090E085FF09C050E040E060E270E0DA
:105F4000CE0101960E94703091E08091E8008B773D
:105F50008093E800992369F260E2CE0101960E94E5
:105F6000BE19C7CF0C94B42F292F33272330310506
:105F700021F168F42130310509F443C022303105A4
:105F800009F444C090E080E030E020E026C02132F7
:105F9000310551F122323105A9F76330710590F7CF
:105FA000FB01EE0FFF1FEA52FE4F208131816D523F
:105FB0007E4FFB01808190E010C0992781309105D0
:105FC00081F0009729F00297E9F6EAEDFCE002C0C3
:105FD000ECEFFCE0849190E09F01FA013183208393
:105FE0000895EEEEFCE0F6CF6330710558F6660FCB
:105FF000771FFB01E452FE4F2081318189E090E060
:10600000ECCF82E190E02BE53DE0E7CF8BE590E03F
:1060100020E03DE0E2CF80E189BD82E189BD09B4A5
:1060200000FEFDCF8091D8008F7D8093D8008091B5
:10603000E00082608093E0008091E00081FDFCCF71
:106040000895AF92BF92CF92DF92FF920F931F936A
:10605000CF93DF936C01EB018A010E94CF31F82EC0
:10606000811123C00115110539F0F801808191815A
:10607000C81BD90BC80ED91EB12CA12C2097A9F092
:106080008091E80085FD22C08091E8008E778093A2
:10609000E80001151105A1F0F80180819181A80E99
:1060A000B91EB182A08285E0F82E8F2DDF91CF91AD
:1060B0001F910F91FF90DF90CF90BF90AF90089508
:1060C0000E94CF318823D1F2F82EEFCFF6018191D3
:1060D0006F018093F1002197FFEFAF1ABF0ACECF77
:1060E000AF92BF92CF92DF92FF920F931F93CF9305
:1060F000DF936C01EB018A010E94CF31F82E8111F0
:1061000023C00115110539F0F80180819181C81B68
:10611000D90BC80ED91EB12CA12C2097A9F08091C3
:10612000E80085FD22C08091E8008B778093E8002D
:1061300001151105A1F0F80180819181A80EB91E09
:10614000B182A08285E0F82E8F2DDF91CF911F9133
:106150000F91FF90DF90CF90BF90AF9008950E9475
:10616000CF318823D1F2F82EEFCF8091F100F601E4
:1061700081936F012197FFEFAF1ABF0ACECFFC01C9
:106180008091A5039091A60386179707A0F061154B
:10619000710529F49091E8009E779093E80090E0D3
:1061A0006115710551F4911108C08091E80082FFDA
