:100000000C9421070C943E070C943E070C94863404
:100010000C943E070C943E070C943E070C943E074C
:100020000C943E070C943E070C94C6310C949E32FF
:100030000C945D170C943E070C943E070C943E07FD
:100040000C943E070C943E070C943E070C943E071C
:100050000C943E070C94A2310C943E070C943E077E
:100060000C943E070C943E070C943E070C943E07FC
:100070000C943E070C943E070C943E070C943E07EC
:100080000C943E070C943E070C943E070C943E07DC
:100090000C943E070C943E070C943E070C943E07CC
:1000A0000C943E070C943E070C943E070501090290
:1000B000A10185020901A1000509190129081500FE
:1000C0002501950875018102050109300931158165
:1000D000257F95027508810609381581257F9501D0
:1000E00075088106050C0A38021581257F95017572
:1000F000088106C0C005010980A101850319012AF4
:10010000B700150126B700950175108100C0050CD8
:100110000901A101850419012AA002150126A002E6
:10012000950175108100C005010906A1018506052C
:100130000719E029E71500250195087501810205D9
:1001400007190029EF1500250195F07501810205B9
:10015000081901290595057501910295017503910D
:1001600001C00660FF0961A1010962150026FF00B8
:100170009520750881020963150026FF00952075FA
:10018000089102C005010906A101050719E029E748
:1001900015002501950875018102950175088101F9
:1001A0000507190029FF150026FF0095067508812F
:1001B000000508190129051500250195057501910E
:1001C00002950175039101C000AF00AE09025B000A
:1001D000030100A0FA090400000103010100092144
:1001E00011010001224400070581030800010904F0
:1001F0000100020300000009211101000122220078
:1002000007058203200001070503032000010904FC
:100210000200010300000009211101000122B600C3
:1002200007058403200001120100020000000844B9
:100230004D61600001010200013A03450072006750
:10024000006F004400610073006800200048006FE8
:100250000074007300770061007000200042007994
:1002600000200050006F0073006900740072006F7E
:10027000006E000000280350006F007300690074D6
:100280000072006F006E00200045006C0065006386
:1002900000740072006F006E0069006300000004CB
:1002A00003090429001E001F002000210022002F46
:1002B00000350014001A000800150017002D002B4F
:1002C0000004001600070009000A004C00E1001DB0
:1002D000001B000600190005002C00E000E300E20E
:1002E000000600225204004C000400050006000035
:1002F0000000000000000046002700260025002422
:1003000000230030003100130012000C0018001C04
:10031000002E00340033000F000E000D000B002AE9
:1003200000E5003800370036001000110028004FAB
:1003300000520051005000235205002A0009000815
:1003400000070000000000000000000100010001A3
:100350000001000100010001000100007C20782163
:1003600078247823780100010001000278067804DF
:100370007803780100010001000100010001000183
:100380000001000100010001000100010001000165
:10039000000400050006000000000000000000014D
:1003A0000001000100010001000100010001000145
:1003B00000277828782578267801000100010001BF
:1003C0000001000100010001000100010001000125
:1003D0000001000100010001000100010001000115
:1003E00000010001000900080007000000000000F3
:1003F00000000044003A003B003C003D003E002F5E
:100400000235021E021F022002210222022D022BAF
:10041000001E001F002000210022004C00E10023EC
:100420000024002500260027002C00E000E300E265
:1004300000060022522C004C0004000500060000BB
:100440000000000000000045004300420041004061
:10045000003F003002310227022602250224022337
:10046000022E02340233020F000E000D000B002A90
:1004700000E5003802370236021000110028004D56
:10048000004B004E004A00235228002A00090008B1
:10049000000700000000000000000044003A003B9C
:1004A000003C003D003E002F0235021E021F0220CC
:1004B00002210222022D022B001E001F002000211B
:1004C0000022004C00E10023002400250026002724
:1004D000002C00E000E300E200060022522C004C59
:1004E00000040005000600000000000000000045B8
:1004F0000043004200410040003F0030023102272B
:100500000226022502240223022E02340233020FA5
:10051000000E000D000B002A00E5003802370236FD
:10052000021000110028004D004B004E004A00232D
:100530005228002A000900080007000000000000FF
:10054000000000A900AA004B004E000100010001BC
:1005500000010023782478257826782778287821C8
:10056000782278000080C0E0F0F8FCFCFEFEFEFF80
:100570007F3F3F3F3F7FFFFEFEFEFC9C3870E0C0A8
:10058000800000F0FEFFFFFFFFFFFFFFFFFFFFFF08
:10059000FCF8F0F0F8FCFFFF7F3F1F0300000003B2
:1005A0001FFEF00F7FFFFFFFFFFFFFFFFF0F07039F
:1005B000C3E1F1F1E1C1000000000000000000C053
:1005C000F87F0F00000103070F1F3F3F7F7C70E0A3
:1005D000E0C3C3C3C3C0E060607030381C0E0703C3
:1005E0000100004350534C4B000A0A00556E6465ED
:1005F00066005261697365004C6F776572004261F5
:1006000073650A004C41594552000A0A004D6F6457
:1006100000436C6D6B0A00517772740A000A0A007D
:1006200007087F0807003E5B4F5B3E003E6B4F6B49
:100630003E001C3E7C3E1C00183C7E3C18001C57B3
:100640007D571C001C5E7F5E1C0000183C180000DB
:10065000FFE7C3E7FF00001824180000FFE7DBE70F
:10066000FF0030483A060E00262979292600407FEF
:1006700005050700407F05253F005A3CE73C5A002E
:100680007F3E1C1C0800081C1C3E7F0014227F2299
:1006900014005F5F005F5F0006097F017F00006656
:1006A00089956A0060606060600094A2FFA2940077
:1006B00008047E04080010207E20100008082A1C70
:1006C0000800081C2A0808001E10101010000C1E3C
:1006D0000C1E0C0030383E383000060E3E0E060070
:1006E00000000000000000005F000000000700079D
:1006F0000000147F147F1400242A7F2A1200231381
:1007000008646200364956205000000807030000C4
:10071000001C224100000041221C00002A1C7F1CFA
:100720002A0008083E080800008070300000080811
:1007300008080800000060600000201008040200A3
:100740003E5149453E0000427F4000007249494900
:1007500046002141494D33001814127F10002745EF
:10076000454539003C4A49493100412111090700FA
:10077000364949493600464949291E0000001400FF
:10078000000000403400000000081422410014144E
:100790001414140000412214080002015909060033
:1007A0003E415D594E007C1211127C007F4949493F
:1007B00036003E41414122007F4141413E007F4998
:1007C000494941007F09090901003E414151730037
:1007D0007F0808087F0000417F4100002040413F22
:1007E00001007F08142241007F40404040007F020A
:1007F0001C027F007F0408107F003E4141413E0003
:100800007F09090906003E4151215E007F0919292F
:10081000460026494949320003017F0103003F4059
:1008200040403F001F2040201F003F4038403F0015
:100830006314081463000304780403006159494DEC
:100840004300007F414141000204081020000041A4
:1008500041417F000402010204004040404040004A
:100860000003070800002054547840007F284444C7
:100870003800384444442800384444287F00385421
:100880005454180000087E09020018A4A49C7800A3
:100890007F080404780000447D4000002040403D73
:1008A00000007F102844000000417F4000007C04CD
:1008B000780478007C080404780038444444380004
:1008C000FC182424180018242418FC007C080404B4
:1008D000080048545454240004043F4424003C407D
:1008E00040207C001C2040201C003C4030403C004C
:1008F0004428102844004C9090907C004464544C50
:10090000440000083641000000007700000000416C
:10091000360800000201020402003C2623263C00A7
:10092000000000000000404040F0F8F8FF38FFF8F9
:10093000F83FF8F8FF38FFF8F8F0404040000000BA
:1009400000000080C0C0C0800000C0C08000000067
:1009500080C0C000C0C0000080C0C0000000000017
:10096000C0C0C0C0C000C0C0000000000000000047
:100970000000000000000000000000000000000077
:100980000000000000000000000000000000000067
:10099000000000000000000000000000000000C097
:1009A000F0F8FC3E1E06010000007F4141417F003F
:1009B0007F4141417F000080C0E07E5B4F5BFEC015
:1009C0000000C000DCD7DEDEDED7DC00C0000000A7
:1009D0000000000000000000000000000000000017
:1009E000000000000000494949FFFFFFFFE0DFBFB2
:1009F000BF00BFBFDFE0FFFFFFFF49494900000024
:100A000000001F3F6060E0BF1F007F7F071E381E91
:100A1000077F7F007F7F0E1F3B716000000000009A
:100A20007F7F0C0C0C007E7E007F7E0303007F7EA8
:100A300003037E7E03037F7E000F3E703C063C7006
:100A40003E0F00327B49493F7E007F7E0303001E3C
:100A50003F69696F260000000000000000000003ED
:100A60000F1F3F3C7870600000007F4141417F00D4
:100A70007F4141417F00307B7F7830202030787F7C
:100A80003B0003000F7F0F0F0F7F0F0003000000DC
:100A90000000000000000000000000000000000056
:100AA000000000000000010101070F0F7F0F7F0F02
:100AB0000F7E0F0F7F0F7F0F0F0701010100000056
:100AC0000000000000000001010000000000000024
:100AD0000000000000000000000000000000000016
:100AE0000000000000000000000000000000000006
:100AF00000000000000000000000000000000000F6
:100B000000000000000000000000000000000000E5
:100B100000000000000000000000000000000000D5
:100B200000000000000000000000000000000000C5
:100B300000000000000000000000000000000000B5
:100B400000000000000000000000000000000000A5
:100B50000000000000000000000000000000000095
:100B60002223252628292A2C2D2F303233353638BA
:100B70003A3B3D3E4042434547494A4C4E50515313
:100B80005557595A5C5E6062646668696B6D6F7137
:100B9000737577797B7D7F81838587898A8C8E9039
:100BA000929496989A9C9E9FA1A3A5A7A8AAACAE42
:100BB000AFB1B3B4B6B8B9BBBCBEBFC1C2C3C5C682
:100BC000C7C9CACBCCCDCED0D1D2D2D3D4D5D6D72B
:100BD000D7D8D9D9DADADBDBDBDCDCDCDCDCDDDD69
:100BE000DDDDDCDCDCDCDCDBDBDBDADAD9D9D8D759
:100BF000D7D6D5D4D3D2D2D1D0CECDCCCBCAC9C7FB
:100C0000C6C5C3C2C1BFBEBCBBB9B8B6B4B3B1AF31
:100C1000AEACAAA8A7A5A3A19F9E9C9A98969492D1
:100C2000908E8C8A89878583817F7D7B79777573A8
:100C3000716F6D6B6968666462605E5C5A59575586
:100C40005351504E4C4A4947454342403E3D3B3A42
:100C50003836353332302F2D2C2A292826252322C9
:100C6000FFAA7F55400001010101010101010102BC
:100C7000020202020202020203030303030303034C
:100C80000404040404040405050505050606060617
:100C900006070707070708080808090909090A0AD3
:100CA0000A0B0B0B0C0C0C0D0D0D0E0E0E0F0F0F77
:100CB0001010111111121213131414151516161702
:100CC00017181819191A1A1B1B1C1D1D1E1E1F2070
:100CD00020212222232424252626272829292A2BBD
:100CE0002C2D2D2E2F3031323233343536373839E2
:100CF0003A3B3C3D3E3F40414243444546474849DC
:100D00004A4C4D4E4F50515354555658595A5B5DAD
:100D10005E5F616264656668696B6C6D6F7072734B
:100D20007577787A7B7D7E8082838587888A8C8EB2
:100D30008F91939596989A9C9EA0A2A3A5A7A9ABE4
:100D4000ADAFB1B3B5B7BABCBEC0C2C4C6C9CBCDD6
:100D5000CFD1D4D6D8DBDDDFE2E4E7E9EBEEF0F388
:100D6000F5F8FAFDFF00DA02815AD9F1DB20A4A6DA
:100D70002EAF00A0C0D30000A1C8D30000AED58024
:100D8000A81F408D142000643214783C1E1E140AE3
:100D9000050000000000000000000000000000004E
:100DA0000000000000000000000000000000000043
:100DB00000000000007E0F00D4FFFFFFC70000000E
:100DC0007800000000000000002A2B28000000002E
:100DD00000000000000000000000000029000000EA
:100DE000002C1E3420212224342627252E362D3790
:100DF00038271E1F202122232425263333362E3761
:100E0000381F0405060708090A0B0C0D0E0F1011F8
:100E100012131415161718191A1B1C1D2F31302305
:100E20002D350405060708090A0B0C0D0E0F1011CD
:100E300012131415161718191A1B1C1D2F313035D3
:100E40004C0011241FBECFEFDAE0DEBFCDBF11E0B2
:100E5000A0E0B1E0E0EAFEE602C005900D92AE3EF1
:100E6000B107D9F725E0AEEEB1E001C01D92A73F72
:100E7000B207E1F70E94C62A0C94D3360C94000006
:100E8000982F82958F70882311F0982F84E0292F56
:100E900026952695222311F08E5F922F969591111B
:100EA0008F5F08958093B00508958093B1050895EC
:100EB00021E030E001C0220F8A95EAF78091B10568
:100EC000822B0E945507089521E030E0A90102C05D
:100ED000440F551F8A95E2F7CA0180959091B1059C
:100EE00089230E94550708959B01677091E001C016
:100EF000990F6A95EAF763E0369527956A95E1F7C9
:100F0000B901660F771F260F371FFA01E20FF31F93
:100F100040E050E0682F70E08191DF0111979B0164
:100F2000042E02C0369527950A94E2F72170219588
:100F30002827292328272C934F5F5F4F43305105E3
:100F400059F708959C01A82FA77083E0369527953F
:100F50008A95E1F7C901880F991F820F931FFB0142
:100F6000E80FF91F40E050E080E0219130E00A2EC8
:100F700002C0369527950A94E2F721703327042E94
:100F800001C0220F0A94EAF7822B4F5F5F4F433074
:100F9000510559F70895282F862F9C3070F427307B
:100FA00058F4622F70E027E0929F600D711D1124AC
:100FB00046E755E00E94740708959C5F9230E0F781
:100FC000622F70E043E755E0F5CF292F9C3068F49D
:100FD000873090F490E066E775E037E0239F800D5E
:100FE000911D11240E94A20708952C5F223020F445
:100FF00063E775E090E0F6CF80E008959091B10549
:1010000021E030E0F90101C0EE0F8A95EAF7D9013D
:1010100002C0AA0FBB1F6A95E2F7EA2B01C0220F9C
:101020004A95EAF7892F8E23E81305C0892F822B72
:101030000E94550708952095822F8923F9CF80912A
:10104000B7059091B605981301C008958F5F87701A
:10105000FACF9091B205809589238093B205282F0D
:10106000277021110DC0891759F09091B40592FF96
:1010700007C08695869586950E9464071092B205F2
:1010800008958091AD059091B505892B5091AE05DD
:101090005523C1F0909162019923A9F09091B30575
:1010A00097FF11C09DE12AEF31E040E0F901608136
:1010B0002F5F3F4F61114F5F9150C0F74111109268
:1010C000AE05852B089595E022EF31E0EECF982F05
:1010D00090958091AD0589238093AD050895803E5C
:1010E0009105D1F1C8F48133910509F47FC048F42A
:1010F0008932910509F46FC08A32910509F47DC0E7
:10110000089589339105E1F082389105C9F085335E
:10111000910509F45BC00895843E9105D1F148F42E
:10112000823E910531F1833E910541F181EE90E0DF
:101130000895863E9105C1F1873E9105E1F108953C
:101140002091B3052370211165C02091B40523FFC0
:1011500014C089E290E008952091B30520FD43C0BA
:101160003091B40530FF09C024FF4EC080E090E00C
:1011700008952091B30522FDF7CF08952091B3057E
:1011800022FD45C03091B40530FD44C024FFF5CFA9
:10119000EDCF2091B40521FFF0CF8091B30584FD00
:1011A000E5CF87EE90E008952091B30523FFE5CFCA
:1011B00024FDDCCFF6CF2091B30523FD2EC0309166
:1011C000B40531FFE3CF84EE90E008952091B3059C
:1011D00025FFD3CFBECF2091B30525FD21C020919F
:1011E000B40523FFCACF89E390E008952091B305A9
:1011F00026FFC3CF8AE290E008952091B30526FF31
:10120000BCCF81E390E0089583EE90E0089582EEF4
:1012100090E0089580EE90E0089586EE90E00895C5
:1012200085E390E0AACF9091B30592FF10C041E012
:10123000282F2471243009F040E031E0282F287154
:10124000283009F030E0431711F02CE0822793FF9B
:1012500010C041E0282F2471243109F040E031E032
:10126000282F2871283109F030E0431711F02CE0C5
:1012700082273091B40530FF10C051E0282F217132
:10128000213009F050E041E0282F2871283009F082
:1012900040E0541711F029E0822731FF10C041E0EF
:1012A000282F2171213109F040E031E0282F2871E9
:1012B000283109F030E0431711F029E0822794FD2E
:1012C000877E08951F93CF93DF930E946F08EC01F0
:1012D000811522E5920708F053C0811540E5940777
:1012E00008F0DDC0803E9105F8F48D3C910508F0D2
:1012F000AEC0883A910580F4853A910508F099C00E
:101300008130910521F00497813A910550F4CE0186
:10131000DF91CF911F910895885A91094B9708F456
:101320008BC0C0E0D0E0F3CF811550E49507F8F40E
:10133000C11580E2D80708F0CBC0C83ED10538F30C
:10134000CE019A9581159F4160F78D2F0E94130958
:10135000182FCE0199270E946F08212F30E0322FDD
:101360002227E901CC27DF71C82BD92BD0CF9927B1
:101370000E946F08CC27DF70C82BD92BD06AC7CF4B
:10138000803842E59407C8F5803652E5950708F0A5
:1013900067C0C03482E5D807B0F08C2F869586955B
:1013A000877020E2829FC0011124C37021E030E0E9
:1013B000A90102C0440F551FCA95E2F7EA01C82BE4
:1013C000D92BDC68A4CFC03252E5D50708F041C064
:1013D0008C2F8695869520E2829FC0011124C370D0
:1013E00021E030E0A90102C0440F551FCA95E2F781
:1013F000EA01C82BD92BDD688ACF803C52E59507DE
:1014000060F48F71C03AD24508F03FC090E0982F49
:101410008827EC01C46FD06A7ACF805C92458097B0
:1014200008F07FCFDC2FCC27CC27DF71C06FD06ACC
:101430006ECFA497D0646BCFC85AD0E0CC0FDD1F1D
:10144000C954DE4F0990D881C02DD46460CFD065D7
:101450005ECFCF71D0E0DC2FCC27C16FD06A57CFE1
:1014600086958695877020E2829FC0011124C37003
:1014700021E030E0A90102C0440F551FCA95E2F7F0
:10148000EA01C82BD92BDA6842CF0E941309C82F72
:10149000D0E0DC2FCC27CC27DF71D06238CF8F7122
:1014A0000E94130965E0D695C7956A95E1F7CF705C
:1014B000D0E0DC2FCC27282F30E084FF05C054E09B
:1014C000220F331F5A95E1F7C22BD32BD0691FCFC0
:1014D0008D2F8F710E941309182FCE0199270E941A
:1014E0006F08212F30E0322F222722273F71282B2F
:1014F000392BE901D2CF80E00895F894E82FE295E6
:10150000EF70F0E041A18F7021E030E0B90102C03E
:10151000660F771F8A95E2F7CB01962F909594235B
:1015200091A392A1892B82A3789408950895A0E0B5
:10153000B0E0EDE9FAE00C94BD35E901E42FF0E00C
:10154000EB59F34F61110BC0E4919E2F8E2F8983CD
:10155000E8839A83CDB7DEB7EAE00C94D935282F1B
:1015600030E0062F10E0F491EF2F86E0829F6001BB
:10157000839FD00C1124EE24EA94F12CC601B7010C
:101580000E94A135220F331F45E5469FC001479FAA
:10159000900D1124281B390B822F880F280FC701AB
:1015A000801B910BF89FA001F99F500D1124952FDE
:1015B000209F5001219FB00C1124AB2CBB24D701DC
:1015C000AA19BB095D01FA9DD001FB9DB00D112444
:1015D0008B2F5701A21AB1089501209F5001219F1E
:1015E000B00C309FB00C1124AB2CBB24EA18FB08C4
:1015F000FE9D9001FF9D300D112463307105C9F0EF
:101600001CEFC11613E0D10650F46130710509F4E6
:101610009ECF6230710589F08E2FE32F98CF643012
:10162000710571F066307105B9F3E52F9B2F8F2F8F
:101630008ECFEB2F852F9F2F8ACF852F932F87CF8C
:10164000832FE52FF8CF8091A505843060F4837057
:1016500084608093A5058091A805853618F084E6FE
:101660008093A80508958436B0F383708066F1CF27
:10167000E2EAF5E011828281846082830895FA01B2
:10168000882311F009950895FB01FCCFFC01680F38
:10169000791F8FEF91E3E617F70709F40895219179
:1016A000822728E030E087FF08C0880F8927215073
:1016B000310921153105B9F7EECF880FF8CF282F62
:1016C00035EB2303C001112497FF04C08058910912
:1016D000892F089580589F4FFBCF8091990580FDF9
:1016E00014C081FD14C082FD16C080919805882326
:1016F00081F08E3180F420E5829FC00111246EE1DB
:1017000070E00E94F835862F089584E1089588E2FC
:10171000089588E0089580E508958091990580FDF9
:1017200017C081FD17C082FD19C0809197058823DD
:1017300099F0883298F428E0829FC001112468E271
:1017400070E00E94F8356115710551F0862F0895FB
:1017500062E0FCCF64E0FACF61E0F8CF68E0F6CF5A
:1017600081E0089580914505882359F0E09169054D
:10177000F0916A05309729F00190F081E02D0995EC
:10178000089580E008950E94B20B0895A3E0B0E0B0
:10179000ECECFBE00C94C5359C0180913C029091EF
:1017A0003D0282179307A1F030933D0220933C0243
:1017B000E0916905F0916A05309751F083E08983E3
:1017C0003B832A830084F185E02DCE0101960995A3
:1017D0002396E2E00C94E135A3E0B0E0E2EFFBE019
:1017E0000C94C5359C0180913A0290913B0282177E
:1017F0009307A1F030933B0220933A02E0916905F0
:10180000F0916A05309751F084E089833B832A8305
:101810000084F185E02DCE01019609952396E2E042
:101820000C94E135909162019923C1F09091B30538
:1018300097FF14C0E82FE695E695E695803FF8F40B
:10184000F0E0E850FE4F877021E030E001C0220F49
:101850008A95EAF78281822B82830895A2EFB1E014
:10186000EFEF90E02D91821751F0EF3F19F4211125
:1018700001C0E92F9F5F9630A9F7EF3F09F4089563
:101880000E2E000CFF0BE051FE4FE6CF909162014F
:101890009923E1F09091B30597FF18C0E82FE695E2
:1018A000E695E695803FF0F4F0E0E850FE4F877053
:1018B00021E030E0A90102C0440F551F8A95E2F7EC
:1018C000CA0180959281892382830895E2EFF1E035
:1018D0009191891303C0DF0111971C9251E0E83FF9
:1018E000F507B1F70895A4E0B0E0E9E7FCE00C9457
:1018F000C5358FB7F89420911E0530911F05409192
:1019000020055091210529833A834B835C838FBF47
:1019100069817A818B819C812496E2E00C94E13587
:10192000A4E0B0E0E6E9FCE00C94C5358091450503
:10193000882371F00E94730C69837A838B839C8364
:1019400069817A818B819C812496E2E00C94E13557
:101950000E94730C69837A838B839C8380914105F9
:1019600090914205A0914305B091440529813A81A7
:101970004B815C81280F391F4A1F5B1F29833A83E3
:101980004B835C83DDCF0E94900C089587E797E737
:10199000909301088093000888E19AE00FB6F894CC
:1019A000A895809360000FBE90936000FFCF809158
:1019B00039020895FC019B0180912F029091300221
:1019C0008617970740F0672B29F48091E8008E77FF
:1019D0008093E800C90140E0009741F4411106C03E
:1019E0008091E80082FF2FC080E008952091FA04E2
:1019F0002223A9F12530A9F12091E80023FD2DC073
:101A00002091E80022FDECCF2091E80020FFE4CFF8
:101A10003091F3002091F200009719F02830310541
:101A200058F041E02830310509F040E02091E8000D
:101A30002E772093E800D0CF41914093F100019799
:101A40002F5F3F4FE9CF8091FA04882341F0853022
:101A500041F08091E80083FFC3CF81E0089582E0E8
:101A6000089583E008958091290287FF13C0809133
:101A7000E80082FF06C08091E8008B778093E80041
:101A800004C08091FA048111F2CF08958091FA0484
:101A90008823D9F38091E80080FFF8CF8091E80097
:101AA0008E77ECCF2091E4003091E50095E6A90116
:101AB0008091EC008170882331F08091E80080FFF4
:101AC00006C080E008952091E80022FD1BC08091AF
:101AD000FA04882391F0853091F08091EB0085FD28
:101AE00010C02091E4003091E5004217530701F344
:101AF00091509111DCCF84E0089582E0089583E055
:101B0000089581E00895E8EDF0E080818E7F808384
:101B10001092E2001092DA001092E100A0EEB0E024
:101B20008C9181608C9380818F77808319BCA7ED25
:101B3000B0E08C918E7F8C9380818F7E8083109219
:101B400028020895982FE42FE2709093E9008913FA
:101B500008C0762F242F50E0E11111C091E0980FBA
:101B6000F4CF7091EC002091ED005091F00021FD38
:101B700006C09F5F973049F78093E9000895309140
:101B8000EB003E7F3093EB003091ED003D7F3093D2
:101B9000ED003091EB0031603093EB007093EC007E
:101BA0002093ED005093F0002091EE0027FDE1CF4F
:101BB0000895A0E0B0E0EFEDFDE00C94BF35C8ED76
:101BC000D0E088818F7E8883E7EDF0E080818160BE
:101BD000808384E082BF81E08093280288818E7FA9
:101BE000888302EE10E0F80110821092DA0081EE94
:101BF000C82ED12CF601108288818F778883888146
:101C00008068888388818F7D888319BC1092FA044C
:101C1000109227021092CC041092260290EEE92E28
:101C2000F12CF70180818B7F80838881816088839C
:101C300042E060E080E00E94A20DF60180818E7F8C
:101C40008083F801808181608083808188608083C7
:101C5000F70180818E7F8083888180618883CDB702
:101C6000DEB7E8E00C94DB35E091B7059091B6055E
:101C700027E0E91302C080E00895AE2FB0E02E9F68
:101C8000F0011124E854FA4F3181361306C0308137
:101C9000381303C03581341304C0FD013196E77059
:101CA000E8CF81E00895409113018091A50580FF60
:101CB00024C02091120130E0C901880F991F820FC2
:101CC000931F8A599D4F539A6BB1677F7BB17860A0
:101CD000EFB7F89450E09A01220F331F240F351FFD
:101CE000280F391F28173907E9F4EFBF8FE594E073
:101CF0000197F1F700C000000895809114019091C0
:101D00001501282F30E0F901EE0FFF1FE20FF31F3E
:101D1000EA59FD4F891768F61182108212828F5F8F
:101D20003396F8CFDC014D91CD0158E07BB900002E
:101D300000C047FF6BB9440F000000C000C000C0E6
:101D40006BB900C05A9591F7CDCFEF92FF921F93D8
:101D5000CF93DF93EC0110E0EE24EA94F12C609134
:101D60001601161770F00E94530E9A818C8190FF15
:101D700028C08F5F8C83DF91CF911F91FF90EF90F0
:101D8000089580911401810F9927991F9C01220FBA
:101D9000331F280F391F2A593D4F4091A80545365A
:101DA00008F044E670E0C7010E94F835962F8C8158
:101DB0006091A705199F800D11240E94970A1F5F4B
:101DC000CECF8150D7CFE5EAF5E080818E7F80834A
:101DD0000E94380BE2EAF5E08281816082830E94F2
:101DE000530E08959091A50590FF11C09091140194
:101DF00050911501292F30E0F901EE0FFF1FE20F7E
:101E0000F31FEA59FD4F951718F00E94530E0895DD
:101E10008183608342839F5F3396F5CFA3E0B0E078
:101E2000E4E1FFE00C94C5359091A50590FF0DC04D
:101E3000453608F044E69E012F5F3F4F0E94970A07
:101E40004B8169818A810E94F20E2396E2E00C9414
:101E5000E135CF93DF93EC01EC81F0E0E05AF44FF1
:101E60004491E5EAF5E0628181810E940E0F8C8148
:101E70008F5F8C83DF91CF910895CF93DF93EC0137
:101E8000E5EAF5E0438162818C810E940E0F8C812E
:101E90008F5F8C83DF91CF9108950F931F93CF9322
:101EA000DF93EB018A019091FA04943079F58093E5
:101EB000E9008FEF9091E80095FD07C095ED9A95A8
:101EC000F1F7000081508111F5CF8091E80085FF86
:101ED0001DC00E94520D811114C08091E80085FD43
:101EE00006C08091E8008E778093E800F2CF888169
:101EF0008093F100015011090115110511F021968F
:101F0000ECCF8091E8008E778093E800DF91CF914D
:101F10001F910F910895CF93DF93D82FC92F48E0D9
:101F200050E0682F792F81E00E944D0F88E0ED2F5F
:101F3000FC2FA1E3B2E001900D928A95E1F7DF91C9
:101F4000CF910895BC0140E250E084E00E944D0F23
:101F50000895BC0146E050E084E00E944D0F0895D2
:101F6000BC0143E050E084E00E944D0F0895A0E0E2
:101F7000B0E0EDEBFFE00C94BD35F82EE92EB62E67
:101F8000A72E8A0180912402CC24C394D12C8A30BC
:101F900018F48AE0C82ED12CC1E0D0E06B2D7A2D48
:101FA0008F2D9E2DF8010995811116C02196CC1612
:101FB000DD0694F0CC9FC001CD9F900D900D1124B3
:101FC00020E030E045E34A95F1F700002F5F3F4FF6
:101FD00028173907B9F7E2CFCDB7DEB7EAE00C949E
:101FE000D9359091B40592FB222720F9281779F072
:101FF00080FB92F99093B4056091B3057091B4059C
:1020000084E090E00E94BD3682E00E942908089595
:102010001F93CF93DF93962F122F632F8430D8F422
:102020009C30C8F44730B8F4C42FD0E0CC0FDD1F8B
:102030002EE0929FC00DD11D112498EA899FC00DFA
:10204000D11D1124CE0189960E949F36612FCE01A9
:102050008A960E949F36DF91CF911F9108951F931A
:10206000CF93DF93962F122F632F8430D0F49230CA
:10207000C0F428E0829FE001112424E0929FC00177
:102080001124C80FD91FC753DD4FCE01442369F077
:102090000E949F3681E090E0612F8C0F9D1F0E946F
:1020A0009F36DF91CF911F91089502960E949F362F
:1020B00083E090E0F1CF8F929F92BF92CF92DF9218
:1020C000EF92FF920F931F93CF93DF9303E415E0FA
:1020D000E12CF12CC0E04701D0E015C0F6012591BC
:1020E00034914B2D6D2F8C2F0E94081022E0C20ED0
:1020F000D11CB39437E0B312F1CF87E0880E911C66
:10210000DF5FDC3049F0C401880F991F9C012D5519
:102110003D4F6901B12CE2CFF8012591349141E0A6
:1021200060E08C2F0E942F10F80132962591349197
:1021300040E060E08C2F0E942F10F801349625912A
:10214000349141E061E08C2F0E942F10F801369607
:102150002591349140E061E08C2F0E942F10085FA0
:102160001F4FCF5F34E5E30EF11CC43009F0B3CF4D
:10217000DF91CF911F910F91FF90EF90DF90CF9063
:10218000BF909F908F900895CF93DF93C9EED2E0D8
:1021900060E0CE010E949F362196C11584E0D807E9
:1021A000B9F7DF91CF910895CF93882391F064E23E
:1021B00085E290E00E949F36C4E268E086E290E00B
:1021C0000E949F366C2F87E290E00E949F36CF914D
:1021D00008956FEF85E290E00E949F36CFEF6FEF9A
:1021E000EDCF80E00E94D41060E088E290E00E9491
:1021F0009F360E945B100E94C41081E00E94D410A0
:1022000008950F931F93CF93DF93843030F56C3094
:1022100020F5473010F5C42FD0E0CC0FDD1F2EE0A5
:10222000629FC00DD11D112438EA839FC00DD11DBE
:102230001124CE0189960E947B36082F10E0102FC2
:102240000027CE018A960E947B369801282BC9016F
:10225000DF91CF911F910F91089580E090E0F8CF2A
:102260000F931F93CF93DF93843078F5623068F536
:1022700028E0829F8001112434E0639FB001112483
:10228000060F171F07531D4FC8014423A1F00E94DA
:102290007B36C82FD0E0DC2FCC2781E090E0800F88
:1022A000911F0E947B369E01282BC901DF91CF919F
:1022B0001F910F91089502960E947B36C82FD0E09F
:1022C000DC2FCC2783E090E0EACF80E090E0EECFF7
:1022D0007C3048F4673070F4843060F4462F672F08
:1022E0000E94011108957D3F41F4623018F441E0ED
:1022F000843050F080E090E008957C3FD9F7623060
:10230000C8F78430B8F740E00E9430110895A0E08B
:10231000B0E0EDE8F1E10C94C0357C010091B1052D
:102320008091B005082BC3E0D0E010E0C8010C2E6E
:1023300002C0959587950A94E2F780FD09C0219720
:10234000A8F7D12C8D2DCDB7DEB7E7E00C94DC35A6
:10235000DC2EB7018C2F0E9468110E946209019740
:1023600071F3F0CF0F931F93CF93FC018581008110
:102370001181882391F0662381F0C8010E948711A2
:10238000C82F682FC8010E94CB07B8018C2F0E946C
:102390006811CF911F910F910895C8010E94E50720
:1023A000C82FF3CFCF93DF93D82FC92F0E94871167
:1023B0006D2F7C2F0E9468110E946209DF91CF91DE
:1023C0000895FC0184818823A1F0808191810E947D
:1023D000D211282F92959F70963091F060F4925F01
:1023E0009F70923030F481E0203F79F030F4283E45
:1023F00030F080E004C09A5FF3CF243FD1F7089516
:1024000081E0283E18F0213FF9CF0895089585E234
:1024100090E00E947B36843289F486E290E00E944C
:102420007B36883059F487E290E00E947B3691E059
:10243000843209F090E0892F8170089580E0FCCF0C
:1024400080916201882359F18091B30587FF27C0ED
:102450000E9441088093F90140E250E069E475E090
:1024600088EF91E00E946536892BC1F080E2E8EFA9
:10247000F1E0A9E4B5E001900D928A95E1F7E091D1
:102480006905F0916A05309749F086E08093F8017C
:102490000480F581E02D88EF91E0099508950E9470
:1024A00041088093F00148E050E06BE675E080EF72
:1024B00091E00E946536892B89F388E0E0EFF1E036
:1024C000ABE6B5E001900D928A95E1F7E0916905E0
:1024D000F0916A05309711F30280F381E02D80EFCF
:1024E00091E0DBCF882339F09091AD05892B809363
:1024F000AD050E9420120895882321F00E946708EC
:102500000E9420120895A0E0B0E0E9E8F2E10C9406
:10251000BF358901D42FC52F6B017C010E94230B8D
:10252000A8016D2F7C2F88E090E00E94B1369801C1
:102530004D2F5C2FB601C70100E20E943436622F96
:1025400084E290E00E949F36CDB7DEB7E8E00C94BD
:10255000DB35E5EAF5E089E0808311828FEF828345
:1025600084E683831482A2EAB5E012968C911297D6
:10257000836012968C93758129E030E04FEF54E62A
:1025800060E0868197810E94831208958091A90559
:10259000833018F48F5F8093A9052091A5053091B1
:1025A000A6054091A7055091A8056091A9057091D5
:1025B000AA058091AB059091AC050E948312089505
:1025C0008091A905882319F081508093A905209155
:1025D000A5053091A6054091A7055091A8056091E9
:1025E000A9057091AA058091AB059091AC050E9458
:1025F00083120895A3E0B0E0E0E0F3E10C94BD3570
:10260000E82ED62EF42EB22E9091A50590FF46C04E
:102610003091A605381308C08091A705861304C021
:102620008091A805841729F08091A4058260809389
:10263000A405E92FE695E695AE2FB0E0A158BE4F70
:102640008C918093A2059C7F943061F54F2D84E698
:102650008F1508F444E69E012F5F3F4F6D2D8E2DA0
:102660000E94970A4B8169818A810E94F20E3E2D59
:102670003093A605D092A705F092A805BB2071F073
:102680002091A5056091A9057091AA054D2D5F2D9A
:102690008091AB059091AC050E9483122396EAE0ED
:1026A0000C94D935823019F4F090A805E0CF86302B
:1026B000F9F28930E9F28F30D1F6EF509E2F917008
:1026C000A92EE695F0E0E05AF34FE491C12C0E2FCD
:1026D00010E060911601C61618F00E94530EC7CF85
:1026E0002C2D30E0C09EC001C19E900D112470E0E1
:1026F0000E94A1358E2DA11017C0860F9091140154
:10270000A901490F511D9A01220F331F240F351FB4
:102710002A593D4F4F2D94E69F1508F444E66D2D40
:102720000E94970AC394D5CF861BE8CFE5EAF5E06F
:10273000818121E043816281865F0E94FA120895BF
:10274000E5EAF5E0818121E0438162818A500E94BF
:10275000FA120895E5EAF5E0628121E1620F08F4DA
:102760006FEF21E0438181810E94FA120895E5EA2A
:10277000F5E0628121E1621B08F460E021E0438121
:1027800081810E94FA120895E5EAF5E0438121E192
:10279000420F08F44FEF21E0628181810E94FA121A
:1027A0000895E5EAF5E0438121E1421B08F440E0A9
:1027B00021E0628181810E94FA120895A8E0B0E0D0
:1027C000E4EEF3E10C94C53566EE7EEF80E090E038
:1027D0000E94BD3660E082E090E00E949F3681E07A
:1027E0008093B00561E083E090E00E949F3660E056
:1027F00074E184E090E00E94BD3660E086E090E005
:102800000E949F366FEF87E090E00E949F3640E085
:1028100050E0BA0188E090E00E94B13660E084E2C6
:1028200090E00E949F3660E087E190E00E949F3632
:1028300060E08CE090E00E949F3660E08DE090E0E8
:102840000E949F3619821A821B821C821D821E8260
:102850001F82188648E050E068E170E0CE010196E2
:102860000E948F3640E050E0BA0180E290E00E9482
:10287000B13680E00E94D4100E94F11040E050E098
:10288000BA018FE090E00E94B13640E050E0BA011A
:1028900083E190E00E94B1362896E2E00C94E135A5
:1028A000A0E0B0E0E6E5F4E10C94BF35FA0169017F
:1028B0007801C82F880FDD0B3097B1F0DE0193E06F
:1028C000AA0FBB1F9A95E1F7AE5DBE4F11968D9191
:1028D0009C9112978E5D9A4F4C9150E0E417F5074A
:1028E00008F4AF010E947236CE010E942C35182FD9
:1028F0008823D1F0E114F104B9F083E0CC0FDD1F9F
:102900008A95E1F7FE01EE5DFE4F438150E0E4164B
:10291000F50608F4A701CE5DDE4F6C817D816E5D0A
:102920007A4FC6010E947236812FCDB7DEB7E8E03C
:102930000C94DB35A1E0B0E0E0EAF4E10C94BA35A8
:10294000762E6A014901580101E010E09E012F5FD7
:102950003F4F40E050E060E070E00E945014182FBC
:10296000882309F442C0D6014D915D916D917C910F
:102970002FB7F89480911E0590911F05A091200516
:10298000B09121052FBF841B950BA60BB70B843686
:102990009105A105B10538F4B701C5010E94460BA8
:1029A0009981891711F18701940140E050E060E0BE
:1029B00070E0872D0E945014182FB701C5010E94A6
:1029C000460B9981981731F010E0812F2196EDE0A8
:1029D0000C94D63511701123C1F30E94730CF601CB
:1029E0006083718382839383F0CFA701B501C40113
:1029F0000E947236EACFA6E0B0E0E1E0F5E10C9487
:102A0000BF356B0186E0E82EF12C03E215E09E0154
:102A10002F5F3F4F4AE155E061E080E00E949A1449
:102A2000882349F096E0FE013196A4E1B5E00190DB
:102A30000D929A95E1F796E0E4E1F5E0D601019078
:102A40000D929A95E1F72696E8E00C94DB35A0E02C
:102A5000B0E0EDE2F5E10C94BF35EB01942FB90144
:102A6000A801C880D980EA80FB80EFB7F894009174
:102A70001E0510911F052091200530912105EFBF03
:102A80000C191D092E093F090436110521053105D0
:102A900010F4992371F000E010E020E030E00E9493
:102AA0005014882339F00E94730C688379838A83D9
:102AB0009B8381E0CDB7DEB7E8E00C94DB350F9364
:102AC0001F93CF93DF93D82FC92F46E050E069E2E0
:102AD00075E00E94653641E0892B09F440E006E08C
:102AE00010E02D2F3C2F60E175E082E00E94271559
:102AF000DF91CF911F910F910895ABE0B0E0E3E833
:102B0000F5E10C94C33528E0E5EAF5E0CE01019645
:102B1000DC0101900D922A95E1F73091A2052091F8
:102B2000A3055091A40539872A875B8741E09C0162
:102B3000511101C040E00BE010E060E075E086E07C
:102B40000E94271581111092A4052B96E4E00C94A5
:102B5000DF35A1E0B0E0EFEAF5E10C94C3358091F8
:102B6000FB0489832091400530E090E041E0281784
:102B7000390709F440E001E010E09E012F5F3F4F6C
:102B80006CEF74E087E00E9427152196E4E00C9436
:102B9000DF35A8E0B0E0EFECF5E10C94C3354091EF
:102BA00004055091050560910605709107052FB742
:102BB000F89480911E0590911F05A0912005B09179
:102BC00021052FBF841B950BA60BB70B11E0843694
:102BD0009105A105B10520F10E94900CDC01CB010B
:102BE0000296A11DB11D89839A83AB83BC8300E04B
:102BF00010E020E030E044E050E0BE016F5F7F4F26
:102C000085E00E945014182F882351F00E94730C05
:102C1000609304057093050580930605909307055E
:102C2000812F2896E4E00C94DF35A0E0B0E0EBE1E2
:102C3000F6E10C94BF357C016B0164E670E088E737
:102C40000E94ED32EC0197FD12C000E010E0F701A8
:102C5000E00FF11F849164E670E00E945C33EC01A8
:102C60000F5F1F4FC016D10611F097FFF0CF0E94E3
:102C7000DE3381E0CD2B09F080E0CDB7DEB7E8E0B0
:102C80000C94DB358091C104882369F08091FB04AA
:102C9000882349F062E070E08AEC91E00E9415160A
:102CA00081111092FB040895A4E0B0E0EAE5F6E19A
:102CB0000C94C5358091C1048823F9F00E94730CEF
:102CC000DC01CB018058974CAE4FBF4F8093C204BC
:102CD0009093C304A093C404B093C5048091FB04F3
:102CE00081110BC062E070E088EC91E00E94151643
:102CF000882319F081E08093FB042496E2E00C9491
:102D0000E1351F93CF93DF93982F162F81E09A30F0
:102D100019F09D3039F480E00E941217DF91CF91B5
:102D20001F910895C091BE02D091BF0286E0FE01BE
:102D3000A0E6B2E001900D928A95E1F7903E90F105
:102D400086E0FE0111928A95E9F7C091BE02D0910A
:102D5000BF02111133C046E050E0BE0180E692E0B0
:102D60000E9465369E01205C3240892B91F52A5FD6
:102D70003F4F4091C604642F70E0C9010E94A13505
:102D8000481B463010F4240F311D211572E037071F
:102D900010F020E030E020543D4F3093BF022093EC
:102DA000BE02BCCFF6E09F9FB0011124605E794F58
:102DB00046E050E0CE010E944F36C7CF9E012A5F09
:102DC0003F4FFE012E173F0731F28081809581939E
:102DD000F9CFC90145E0969587954A95E1F741E01D
:102DE00050E0BA0102C0660F771F8A95E2F7CB0167
:102DF0006091BC027091BD02862B972BB9016B5F6D
:102E00007F4FE5E076956795EA95E1F702C0440FBC
:102E1000551F6A95E2F7842B952B9093BD02809302
:102E2000BC02A5CFCF93382FE091BE02F091BF0234
:102E3000E05CF2402091C604622F70E0CF010E9456
:102E4000A135281B822F332369F066E00E94EC3500
:102E5000C82FC15010F4CF91089560E080E20E9425
:102E60008116F7CF9F01280F311D2115324018F030
:102E700080E0E0E0F0E08E0F9F2F911D80549D4F89
:102E80009093BF028093BE02E6CF1F93CF93DF9350
:102E9000EC01162FFE018491811104C0DF91CF91C6
:102EA0001F910895612F0E9481162196F3CF0E94F1
:102EB000451781E00E94121708951F921FB61F92B6
:102EC00011248F939F93AF93BF938091C904811175
:102ED00013C080911E0590911F05A0912005B0910F
:102EE00021054196A11DB11D80931E0590931F05DC
:102EF000A0932005B0932105BF91AF919F918F9131
:102F00001F901FBE1F9018952FB7F89480911E0533
:102F100090911F05A0912005B09121052FBF089524
:102F200080914505882319F00E94841708950E9416
:102F3000900CCB0108956091A5056695669570E0AB
:102F40004BE050E087E091E00E945836892B19F45D
:102F500081E08093A3050E9490179093DE048093F4
:102F6000DD048091A40584608093A4050895909168
:102F7000A50590FF42C0882309F440C0893108F0BC
:102F80003FC08F73282F220F220F8091A5058370D9
:102F9000282B2093A5058091A40581608093A4052A
:102FA000662381F03091A6054091A7055091A805B0
:102FB0006091A9057091AA058091AB059091AC052F
:102FC0000E9483126091A5056695669570E04BE0BE
:102FD00050E087E091E00E945836892B99F00E94DA
:102FE000380B81E08093E00420E04091A8056091D7
:102FF000A7058091A6050E94FA12089581E0C2CF2C
:1030000088E1C0CF0E949B17ECCF8091A5058695E3
:1030100086958F5F893108F081E061E00E94B717E3
:1030200008959091A505969596958FEF890F91300B
:1030300009F488E161E00E94B7170895E5EAF5E038
:1030400080818160808360E0869586950E94B717B5
:1030500008959091A50590FF09C0969596959817AB
:1030600028F0961718F40E940518089561E00E9450
:10307000B71708950E94841720919C0530919D05F3
:10308000232B222321F08093EB049093EC042091D6
:103090009E0530919F05232B222321F08093E90484
:1030A0009093EA04E0916905F0916A05309749F040
:1030B00082E080939A050680F781E02D8AE995E009
:1030C0000995089520919C0590919F0530919E054A
:1030D000662309F45AC040919D05242B292B232BEC
:1030E000222331F098E09093980591E09093970512
:1030F0008D3C41F40E946D0B819580939D050E944B
:103100003A180895E2E3E80FE231C8F7F0E0EB5235
:10311000F94C0C940C360E946D0BEFCF0E946D0B96
:10312000819580939C05EBCF0E946D0BFACF0E9496
:103130008D0B80939E05E3CF0E948D0B8195F9CF77
:103140000E948D0B819580939F05D9CF0E948D0B96
:10315000FACF815D990B21E030E001C0220F8A9502
:10316000EAF780919B05822B80939B05C8CF8091C5
:103170009905816080939905C2CF809199058260FD
:10318000F9CF809199058460F5CF8D3C59F48091F9
:103190009D0587FF0DC010929D05222359F41092C2
:1031A000980508C08E3C81F480919D0518169CF30B
:1031B000222381F080919E0590919F05892B81119A
:1031C0009ECF109297059BCF8F3C41F427FFF0CF05
:1031D00010929C0580919D058823E0CF803D19F4D5
:1031E0001216B4F3E5CF893D29F413160CF71092AB
:1031F0009E05DECF8A3D19F437FFDACFF8CF8B3D3D
:1032000029F497FFD5CF10929F05D2CF8C3D19F4AA
:103210001916CCF3CDCF9FE2980F983090F4815DD2
:10322000990B41E050E0BA0102C0660F771F8A9502
:10323000E2F7CB01809590919B05892380939B05B4
:10324000B7CF8D3D31F4809199058E7F809399059C
:10325000AFCF8E3D21F4809199058D7FF7CF8F3DC3
:1032600009F0A6CF809199058B7FF0CFCF93C82F1F
:103270008823C9F08238C9F40E94C30B81FD13C0B2
:1032800089E30E94120C0E9420122FEF37EE83E098
:10329000215030408040E1F700C0000089E30E94E7
:1032A000460C0E942012CF9108958338A1F40E9409
:1032B000C30B80FDF8CF83E50E94120C0E94201200
:1032C0009FEF21EE34E0915020403040E1F700C004
:1032D000000083E5E4CF8438A1F40E94C30B82FD93
:1032E000E2CF87E40E94120C0E9420128FEF91EE31
:1032F00024E0815090402040E1F700C0000087E4C6
:10330000CECF8CEF8C0F813A90F5809162018823AB
:1033100001F18091B30587FF1CC0EC2FE695E6957F
:10332000E695F0E0E850FE4F828190E04C2F477028
:1033300021E030E002C0220F331F4A95E2F78223DA
:103340009323892B81F08C2F0E94460C0E9420121F
:103350000AC0E2EFF1E088EF91E02191C21799F302
:103360008E179F07D1F78C2F0E94120C9ACF80E204
:103370008C0F883068F4C77081E090E001C0880F3E
:10338000CA95EAF7C091AD05C82BC093AD0589CFAA
:103390008BE58C0F833038F42C2F2452330BC9016A
:1033A0000E94C60B80CFE8E5EC0FEB3150F4F0E063
:1033B000EE0FFF1FE954FE4F808191810E94EC0BBC
:1033C00072CF83E38C0F833108F06DCF61E08C2FD7
:1033D0000E94621868CF882309F456C0823879F4B5
:1033E0000E94C30B81FF50C089E30E94120C0E940F
:1033F000201289E30E94460C0E942012089583380F
:1034000059F40E94C30B80FF3FC083E50E94120C59
:103410000E94201283E5EECF843859F40E94C30B3A
:1034200082FF32C087E40E94120C0E94201287E4BF
:10343000E1CF9CEF980F913AE8F290E2980F983024
:1034400050F4877091E001C0990F8A95EAF7892FAF
:103450000E946708D1CF9BE5980F933028F480E055
:1034600090E00E94C60B089598E5980F9B3128F4D0
:1034700080E090E00E94EC0B089593E3980F933165
:1034800018F460E00E9462180895CF93C82F893322
:1034900099F489E30E94361980E590E0EFE9FFE0B6
:1034A0003197F1F700C0000001970097B9F78C2F12
:1034B0000E94EB19CF9108950E9436198AE090E09E
:1034C000EDCF1092AD0580916201882339F1809192
:1034D000B30587FF23C0EAEFF1E08EE1DF011D9223
:1034E0008A95E9F780E090E00E94C60B80E090E0CA
:1034F0000E94EC0B1092B5050E94201286E0EAE9CA
:10350000F5E0DF011D928A95E9F710929805109277
:103510009705109299050E943A180895E2EFF1E09C
:1035200086E0DCCF0E94611A2FEF84E39CE02150FB
:1035300080409040E1F700C0000088E19AE00FB6BB
:10354000F894A895809360000FBE90936000FFCF21
:10355000AAE2B0E0EEEAFAE10C94C43589E292E026
:10356000FC0101962091F100208322E08133920733
:10357000B9F780912A02893009F456C0C8F4823024
:1035800009F4B3C0833009F482C0813071F18091B5
:10359000E80083FFE7C08091290290912A029A30C7
:1035A00008F0E0C0E92FF0E0E951F94C0C940C363A
:1035B0008A3009F489C08B3051F780912902813219
:1035C00031F780912D0290912E02892B01F7809185
:1035D000E800877F8093E8000E94330D80912B02E2
:1035E000809362010E94611AD2CF80912902813AB0
:1035F00071F68091E800877F8093E80080912D022A
:1036000090912E02892B61F060E080E090E070E004
:103610000E94DA0C8091E8008B778093E800B7CFA6
:1036200068E081E392E0F3CF80912902813209F0D2
:10363000AECF80912D0290912E028D7F892B09F0C3
:10364000A6CF8091E800877F8093E8008091E80012
:1036500082FF18C09091F3008091F200029731F43C
:103660008091F100813011F0863021F48091F100D9
:10367000809339028091E8008B778093E8000E9464
:10368000330D85CF8091FA048111E0CF80CF8091F6
:103690002902813A09F07BCF80912D0290912E0270
:1036A000892B09F074CF8091E800877F8093E80030
:1036B0008091E80080FFFCCF809162018093F1004F
:1036C0008091E8008E77D9CF80912902813209F06C
:1036D0005ECF8091E800877F8093E8000E94330DE1
:1036E00080912C028093250252CF80912902813A49
:1036F00009F04DCF8091E800877F8093E8008091AA
:10370000E80080FFFCCF80912502D8CF803889F077
:10371000823841F580912D028F70873018F58093A3
:10372000E9008091EB0085FB882780F91092E90081
:1037300006C0809126029091CC04911182609091F4
:10374000E800977F9093E8008093F1001092F100D9
:103750008091E8008E7723C0811116C080912B02E2
:10376000813011F18091E80083FF0AC08091E80068
:10377000877F8093E8008091EB0080628093EB006C
:10378000AA96E3E00C94E035823061F780912B0239
:10379000882389F01092E9008091E800877F809368
:1037A000E8000E94330DDECF81E0933009F080E025
:1037B0008093CC04EFCF80912D028F702FEF280FD4
:1037C000263080F68093E9002091EB0020FFE2CFC5
:1037D000933031F48091EB0080628093EB00DACF7C
:1037E0009091EB0090619093EB0021E030E0A90113
:1037F00002C0440F551F8A95E2F74093EA001092E9
:10380000EA008091EB008860E8CF8111ABCF109186
:103810002B021F778091E3008078812B8093E30057
:103820008091E800877F8093E8000E94330D8091AB
:10383000E80080FFFCCF8091E30080688093E30084
:1038400083E0111101C082E08093FA048BCF80588D
:10385000823008F087CF40912B0250912C024C3DD2
:1038600083E0580799F583E08A838AE289834FB71A
:10387000F894DE01139620E03EE051E2E32FF0E001
:1038800050935700849120FF03C082958F703F5F53
:103890008F708A30C8F0895C90E08D939D932F5F84
:1038A000243161F74FBF8091E800877F8093E80063
:1038B0006AE270E0CE0101960E94DA0C8091E80085
:1038C0008B778093E8004ECF805DE6CF80912D020C
:1038D00090912E02252F33272330310509F44AC059
:1038E00078F52130310509F479C08BE590E0ECECF6
:1038F000F1E02230310509F035CF2091E800277F33
:103900002093E80020912F02309130028217930714
:1039100008F49C0140E02115310509F064C0411113
:1039200062C08091E80082FDC9CF8091FA048823AB
:1039300029F2853019F28091E80083FFF2CFBECFE3
:103940002132310509F43BC02232310509F00ACF9A
:103950008330910508F006CFFC01EE0FFF1FE559FB
:10396000FE4F0190F081E02D88599E4FDC018C9133
:1039700090E011C0CA019927413089F08230910549
:10398000B1F0892B09F0EECEEFE9F2E0E4918E2F51
:1039900090E0EFE9F2E0009709F4E4CEAECFE5E77E
:1039A000F2E0E4918E2F90E0E5E7F2E0F4CFE9E376
:1039B000F2E0E4918E2F90E0E9E3F2E0ECCF833087
:1039C000910508F0CFCEFC01EE0FFF1FEF58FE4F20
:1039D0000190F081E02D89E090E08FCF82E190E0CE
:1039E000E7E2F2E08ACF8091FA04882309F466CFF7
:1039F000853009F463CF8091E80083FD5FCF80912B
:103A0000E80082FD8ECF8091E80080FF84CF909106
:103A1000F3008091F2002115310519F088309105ED
:103A200050F041E0089709F040E08091E8008E777F
:103A30008093E80070CF44914093F100319621507B
:103A400031090196E8CF803809F08CCE8091E800EA
:103A5000877F8093E800809127028093F10078CEE1
:103A6000811180CE10912B02123008F07BCE809114
:103A7000E800877F8093E800109327020E94330DAF
:103A80001123D1F084E08093FA0442E061EC81E0FC
:103A90000E94A20D42E261EC84E00E94A20D42E28B
:103AA00061EC82E00E94A20D42E260EC83E00E94A1
:103AB000A20D8091FA0456CE8091E30087FDE2CFFB
:103AC00081E0E1CF9C014FB7F89480911E05909161
:103AD0001F05A0912005B09121054FBF821B930BBC
:103AE00008952F923F925F926F927F928F929F9252
:103AF000AF92BF92CF92DF92EF92FF920F931F93FC
:103B0000CF93DF9300D000D000D0CDB7DEB7809147
:103B1000C104882309F4A4C080915E0290915F02E1
:103B20000E94621DC29708F45DC00E9484179093A2
:103B30005F0280935E022091C60480EC92E0909335
:103B4000BF028093BE0280914505882309F4A8C076
:103B500060E08DE196E00E9445178091B0050E94DB
:103B60004007882341F0813031F160E08DE096E03C
:103B70000E94451705C060E087E196E00E94571754
:103B800060E08AE096E00E94451760E084E096E0FD
:103B90000E9457178091B1050E944007823009F4B6
:103BA00077C068F0833009F477C060E08CEE95E070
:103BB0000E94571709C060E081E196E0DFCF60E026
:103BC0008EEF95E00E94451760E089EE95E00E9437
:103BD00045170E94C30B81FB662760F983EE95E0D1
:103BE0000E9457178091BC029091BD02892BA9F0C9
:103BF0008091C104882389F08091C00481110DC097
:103C00000E9454162091BC023091BD0280E061E018
:103C100070E02115310509F0BDC08091FB048823B7
:103C2000F9F00E94730C69837A838B839C83809163
:103C3000C2049091C304A091C404B091C504298129
:103C40003A814B815C81281B390B4A0B5B0BDA01F3
:103C5000C9018F3F9F4FAF4FBF4710F40E944216DC
:103C60000F900F900F900F900F900F90DF91CF91CA
:103C70001F910F91FF90EF90DF90CF90BF90AF908A
:103C80009F908F907F906F905F903F902F900895BE
:103C900060E088EF95E096CF60E082EF95E092CF0C
:103CA00030E0C901880F991F820F931F811522E010
:103CB000920714F080E090E080549D4F9093BF02F3
:103CC0008093BE0243E651E05A83498360E0A981B4
:103CD000BA818D91BA83A9830E948116E981FA8104
:103CE000E756F14099F78091C60437E0839FC00101
:103CF0001124811542E0940714F080E090E0805494
:103D00009D4F9093BF028093BE02AC01405C524035
:103D10008054924020E032E0241B350B81309240E9
:103D200010F420E830E06091BC027091BD02F3E62F
:103D3000EF2EF5E0FF2EDA01A054BD4FCA01420F6D
:103D4000531FCC24C394D12C8417950728F070936B
:103D5000BD026093BC0246CFF70124913D91231729
:103D600099F08D0101501109F80120839C01E5E0D3
:103D700036952795EA95E1F7F60102C0EE0FFF1F91
:103D80002A95E2F76E2B7F2B0196FFEFEF1AFF0AC1
:103D9000DBCF8F5F082F10E01B01082E02C0220C22
:103DA000331C0A94E2F7A10142235323452B89F3E4
:103DB0009091C70490FD44C098013695279536959B
:103DC0002795922F8295880F80763FE1380F809358
:103DD000020120930501309303019093060124E62C
:103DE00030E047E050E060E071E088E70E948C330B
:103DF000892B09F012CFA80125E0440F551F2A9501
:103E0000E1F78091C70480FD23C040545D4F04E674
:103E100010E020E230E060E488E70E94B333892BB1
:103E200009F0FBCE9101209530958091BC029091D4
:103E3000BD02282339233093BD022093BC02EDCE6E
:103E4000880F880F880F37E0380F20E093E0BFCF4E
:103E5000EEE3F2E080E2DF011D928A95E9F7EBE7FD
:103E6000F1E0FE83ED8307E711E08FE7C82E81E0E4
:103E7000D82E97E0592E77247394AD81BE818D9111
:103E8000BE83AD83F80121918F01240F352F311DA1
:103E900020543D4FE82FF0E0E25CFD4F80E090E0E1
:103EA000652C681A872C082E01C0880C0A94EAF742
:103EB0007901A12CD701BD907D01B820662D6A192A
:103EC000677070E0BB2D062E01C0BB0F0A94EAF7A5
:103ED0009B2E7195619571096770772701C0B69423
:103EE0006A95EAF79B286081962A9082A39468E0FD
:103EF000A612E0CF019631968830910589F68D8122
:103F00009E81C816D90609F0B8CF04E610E020E279
:103F100030E04EE352E07FCF0F931F93CF93DF93B8
:103F2000C62FD42F122F8823A9F06093A0050E94DA
:103F300084179093230280932202C77081E001C00E
:103F4000880FCA95EAF70E947212DF91CF911F91F4
:103F50000F9108958091A005681332C080912202CC
:103F6000909123020E94621D8837910548F5CD1378
:103F70000CC0812F0E94451AD77081E001C0880FC4
:103F8000DA95EAF70E947C12E0CFC77001E0802F3B
:103F900001C0880FCA95EAF70E947C1280E28D0F5B
:103FA000883050F48D2F877001C0000F8A95EAF792
:103FB000802F0E947212DDCF812F0E94451AC5CF3B
:103FC000C77081E001C0880FCA95EAF7DBCFA8E08F
:103FD000B0E0EDEEFFE10C94B9356C01DC01149614
:103FE0008C91882309F4E1C061E0C6010E94B211FE
:103FF0008C01F6018581882309F47CC1980137572B
:104000002038310548F10034FEE71F0708F081C170
:10401000F801E851FC47E730F10508F476C1109249
:10402000A005C8019057839708F4BAC106312CE760
:10403000120709F006C38091AD058A7A91E08111DB
:1040400001C090E09093A105811179C289E20E949C
:10405000120C0E94201299C0003108F096C08FEF18
:1040600093E00E947B36811190C039EEE32E32E05E
:10407000F32E01115AC01A821982FE01339686E08E
:10408000DF011D928A95E9F72AE0622E5701BFEF02
:10409000AB1ABB0AC7010E947B3689831A82882328
:1040A00009F473C0813009F084C087010E5F1F4F8F
:1040B000C5010E947B368A83882309F466C09FEF7E
:1040C000980F933008F03FC0E3E0EE0EF11CC801FA
:1040D0000E947B368B83882309F457C01C828E0193
:1040E0000F5F1F4FD8018C91882381F2813009F036
:1040F000A2C011968C911197813009F05CC05801D3
:10410000B2E0AB0EB11CF80182810E94451A850114
:104110000F5F1F4F8AE0AFE9BFE01197F1F700C0D2
:10412000000081508111F7CFDDCFE11424E0F206C9
:1041300061F1C7010E947B36D70111967D01811183
:10414000F4CF015096CF8430B9F492E0E92EF12CEF
:10415000C8010F5F1F4F0E947B36E1E0F0E0EC0FDB
:10416000FD1FEE0DFF1D8083882379F08C3731F41D
:10417000FE01EE0DFF1D12827801B1CFFFEFEF1AA5
:10418000FF0A27E0E216F10419F78091B205877063
:10419000882359F0F6018581882339F08091B40590
:1041A00082FF03C082E00E9429082896EEE00C946A
:1041B000D535750194CF823049F45801F2E0AF0E45
:1041C000B11C12968C910E943619A1CF833049F40C
:1041D0005801B2E0AB0EB11CF80182810E94EB19CC
:1041E00096CF843019F00F5F1F4F92CF12962C910B
:1041F0000E5F1F4F80E090E0A8014F5F5F4F20539C
:10420000330B2A30310558F0009709F481CFAFE91C
:10421000BFE01197F1F700C000000197F5CF689E4D
:10422000B001699E700D1124C901860F971FF80116
:1042300021818A01E1CFE82FF0E0EF53F24F749033
:10424000282F26952695269530E0F901EF54F24F58
:1042500094918770F901EF55F24FA490B12C082E7C
:1042600002C0B594A7940A94E2F7B1E0AB22BB2454
:10427000F901EF56F24F8490912C082E02C09594CC
:1042800087940A94E2F7E1E08E229924292F30E006
:1042900002C0359527958A95E2F720FD0DC0AB2821
:1042A000F9F4872D0E94451A8114910409F430CF46
:1042B0008CE20E94451A2CCF81EE0E943619AB2861
:1042C00029F4872D0E94451A81EE11C086EE0E94C6
:1042D0003619872D0E94451A86EE0E94EB19F4CFFD
:1042E00086EE0E943619872D0E94451A86EE0E949E
:1042F000EB19DACF0034BEE71B0708F046CFF80110
:10430000E851FC47E730F105F0F5EF50F94C0C941B
:104310000C360134EEE71E0709F037CF8091B00567
:104320000E94400790E001968170992701E010E01B
:1043300002C0000F111F8A95E2F7602F83E090E022
:104340000E949F36802F0E9452071FCF26E241EE27
:1043500061EE0E948C1F19CF27E245EE65EEF9CF82
:1043600026E241EE60EEF5CF27E245EE64EEF1CFB6
:1043700026E241EE62EEEDCF27E245EE66EEE9CFB2
:1043800028E241E0EBCF0631FCE71F0709F0DBC074
:104390008091A1058111D5C089E20E94460C59CEB9
:1043A00084E090E00E9489369093B4058093B30531
:1043B000F801E150F047E232F10520F4E850F94C01
:1043C0000C940C368091B30581608093B3056091A5
:1043D000B3057091B40584E090E00E94BD360E9460
:1043E000611AD3CE8091B40588608093B405EFCF75
:1043F0008091B3058260E9CF8091B3058460E5CFF9
:104400008091B3058860E1CF8091B4058160EDCFE4
:104410008091B4058260E9CF8091B3058061D5CFEA
:104420008091B3058062D1CF8091B3058064CDCFF8
:104430000E94611A8091B3058068C7CF8091B3054F
:104440008C60C3CF8091B4058360CFCF8091B305DA
:104450008E7FBBCF8091B405877FC7CF8091B30596
:104460008D7FB3CF8091B3058B7FAFCF8091B305A4
:10447000877FABCF8091B4058E7FB7CF8091B40595
:104480008D7FB3CF8091B3058F7E9FCF8091B30591
:104490008F7D9BCF8091B3058F7B97CF0E94611A50
:1044A0008091B3058F7791CF8091B305837F8DCFB6
:1044B0008091B4058C7F99CF8091B30582FB9927B9
:1044C00090F921E0922790FB82F990FB83F97DCF50
:1044D0008091B405982F909591708E7F892B90FBD9
:1044E00081F983CF9091B305892F8F7B96FF8064EC
:1044F0006CCF0E94611A9091B305892F97FB87F9C1
:10450000805863CF61E08EE090E00E949F365FCFDD
:1045100060E0F9CF9091B305892F8F7E94FF806181
:1045200054CF9091B305892F8E7F90FF81604DCF3E
:104530009091B405892F877F93FF886056CF85E3DC
:1045400086CD85E32ACF8091AD058272F801E052D5
:10455000F847E531F10508F0A1C0E65EF84C0C948F
:104560000C368091A50580FF1EC0282F2E7F20933A
:10457000A5053091A6054091A7055091A805609129
:10458000A9057091AA058091AB059091AC050E9498
:1045900083120E94380B8091A40581608093A4054A
:1045A0000E94530EF2CD81608093A50561E086954F
:1045B00086950E94B717E9CD41E158E165E078E1C1
:1045C0000E943F0BE2CD45E058E161E178E1F8CF90
:1045D00040EA53E166E973E1F3CF46E953E160EA6B
:1045E00073E1EECF47EB53E16AEA73E1E9CF4AEAC0
:1045F00053E167EB73E1E4CF41ED53E164EC73E128
:10460000DFCF44EC53E161ED73E1DACF40EE52E1EC
:1046100066EC72E1D5CF46EC52E160EE72E1D0CFAC
:1046200061E081E0C6CF65E082E00E942918ADCD4F
:1046300068E086E0FACF6EE089E0F7CF68E18FE0CE
:10464000F4CF07373CE7130709F484C082E008374A
:104650004CE7140709F47FC00A35ACE71A0709F4E0
:10466000A1C008F084C00130ECE71E0709F498C02F
:104670000330FCE71F0709F48DC001152CE7120772
:10468000C1F40E94611A8FEF94E3ACE08150904036
:10469000A040E1F700C000000E94C60C07378CE77D
:1046A000180709F460C082E008379CE7190709F48D
:1046B0005BC0D60115968C911597ED90FC908823E0
:1046C00009F474C0C7010E948711182F682FC70111
:1046D0000E94CB07B701812F0E9468110E946209D6
:1046E000E82E192FF601B580A680A2948FE0A822AB
:1046F0008091B2058770882309F1FB2CBB20F9F06B
:10470000892F807F803469F080E28E0D8830B0F090
:10471000892F807E803229F4F1E0FE1578F4AA20FA
:1047200069F08091B40582FF09C082E00E942908E7
:104730008091B2058770FF24F3948111F12CE12F51
:10474000E295EF70103C08F098C0F0E0E15DF84CA5
:104750000C940C3681E00E94580743E062E081E04F
:104760000E94FE0712CD81E00E946407F6CF0B3550
:104770003CE71307C9F00C354CE7140709F099CF53
:104780008091B40582FB882780F991E089270E94F7
:10479000F10F8FCF6FEF7FEF80E090E00E94BD368A
:1047A0000E94921A81E0F3CF80E0F1CFC7010E940E
:1047B000E507182F8FCF012F0F70103110F00295E1
:1047C000007FBB20B9F0002369F080E28E0D8830B5
:1047D00010F0E11009C08091AD05802B8093AD05EC
:1047E0000E9420128E2D41C08091B505802B8093B0
:1047F000B505F6CF8E2D0E94EB190023F1F180E272
:104800008E0D883010F0E11004C0802F0E946708E0
:1048100006C000958091B50580238093B5050E9460
:1048200020122BC0012F0F70107F103211F0029553
:10483000007FEE2051F021E0E21609F46CC0BB20AD
:1048400009F478C0AA20D1F1CDCF8091B40582FDC2
:1048500031C0BB2069F0002339F08091AD05802B79
:104860008093AD050E94201280E00E94361905C099
:1048700080E00E94EB190111C8CFFF20B1F08091B8
:10488000B20580FD12C0D60115961C9286958695BC
:1048900086950E945807C6010E94E71F8091B205C5
:1048A0008695869586950E94640760E0C6010E9401
:1048B000B2117BCCBB2099F0A11004C0802F0E94C4
:1048C0007212DBCF31E0A312D8CF8091AE05902FCA
:1048D0009823091791F2802B8093AE05CECFA110BB
:1048E000CCCF802F0E947C129091AE05802F89231F
:1048F000882329F0802F809589238093AE058091AD
:10490000AF05902F9823992309F4B7CF009508237A
:104910000093AF05B2CFBB2029F045E04A1508F45B
:10492000ACCFCCCF84E08A1508F4A7CF802F0E94AB
:104930007C12A3CFAA20D1F399E3E9120DC0AFEF07
:10494000B7EEE3E0A150B040E040E1F700C0000066
:104950008E2D0E94EB1991CF8FE39CE90197F1F71F
:10496000F5CF812F869586958370882369F08130F5
:1049700009F083CF8E2D912F9370B11002C080E08B
:1049800090E00E94EC0B79CF8E2D912F9370B11097
:1049900002C080E090E00E94C60B6FCF6B2D8E2D81
:1049A0000E9462186ACF812F8370811137C0B110C5
:1049B0002AC04E2D429546954770440F440F2E2D28
:1049C0002F70042E01C0220F0A94EAF79E2D9071D9
:1049D000992341F08FE090E001C0880F4A95EAF7F3
:1049E000982F9095169516951370123091F0892F87
:1049F000822B133031F08091B005113039F0292B22
:104A000082230E9452070E94B20B37CF822B892B40
:104A1000F8CF292B8091B0058227F3CFBB2069F115
:104A200010FFF1CF4E2D429546954770440F440F2D
:104A30002E2D2F70042E01C0220F0A94EAF79E2D0E
:104A40009071992341F08FE090E001C0880F4A9562
:104A5000EAF7982F9095169516951370123099F0E5
:104A6000892F822B133031F08091B105113041F044
:104A7000292B82230E945507C6CF823020F2D2CF45
:104A8000822B892BF7CF292B8091B1058227F2CF7A
:104A90001F70BB2039F0812F0E9458078E2D0E9475
:104AA0007212B1CF8E2D0E947C12812F0E9464075A
:104AB000AACF92EFE916A9F19E1588F0A0EFEA16A9
:104AC000D9F0B1EFEB1609F443C0BB2009F467C07D
:104AD000AA2009F461C08E2D0E94361994CFE3EF0D
:104AE000EE1631F1F4EFEF1679F1B110F1CFA1101C
:104AF00069C0812F8F71DACFBB2081F024E02A15A5
:104B000008F481CF1F7181E090E0012E01C0880F71
:104B10000A94EAF79091B1058927ACCF35E0A31646
:104B2000EFCF812F8F71B110C1CF0E9458076BCF8B
:104B300080E0BB2009F49ECF1F7181E0012E01C0EF
:104B4000880F0A94EAF796CF8091B40582FD06C0DB
:104B5000812F8F71BB2009F4A9CFE7CFBB2089F04B
:104B60001F71812F0E9458078091B40582FF07C0F2
:104B700048E0149FC001112483608093B205812F07
:104B8000D4CF81E00E94290881E08A1508F03BCF4C
:104B900082E00E94290837CF812F8F71C6CFAA20CB
:104BA00009F4A7CF99E3E9120DC0AFEFB7EEE3E048
:104BB000A150B040E040E1F700C000008E2D0E94FF
:104BC000EB1921CF8FE39CE90197F1F7F5CF8091A5
:104BD000F605803178F48091F505882359F0E0914D
:104BE000B7052091B6053091F1054091F00557E0E9
:104BF0002E1301C008956E2F70E05E9FF001112406
:104C0000DF01A854BA4F14968C911497882361F150
:104C100011968C911197831327C08C91841324C013
:104C200015968C91159781111FC012968D919C91AC
:104C3000A091F205B091F3058A1B9B0B8837910573
:104C400098F48091F6058F7080618093F605E254A8
:104C5000FA4F80818F708061808380EF95E00E94A1
:104C6000E71F0E941F080895FB013196E770C0CF2F
:104C7000ADE0B0E0EEE3F6E20C94B9358C0186E0ED
:104C8000F801DE01189601900D928A95E1F7F8017E
:104C90007080F580A280B380848190EF892E95E0AA
:104CA000992E6090F405611018C0882399F0FF20B8
:104CB00009F413C1C8010E94E111882309F40DC150
:104CC00087E0F801A0EFB5E001900D928A95E1F739
:104CD0000E94E725FF24F39453C0D090F50520915E
:104CE000F2053091F305A501421B530BDD2009F4B9
:104CF000C4C04837510508F07AC0882359F3809121
:104D0000F105C180E090F605FFE0FE1508F459C0FA
:104D1000C81215C08091F005871111C0F1104BC069
:104D20008E2D8F7080618093F60580EF95E00E9454
:104D3000E71F8091F605F8018683F12C21C0F11060
:104D40003AC040E06C2D872D0E94340E40E06C2D5F
:104D5000872D0E94340EF82E8111EFCF888599851A
:104D60000E94D211292F22952F70903470F49F70D9
:104D70002230A0F09923B1F0F8019681903190F49F
:104D80008F2D2D96EEE00C94D5352A5F2F702230B2
:104D900068F0C8010E94E71FFD2CF2CF992311F0A3
:104DA000882371F3805E883058F3F3CF803F40F35F
:104DB000815F8230F9CF8091F60581608093F6059E
:104DC000BCCFC8123CC08091F005871138C0F110EB
:104DD00036C0F801E682C8010E94E71F87E0F801AB
:104DE000A0EFB5E001900D928A95E1F773CFE090C6
:104DF000F605FFE0FE1550F080EF95E00E94E71FFA
:104E000087E0F40111928A95E9F797CF882309F496
:104E100061CF9091F105F8018181981310C08091C4
:104E2000F00587110CC0F1100AC0E682C8010E948B
:104E3000E71F87E0F40111928A95E9F74BCFC8018B
:104E40000E94E111882309F448C0FF2009F445C0FD
:104E50008091F605803208F433CF8091F00590916F
:104E6000F1059A838983BC82AB826D821E82EF82B8
:104E7000CE0101960E94E71F23CF4837510508F065
:104E8000BFCF882309F426CFFF2039F19091F10597
:104E90008181981318C08091F005871114C080910A
:104EA000F60580FD9BCF803108F498CF8683807F04
:104EB000803F09F490CF8681982F907F905F8F700C
:104EC000892B868388CFC8010E94E1118111F8CE19
:104ED0008091F60581608093F605C8010E94E71F66
:104EE000F9CEABE1B0E0E7E7F7E20C94C4354E8BC6
:104EF0005F8B688F798F8A8F9B8F91111092B50588
:104F00001D8A86E0FE017696DE011F9601900D92C5
:104F10008A95E1F78B89882329F061E0CE010F960D
:104F20000E94B21187E0FE013F96DE0118960190C3
:104F30000D928A95E1F7CE0108960E9438268111DC
:104F40002BC087E0FE013896DE01119601900D928C
:104F50008A95E1F72091B6054091B7058C858823A5
:104F6000D9F030E0C90101968770992750E0841785
:104F70009507E9F097E0929FD001939FB00D11241F
:104F8000A854BA4FFE01319601900D929A95E1F71F
:104F90008093B6050E941F0817E08091B705909195
:104FA000B605891312C06B96E3E00C94E0350E94BD
:104FB000611A1092B6051092B70587E0E0EFF5E0B0
:104FC000DF011D928A95E9F7E7CF189FC0011124F0
:104FD00088549A4F0E943826882329F38091B70578
:104FE00090E00196877099278093B705D6CFA6E009
:104FF000B0E0EDEFF7E20C94C3350E9484178C010A
:1050000080914705909148058017910779F01982A2
:105010001A820E948417BC0149815A8180E090E085
:105020000E94712710934805009347052696E4E0F7
:105030000C94DF35ACE0B0E0E0E2F8E20C94C3356C
:10504000182F8F83662391F10DEF08870E94841734
:10505000BC0189879A8782E08B8781E08C874F81AA
:10506000588582E091E00E9471278FE39CE90197C7
:10507000F1F700C0000019830A830E948417282FCB
:1050800082E0622F792F2B839C838D831E8249813E
:105090005A8190E00E9471278FE39CE90197F1F714
:1050A00000C000002C96E4E00C94DF350CEF08877C
:1050B0000E948417BC0189879A8783E08B8781E0EF
:1050C0008C874F81588583E091E00E9471278FE3A0
:1050D0009CE90197F1F700C0000019830A830E9440
:1050E0008417282F83E0CDCFA1E0B0E0EAE7F8E213
:1050F0000C94BE35EE24E394F12C00E315E09E0100
:105100002F5F3F4F4CE055E064E083E00E949A142B
:10511000082F882339F1D12C80E01DC0C0900B05E9
:10512000CD0C2C2D30E0A901475F5A4F7A01E1E008
:10513000F0E0EC0FFD1FED0DF11D1081FA019081E3
:10514000191BB12E1B149CF0912F17FD90E0191B19
:10515000111118C0D39490910805D916F8F2811155
:105160000E94C30C802F2196E9E00C94DA35BA94A2
:10517000F70180818F5F808360E08C2D0E941A2868
:10518000802FE0CF1F5FF70180818150808361E035
:105190008C2D0E941A28802FDBCFABE1B0E0E3ED2D
:1051A000F8E20C94B8351A821982FE0133968AE02F
:1051B000DF011D928A95E9F788E9E82E81E0F82E53
:1051C0008E010F5F1F4F9EE9C92E91E0D92E380145
:1051D000AA24A394B12C35EA832E31E0932EF70153
:1051E00081917F018F3F09F441C0F894E82FE29547
:1051F000EF70F0E021A18F70A50102C0440F551F90
:105200008A95E2F7CA01922F982B91A392A18095DB
:10521000892382A3789400C0EEE9F1E031E0512CBB
:1052200021912F3F09F4ACC0A22FA295AF70A05ED0
:10523000B0E08C9190E02F7002C0959587952A95EB
:10524000E2F7817081119CC0832F582A330F8E168C
:105250009F0631F7F701319780818F3F11F00E944F
:105260007D0A50EA5A95F1F7D8015C920F5F1F4F03
:10527000CE14DF0409F0B3CF4CE050E0B3018EEA66
:1052800092E00E9465360091BB0210E002511B4F74
:10529000892B09F477C08CE0F301AEEAB2E001900B
:1052A0000D928A95E1F781E0809321020E94841794
:1052B0009093200280931F0280914505882309F472
:1052C000B9C01E861D86FE013F9684E0DF011D9257
:1052D0008A95E9F7809124028A3008F075C07E0132
:1052E000BDE0EB0EF11C4BEF54E1B701C8010E9489
:1052F000B70F6701882309F48BC04FE555E1B7016B
:10530000C8010E94B70F882309F482C044E758E21D
:10531000B701C8010E94B70F882309F479C049EC8E
:1053200055E1B701C8010E94B70F882309F470C086
:105330004DE755E1B701C8010E94B70F882309F472
:1053400067C049EA55E1B701C8010E94B70F882339
:1053500009F45EC0109224028091BA0290E046E007
:1053600050E0B60182519B4F0E94653621E02093A8
:105370001E02892B09F03FC06B96EFE00C94D435E8
:1053800080E063CF80912102882309F495CF80913A
:105390001F02909120020E94621D059708F48CCF95
:1053A00046E050E06EEA72E0C8010E946536892B43
:1053B00041F086E0EEEAF2E0D80101900D928A9584
:1053C000E1F71092210278CF80911C0290911D028A
:1053D0000E94621D843F914008F081CF80911E029F
:1053E000882351F2FE013D9686E0DF011D928A95E9
:1053F000E9F710921E02A091BA02B0E0A251BB4F91
:1054000086E0FE013D9601900D928A95E1F7B4CFBA
:10541000809124028F3F39F40E94841790931D02DB
:1054200080931C02DBCF8F5F809324028A3008F4C4
:1054300093CFF2CFE090BA02F12CF701E251FB4F8B
:105440007F0186E0F801A3E2B5E001900D928A9514
:10545000E1F766E070E083E295E00E94460B8093FE
:10546000220586E0E9E2F5E0D70101900D928A95E8
:10547000E1F74091E60450E06091E50470E0675F79
:105480007A4FCE010D960E9472368D85809330053D
:1054900061E070E0CE010D960E94460B80932F05CF
:1054A000C0903105D0903205E0903305F09034057E
:1054B0008091180290911902A0911A02B0911B02DA
:1054C000C816D906EA06FB06B1F0C0921802D092BF
:1054D0001902E0921A02F0921B020E94730CC61A83
:1054E000D70AE80AF90AC0924105D0924205E09233
:1054F0004305F09244058BE0E5E3F5E0DE011D96FF
:1055000001900D928A95E1F78091350586958695F3
:10551000F0903605E0903705D090380500913E05B3
:1055200010913F0510923F05112301F110FF0BC0B0
:105530009D8590FF22C09091A50591609093A5054F
:1055400060E00E94B71711FF06C020E04D2D6E2DC0
:105550008F2D0E94FA1212FF04C0002389F00E94CE
:105560009B1713FF03C081E08093E0048091400506
:10557000882349F00E945416FFCE0E94E30EE3CF29
:105580000E94380BEECF0E944216F6CECDB7DEB7A2
:10559000A4970FB6F894DEBF0FBECDBF85B7806865
:1055A00085BF85B7806885BF84B7877F84BF0FB606
:1055B000F894A895809160008861809360001092B3
:1055C00060000FBE80E890E00FB6F8948093610011
:1055D000909361000FBE8BE79AE09093EF01809368
:1055E000EE010E94830D0E94D90D8091E20084603B
:1055F0008093E20078948091FA04882399F0809156
:10560000E9001091EC001795112717958F70182B52
:105610001092E9008091E80083FD0E94A81A1F7093
:105620001093E90082E084BD93E095BD9AEF97BDA9
:1056300080936E001092410510924205109243052E
:10564000109244050E940712811102C00E94F110BD
:1056500088EC90E02091E30027FD65C6AFE3BCE94C
:105660001197F1F700C000000197009799F70E9489
:10567000830D1092FA04109245051092460510927F
:1056800017018CE080931201809313018091170120
:1056900091E089278093E504B92FB81BB0930B05DF
:1056A000809117019093E60480911701909308056B
:1056B00084988C9A26982E9AEFE8F1E03197F1F7CA
:1056C00000C000002091E60447EE54E0FA018E2F5E
:1056D000841B821708F471C0809117018091170113
:1056E00090E0811101C096E09093BB0286E0891B97
:1056F0008093BA0208E911E0AEE9EA2EA1E0FA2EA1
:10570000D8018D918D018F3F11F00E947D0AE01626
:10571000F106B1F70EE911E0F5EAEF2EF1E0FF2E08
:10572000F80181918F018F3F11F00E947D0AE016F0
:10573000F106B1F78CE0EEEEF4E0DF01282F1D92C8
:105740002A95E9F7EEEAF2E0DF011D928A95E9F782
:1057500055985D982098289880E090E00E948936BE
:10576000863E9E4F21F40E940712811102C00E94C2
:10577000DE1382E090E00E947B368093CD0484E0CB
:1057800090E00E9489369093B4058093B3050E94FF
:10579000CD28EFE3FCE93197F1F700C000000E944B
:1057A000CD288091EE0480FF13C06FEF7FEF80E083
:1057B00090E00E94BD360E94C60C9FB183B186FB6B
:1057C000882780F9880F92959170892B81937FCFDC
:1057D00083E090E00E947B360E94520783E0809332
:1057E000C70480E28093C6040E94E7326BE070E059
:1057F0008CE79DE00E941516882309F443C0809130
:10580000C70465E070E081FD54C187E79DE00E9418
:1058100015168823B9F16DE070E085E69DE00E94E1
:105820001516882379F10E94730C69A37AA38BA3C0
:105830009CA3DC01CB018058974CAE4FBF4F8093A7
:10584000C2049093C304A093C404B093C504E0ECD5
:10585000F2E080E092E0DF019C011D922150304097
:10586000E1F7F093BF02E093BE028FEF9FEF9093BA
:10587000BD028093BC0281E08093C1048093FB044D
:105880001092C0048091C804811197C080E090E01C
:105890000E948936863E9E4F21F40E940712811194
:1058A00004C00E94DE130E94A91288E090E00E94CA
:1058B00083366B017C0184E290E00E947B36282FC6
:1058C00030E040E050E060E070E080E090E000E236
:1058D0000E941936E22FA32EB42EB52FA62FF72F34
:1058E0009701860140E050E0BA01EC29A12AB22AD2
:1058F000B32BA42BF52B862B972BE093A505A09219
:10590000A605B092A705B093A805A093A905F093AA
:10591000AA058093AB059093AC058091A4058360A4
:105920008093A405E430C8F50E94A91288E090E0B5
:105930000E9483366B017C0184E290E00E947B36FA
:10594000282F30E040E050E060E070E080E090E040
:1059500000E20E9419365901B42FA52FF62FE72F28
:105960009701860140E050E0BA01AC28B12AB22B81
:10597000A32BF42BE52B862B972BA092A505B09299
:10598000A605B093A705A093A805F093A905E093F9
:10599000AA058093AB059093AC050E94230B0E944F
:1059A000380B8091A50580FF05C060E0869586953F
:1059B0000E94B71781E08093C8048091450581114A
:1059C00002C00E94413488E191E090936A0580937F
:1059D000690578E1E72EF12CE0E45E2EBB24B39458
:1059E00077247394AA24A3948091FA04853091F4C7
:1059F0008091FA04853009F45FC00E94611A0E9408
:105A0000B20B1092CB048091CA0481110E941E181F
:105A10000E949B170E94CD280EEC14E06EEEC62E5D
:105A200064E0D62E2AED34E0D601F80191918D91F3
:105A30002E173F0709F4A1C09817C1F32090450520
:105A4000912CD6018D906D01F80131908F013814A1
:105A500039F13824612C44244394842D83218823F4
:105A6000B9F02220A9F069829A820E9484179C834F
:105A70008B837D8291E0842D8821811101C090E08B
:105A80009E8349815A816B817C818D810E9471271F
:105A90006394440CF7E06F12E0CFF80131978082F5
:105AA00093942CE09212CDCF0E94900C66246394C4
:105AB00069C082E79DE0ABCE8091FA04843009F49E
:105AC00032C00E94380B8091CB04811109C0A09292
:105AD000CB048091A50581708093CA040E94E30ED7
