:100000000C94FF060C941C070C941C070C942F34C2
:100010000C941C070C941C070C941C070C941C07D4
:100020000C941C070C941C070C946F310C944732F1
:100030000C94801B0C941C070C941C070C941C073C
:100040000C941C070C941C070C941C070C941C07A4
:100050000C941C070C944B310C941C070C941C073B
:100060000C941C070C941C070C941C070C941C0784
:100070000C941C070C941C070C941C070C941C0774
:100080000C941C070C941C070C941C070C941C0764
:100090000C941C070C941C070C941C070C941C0754
:1000A0000C941C070C941C070C941C070501098078
:1000B000A101850319012AB700150126B700950192
:1000C00075108100C0050C0901A101850419012AE0
:1000D000A002150126A002950175108100C005013E
:1000E0000906A1018506050719E029E71500250184
:1000F0009508750181020507190029EF15002501F2
:1001000095F075018102050819012905950575010C
:100110009102950175039101C00660FF0961A1017B
:100120000962150026FF00952075088102096315F4
:100130000026FF00952075089102C005010906A15F
:1001400001050719E029E7150025019508750181CA
:10015000029501750881010507190029FF15002680
:10016000FF0095067508810005081901290515008D
:100170002501950575019102950175039101C00056
:10018000AF00AE09025B00030100A0FA0904000001
:1001900001030101000921110100012244000705AA
:1001A0008103080001090401000203000000092185
:1001B000110100012222000705820320000107052A
:1001C00003032000010904020001030000000921CB
:1001D00011010001226D00070584032000011201B6
:1001E000000200000008444D6160000101020001AE
:1001F0003A034500720067006F004400610073001D
:100200006800200048006F007400730077006100F0
:100210007000200042007900200050006F00730041
:100220006900740072006F006E0000002803500027
:100230006F0073006900740072006F006E00200090
:1002400045006C0065006300740072006F006E0072
:100250006900630000000403090429001E001F0058
:100260002000210022002F00350014001A00080091
:10027000150017002D002B000400160007000900D0
:100280000A004C00E1001D001B00060019000500DB
:100290002C00E000E300E2000600225204004C00C3
:1002A00004000500060000000000000000004600F9
:1002B0002700260025002400230030003100130011
:1002C00012000C0018001C002E00340033000F0038
:1002D0000E000D000B002A00E50038003700360044
:1002E0001000110028004F0052005100500023520E
:1002F00005002A00090008000700000000000000B7
:1003000000000100010001000100010001000100E6
:100310000100007C207821782478237801000100F6
:1003200001000278067804780378010001000100DA
:1003300001000100010001000100010001000100B5
:10034000010001000100010004000500060000009A
:100350000000000000000100010001000100010098
:10036000010001000100010027782878257826780F
:100370000100010001000100010001000100010075
:100380000100010001000100010001000100010065
:100390000100010001000100010001000900080046
:1003A0000700000000000000000044003A003B008D
:1003B0003C003D003E002F0235021E021F022002BB
:1003C000210222022D022B001E001F00200021000E
:1003D00022004C00E1002300240025002600270015
:1003E0002C00E000E300E200060022522C004C004A
:1003F00004000500060000000000000000004500A9
:1004000043004200410040003F0030023102270219
:1004100026022502240223022E02340233020F0098
:100420000E000D000B002A00E500380237023602EC
:100430001000110028004D004B004E004A002352CE
:1004400028002A0009000800070000000000000042
:10045000000044003A003B003C003D003E002F02FB
:1004600035021E021F022002210222022D022B0051
:100470001E001F002000210022004C00E10023008C
:1004800024002500260027002C00E000E300E20005
:10049000060022522C004C0004000500060000005B
:1004A0000000000000004500430042004100400001
:1004B0003F003002310227022602250224022302D5
:1004C0002E02340233020F000E000D000B002A0032
:1004D000E5003802370236021000110028004D00F6
:1004E0004B004E004A00235228002A000900080051
:1004F00007000000000000000000A900AA004B0057
:100500004E000100010001000100237824782578C5
:1005100026782778287821782278000080C0E0F0BB
:10052000F8FCFCFEFEFEFF7F3F3F3F3F7FFFFEFEED
:10053000FEFC9C3870E0C0800000F0FEFFFFFFFF73
:10054000FFFFFFFFFFFFFFFCF8F0F0F8FCFFFF7F6D
:100550003F1F03000000031FFEF00F7FFFFFFFFFA0
:10056000FFFFFFFF0F0703C3E1F1F1E1C10000004E
:10057000000000000000C0F87F0F00000103070F1B
:100580001F3F3F7F7C70E0E0C3C3C3C3C0E0606037
:100590007030381C0E07030100004350534C4B00D1
:1005A0000A0A00556E646566005261697365004C05
:1005B0006F77657200426173650A004C415945527C
:1005C000000A0A004D6F6400436C6D6B0A0051779E
:1005D00072740A000A0A0057504D3A200007087F3B
:1005E0000807003E5B4F5B3E003E6B4F6B3E001CBE
:1005F0003E7C3E1C00183C7E3C18001C577D571C5E
:10060000001C5E7F5E1C0000183C180000FFE7C362
:10061000E7FF00001824180000FFE7DBE7FF0030C9
:10062000483A060E00262979292600407F0505074D
:1006300000407F05253F005A3CE73C5A007F3E1CA6
:100640001C0800081C1C3E7F0014227F2214005F3F
:100650005F005F5F0006097F017F00006689956A81
:100660000060606060600094A2FFA2940008047EB5
:1006700004080010207E20100008082A1C0800082A
:100680001C2A0808001E10101010000C1E0C1E0C56
:100690000030383E383000060E3E0E0600000000E6
:1006A00000000000005F00000000070007000014C9
:1006B0007F147F1400242A7F2A1200231308646207
:1006C00000364956205000000807030000001C2295
:1006D0004100000041221C00002A1C7F1C2A000847
:1006E000083E08080000807030000008080808086C
:1006F000000000606000002010080402003E514924
:10070000453E0000427F40000072494949460021B1
:1007100041494D33001814127F10002745454539D3
:10072000003C4A4949310041211109070036494935
:10073000493600464949291E000000140000000007
:100740004034000000000814224100141414141452
:10075000000041221408000201590906003E415DD3
:10076000594E007C1211127C007F49494936003EE7
:1007700041414122007F4141413E007F4949494179
:10078000007F09090901003E41415173007F0808BB
:10079000087F0000417F4100002040413F01007F71
:1007A00008142241007F40404040007F021C027F2D
:1007B000007F0408107F003E4141413E007F09094F
:1007C0000906003E4151215E007F09192946002695
:1007D000494949320003017F0103003F4040403F47
:1007E000001F2040201F003F4038403F0063140896
:1007F0001463000304780403006159494D43000069
:100800007F41414100020408102000004141417F26
:100810000004020102040040404040400000030781
:100820000800002054547840007F284444380038A1
:100830004444442800384444287F00385454541811
:100840000000087E09020018A4A49C78007F080418
:1008500004780000447D4000002040403D00007FBF
:10086000102844000000417F4000007C0478047898
:10087000007C0804047800384444443800FC182400
:1008800024180018242418FC007C080404080048DC
:10089000545454240004043F4424003C4040207C31
:1008A000001C2040201C003C4030403C00442810EC
:1008B0002844004C9090907C004464544C440000C8
:1008C00008364100000000770000000041360800B3
:1008D000000201020402003C2623263C0000000026
:1008E000000000404040F0F8F8FF38FFF8F83FF80B
:1008F000F8FF38FFF8F8F04040400000000000002A
:1009000080C0C0C0800000C0C08000000080C0C0A7
:1009100000C0C0000080C0C00000000000C0C0C017
:10092000C0C000C0C00000000000000000000000C7
:1009300000000000000000000000000000000000B7
:1009400000000000000000000000000000000000A7
:10095000000000000000000000000000C0F0F8FCF3
:100960003E1E06010000007F4141417F007F414162
:10097000417F000080C0E07E5B4F5BFEC00000C096
:1009800000DCD7DEDEDED7DC00C0000000000000A7
:100990000000000000000000000000000000000057
:1009A000000000494949FFFFFFFFE0DFBFBF00BF74
:1009B000BFDFE0FFFFFFFF49494900000000001FC3
:1009C0003F6060E0BF1F007F7F071E381E077F7FEC
:1009D000007F7F0E1F3B716000000000007F7F0CD6
:1009E0000C0C007E7E007F7E0303007F7E03037E6F
:1009F0007E03037F7E000F3E703C063C703E0F007E
:100A0000327B49493F7E007F7E0303001E3F6969B8
:100A10006F2600000000000000000000030F1F3FD1
:100A20003C7870600000007F4141417F007F414180
:100A3000417F00307B7F7830202030787F3B00037F
:100A4000000F7F0F0F0F7F0F00030000000000005A
:100A50000000000000000000000000000000000096
:100A6000000000010101070F0F7F0F7F0F0F7E0FA6
:100A70000F7F0F7F0F0F0701010100000000000032
:100A80000000000001010000000000000000000064
:100A90000000000000000000000000000000000056
:100AA0000000000000000000000000000000000046
:100AB0000000000000000000000000000000000036
:100AC0000000000000000000000000000000000026
:100AD0000000000000000000000000000000000016
:100AE0000000000000000000000000000000000006
:100AF00000000000000000000000000000000000F6
:100B000000000000000000000000000000000000E5
:100B1000000000000000000000000000002223256B
:100B20002628292A2C2D2F3032333536383A3B3DB2
:100B30003E4042434547494A4C4E50515355575900
:100B40005A5C5E6062646668696B6D6F717375771D
:100B5000797B7D7F81838587898A8C8E909294961C
:100B6000989A9C9E9FA1A3A5A7A8AAACAEAFB1B32B
:100B7000B4B6B8B9BBBCBEBFC1C2C3C5C6C7C9CA7B
:100B8000CBCCCDCED0D1D2D2D3D4D5D6D7D7D8D93D
:100B9000D9DADADBDBDBDCDCDCDCDCDDDDDDDDDC9B
:100BA000DCDCDCDCDBDBDBDADAD9D9D8D7D7D6D5AD
:100BB000D4D3D2D2D1D0CECDCCCBCAC9C7C6C5C36F
:100BC000C2C1BFBEBCBBB9B8B6B4B3B1AFAEACAABC
:100BD000A8A7A5A3A19F9E9C9A98969492908E8C6C
:100BE0008A89878583817F7D7B79777573716F6D46
:100BF0006B6968666462605E5C5A59575553515020
:100C00004E4C4A4947454342403E3D3B3A383635D3
:100C10003332302F2D2C2A292826252322FFAA7F84
:100C2000554000010101010101010101020202021E
:100C30000202020202030303030303030304040486
:100C4000040404040505050505060606060607074F
:100C500007070708080808090909090A0A0A0B0B07
:100C60000B0C0C0C0D0D0D0E0E0E0F0F0F101011A6
:100C7000111112121313141415151616171718182C
:100C800019191A1A1B1B1C1D1D1E1E1F2020212294
:100C900022232424252626272829292A2B2C2D2DDA
:100CA0002E2F30313232333435363738393A3B3CF7
:100CB0003D3E3F404142434445464748494A4C4DEA
:100CC0004E4F50515354555658595A5B5D5E5F61B3
:100CD0006264656668696B6C6D6F70727375777846
:100CE0007A7B7D7E8082838587888A8C8E8F9193A4
:100CF0009596989A9C9EA0A2A3A5A7A9ABADAFB1CB
:100D0000B3B5B7BABCBEC0C2C4C6C9CBCDCFD1D4AF
:100D1000D6D8DBDDDFE2E4E7E9EBEEF0F3F5F8FA55
:100D2000FDFF00DA02815AD9F1DB20A4A62EAF0024
:100D3000A0C0D30000A1C8D30000AED580A81F403A
:100D40008D142000643214783C1E1E140A05000025
:100D50000000000000000000000000000000000093
:100D60000000000000000000000000000000000083
:100D700000007E0F00D4FFFFFFC7000000780000D6
:100D80000000000000002A2B2800000000000000E6
:100D900000000000000000000029000000002C1EE0
:100DA0003420212224342627252E362D3738271E9D
:100DB0001F202122232425263333362E37381F04C3
:100DC00005060708090A0B0C0D0E0F10111213145B
:100DD00015161718191A1B1C1D2F3130232D350419
:100DE00005060708090A0B0C0D0E0F10111213143B
:100DF00015161718191A1B1C1D2F3130354C1124CC
:100E00001FBECFEFDAE0DEBFCDBF11E0A0E0B1E062
:100E1000ECE7FEE602C005900D92A83FB107D9F7B6
:100E200026E0A8EFB1E001C01D92AC33B207E1F7B4
:100E30000E94712A0C94DF360C940000982F829542
:100E40008F70882311F0982F84E0292F26952695FE
:100E5000222311F08E5F922F969591118F5F089546
:100E60008093F50508958093F605089521E030E01C
:100E700001C0220F8A95EAF78091F605822B0E9425
:100E80003307089521E030E0A90102C0440F551F47
:100E90008A95E2F7CA0180959091F60589230E9410
:100EA000330708959B01677091E001C0990F6A951F
:100EB000EAF763E0369527956A95E1F7B901660F81
:100EC000771F260F371FFA01E20FF31F40E050E0B3
:100ED000682F70E08191DF0111979B01042E02C001
:100EE000369527950A94E2F7217021952827292322
:100EF00028272C934F5F5F4F4330510559F70895D2
:100F00009C01A82FA77083E0369527958A95E1F775
:100F1000C901880F991F820F931FFB01E80FF91F6A
:100F200040E050E080E0219130E00A2E02C036958A
:100F300027950A94E2F721703327042E01C0220F6F
:100F40000A94EAF7822B4F5F5F4F4330510559F700
:100F50000895282F862F9C3070F4273058F4622F84
:100F600070E027E0929F600D711D112441E955E06A
:100F70000E94520708959C5F9230E0F7622F70E064
:100F80004EE855E0F5CF292F9C3068F4873090F477
:100F900090E061E975E037E0239F800D911D1124F9
:100FA0000E94800708952C5F223020F46EE875E0DF
:100FB00090E0F6CF80E008959091F60521E030E0D2
:100FC000F90101C0EE0F8A95EAF7D90102C0AA0F14
:100FD000BB1F6A95E2F7EA2B01C0220F4A95EAF798
:100FE000892F8E23E81305C0892F822B0E94330797
:100FF00008952095822F8923F9CF8091FC05909147
:10100000FB05981301C008958F5F8770FACF909108
:10101000F705809589238093F705282F27702111E4
:101020000DC0891759F09091F90592FF07C0869578
:10103000869586950E9442071092F7050895809143
:10104000F2059091FA05892B5091F3055523C1F0D3
:1010500090916C019923A9F09091F80597FF11C028
:101060009DE124E032E040E0F90160812F5F3F4FD5
:1010700061114F5F9150C0F741111092F305852B1C
:10108000089595E02CEF31E0EECF982F9095809168
:10109000F20589238093F2050895803E9105D1F1F0
:1010A000C8F48133910509F47FC048F48932910571
:1010B00009F46FC08A32910509F47DC0089589331F
:1010C0009105E1F082389105C9F08533910509F465
:1010D0005BC00895843E9105D1F148F4823E9105AC
:1010E00031F1833E910541F181EE90E00895863E15
:1010F0009105C1F1873E9105E1F108952091F80530
:101100002370211165C02091F90523FF14C089E2E5
:1011100090E008952091F80520FD43C03091F90535
:1011200030FF09C024FF4EC080E090E00895209178
:10113000F80522FDF7CF08952091F80522FD45C05E
:101140003091F90530FD44C024FFF5CFEDCF20915B
:10115000F90521FFF0CF8091F80584FDE5CF87EEFA
:1011600090E008952091F80523FFE5CF24FDDCCF22
:10117000F6CF2091F80523FD2EC03091F90531FFFF
:10118000E3CF84EE90E008952091F80525FFD3CFBA
:10119000BECF2091F80525FD21C02091F90523FF40
:1011A000CACF89E390E008952091F80526FFC3CFC8
:1011B0008AE290E008952091F80526FFBCCF81E3F4
:1011C00090E0089583EE90E0089582EE90E0089517
:1011D00080EE90E0089586EE90E0089585E390E03B
:1011E000AACF9091F80592FF10C041E0282F2471FA
:1011F000243009F040E031E0282F2871283009F030
:1012000030E0431711F02CE0822793FF10C041E03B
:10121000282F2471243109F040E031E0282F287173
:10122000283109F030E0431711F02CE0822730918B
:10123000F90530FF10C051E0282F2171213009F04D
:1012400050E041E0282F2871283009F040E0541781
:1012500011F029E0822731FF10C041E0282F2171D1
:10126000213109F040E031E0282F2871283109F0C0
:1012700030E0431711F029E0822794FD877E08951E
:101280001F93CF93DF930E944D08EC01811522E557
:10129000920708F053C0811540E5940708F0DDC0BF
:1012A000803E9105F8F48D3C910508F0AEC0883A77
:1012B000910580F4853A910508F099C08130910537
:1012C00021F00497813A910550F4CE01DF91CF913E
:1012D0001F910895885A91094B9708F48BC0C0E07C
:1012E000D0E0F3CF811550E49507F8F4C11580E202
:1012F000D80708F0CBC0C83ED10538F3CE019A9587
:1013000081159F4160F78D2F0E94F108182FCE01A3
:1013100099270E944D08212F30E0322F2227E90122
:10132000CC27DF71C82BD92BD0CF99270E944D082D
:10133000CC27DF70C82BD92BD06AC7CF803842E5C5
:101340009407C8F5803652E5950708F067C0C034A9
:1013500082E5D807B0F08C2F86958695877020E2BD
:10136000829FC0011124C37021E030E0A90102C0B6
:10137000440F551FCA95E2F7EA01C82BD92BDC6848
:10138000A4CFC03252E5D50708F041C08C2F869516
:10139000869520E2829FC0011124C37021E030E0D5
:1013A000A90102C0440F551FCA95E2F7EA01C82BF4
:1013B000D92BDD688ACF803C52E5950760F48F71A8
:1013C000C03AD24508F03FC090E0982F8827EC0142
:1013D000C46FD06A7ACF805C9245809708F07FCF47
:1013E000DC2FCC27CC27DF71C06FD06A6ECFA497DB
:1013F000D0646BCFC85AD0E0CC0FDD1FCE53DE4F88
:101400000990D881C02DD46460CFD0655ECFCF71F4
:10141000D0E0DC2FCC27C16FD06A57CF8695869558
:10142000877020E2829FC0011124C37021E030E068
:10143000A90102C0440F551FCA95E2F7EA01C82B63
:10144000D92BDA6842CF0E94F108C82FD0E0DC2FF8
:10145000CC27CC27DF71D06238CF8F710E94F10882
:1014600065E0D695C7956A95E1F7CF70D0E0DC2F9F
:10147000CC27282F30E084FF05C054E0220F331F13
:101480005A95E1F7C22BD32BD0691FCF8D2F8F71C7
:101490000E94F108182FCE0199270E944D08212F94
:1014A00030E0322F222722273F71282B392BE901E8
:1014B000D2CF80E00895F894E82FE295EF70F0E045
:1014C00041A18F7021E030E0B90102C0660F771FA3
:1014D0008A95E2F7CB01962F9095942391A392A140
:1014E000892B82A3789408950895A0E0B0E0EBE7FB
:1014F000FAE00C946635E901E42FF0E0EE5DF34F7D
:1015000061110BC0E4919E2F8E2F8983E8839A830B
:10151000CDB7DEB7EAE00C948235282F30E0062FF5
:1015200010E0F491EF2F86E0829F6001839FD00C42
:101530001124EE24EA94F12CC601B7010E944A3529
:10154000220F331F45E5469FC001479F900D112490
:10155000281B390B822F880F280FC701801B910B86
:10156000F89FA001F99F500D1124952F209F500145
:10157000219FB00C1124AB2CBB24D701AA19BB09A5
:101580005D01FA9DD001FB9DB00D11248B2F5701F9
:10159000A21AB1089501209F5001219FB00C309FE5
:1015A000B00C1124AB2CBB24EA18FB08FE9D900163
:1015B000FF9D300D112463307105C9F01CEFC11679
:1015C00013E0D10650F46130710509F49ECF62300A
:1015D000710589F08E2FE32F98CF6430710571F07B
:1015E00066307105B9F3E52F9B2F8F2F8ECFEB2F30
:1015F000852F9F2F8ACF852F932F87CF832FE52F7E
:10160000F8CF8091EA05843060F483708460809321
:10161000EA058091ED05853618F084E68093ED05A6
:1016200008958836B0F383708466F1CFE7EEF5E075
:1016300011828281846082830895FA01882311F0E7
:1016400009950895FB01FCCFFC01680F791F8FEF0E
:1016500091E3E617F70709F408952191822728E01E
:1016600030E087FF08C0880F8927215031092115F4
:101670003105B9F7EECF880FF8CF80916005882348
:1016800059F0E0918405F0918505309729F001909B
:10169000F081E02D0995089580E008950E943D0BAA
:1016A0000895A3E0B0E0E7E5FBE00C946E359C0103
:1016B00080914A0290914B0282179307A1F03093D8
:1016C0004B0220934A02E0918405F0918505309702
:1016D00051F083E089833B832A830084F185E02DE8
:1016E000CE01019609952396E2E00C948A35A3E099
:1016F000B0E0EDE7FBE00C946E359C018091480270
:101700009091490282179307A1F0309349022093E8
:101710004802E0918405F0918505309751F084E00E
:1017200089833B832A830084F185E02DCE010196D5
:1017300009952396E2E00C948A3590916C019923E7
:10174000C1F09091F80597FF14C0E82FE695E69553
:10175000E695803FF8F4F0E0EE5FFD4F877021E002
:1017600030E001C0220F8A95EAF78281822B8283C2
:101770000895ACEFB1E0EFEF90E02D91821751F0BA
:10178000EF3F19F4211101C0E92F9F5F9630A9F7AF
:10179000EF3F09F408950E2E000CFF0BE650FE4FAC
:1017A000E6CF90916C019923E1F09091F80597FFB5
:1017B00018C0E82FE695E695E695803FF0F4F0E056
:1017C000EE5FFD4F877021E030E0A90102C0440FB9
:1017D000551F8A95E2F7CA018095928189238283F9
:1017E0000895ECEFF1E09191891303C0DF011197A7
:1017F0001C9252E0E230F507B1F70895A4E0B0E0A2
:10180000E4E0FCE00C946E358FB7F894209144022C
:1018100030914502409146025091470229833A8314
:101820004B835C838FBF69817A818B819C812496F5
:10183000E2E00C948A35A4E0B0E0E1E2FCE00C9434
:101840006E3580916005882371F00E94FE0B6983DC
:101850007A838B839C8369817A818B819C81249696
:10186000E2E00C948A350E94FE0B69837A838B83B5
:101870009C8380915C0590915D05A0915E05B0917F
:101880005F0529813A814B815C81280F391F4A1FEE
:101890005B1F29833A834B835C83DDCF0E941B0C43
:1018A0000895A4E0B0E0E7E5FCE00C946C35462F29
:1018B000572FBC012FB7F8948091440290914502B4
:1018C000A0914602B09147022FBF8C019D01041BDD
:1018D000150B260B370BC901B8012496E4E00C94D4
:1018E000883587E797E7909301088093000888E19F
:1018F0009AE00FB6F894A895809360000FBE90937D
:101900006000FFCF8091430208950895FC019B0180
:101910008091390290913A028617970740F0672B21
:1019200029F48091E8008E778093E800C90140E0B7
:10193000009741F4411106C08091E80082FF2FC05A
:1019400080E00895209113052223A9F12530A9F103
:101950002091E80023FD2DC02091E80022FDECCF6E
:101960002091E80020FFE4CF3091F3002091F200B5
:10197000009719F02830310558F041E02830310542
:1019800009F040E02091E8002E772093E800D0CFC6
:1019900041914093F10001972F5F3F4FE9CF809134
:1019A0001305882341F0853041F08091E80083FFE2
:1019B000C3CF81E0089582E0089583E00895809187
:1019C000330287FF13C08091E80082FF06C0809138
:1019D000E8008B778093E80004C0809113058111A3
:1019E000F2CF0895809113058823D9F38091E80000
:1019F00080FFF8CF8091E8008E77ECCF2091E40053
:101A00003091E50095E6A9018091EC008170882372
:101A100031F08091E80080FF06C080E008952091B9
:101A2000E80022FD1BC080911305882391F08530CA
:101A300091F08091EB0085FD10C02091E400309181
:101A4000E5004217530701F391509111DCCF84E078
:101A5000089582E0089583E0089581E00895E8ED17
:101A6000F0E080818E7F80831092E2001092DA0095
:101A70001092E100A0EEB0E08C9181608C938081A7
:101A80008F77808319BCA7EDB0E08C918E7F8C930B
:101A900080818F7E80831092320208959091D904C4
:101AA000989FC0011124811522E0920714F080E074
:101AB00090E08D529D4F9093D2028093D102089571
:101AC000982FE42FE2709093E900891308C0762FD5
:101AD000242F50E0E11111C091E0980FF4CF7091E4
:101AE000EC002091ED005091F00021FD06C09F5FB9
:101AF000973049F78093E90008953091EB003E7FDD
:101B00003093EB003091ED003D7F3093ED0030914C
:101B1000EB0031603093EB007093EC002093ED000C
:101B20005093F0002091EE0027FDE1CF0895A0E052
:101B3000B0E0EDE9FDE00C946835C8EDD0E08881B7
:101B40008F7E8883E7EDF0E080818160808384E090
:101B500082BF81E08093320288818E7F888302EE8B
:101B600010E0F80110821092DA0081EEC82ED12C1C
:101B7000F601108288818F778883888180688883C6
:101B800088818F7D888319BC1092130510923102D1
:101B90001092DF041092300290EEE92EF12CF70142
:101BA00080818B7F808388818160888342E060E0D0
:101BB00080E00E94600DF60180818E7F8083F801B5
:101BC000808181608083808188608083F70180814B
:101BD0008E7F8083888180618883CDB7DEB7E8E01F
:101BE0000C948435E091FC059091FB0527E0E91306
:101BF00002C080E00895AE2FB0E02E9FF0011124C6
:101C0000E350FA4F3181361306C03081381303C0D8
:101C10003581341304C0FD013196E770E8CF81E0CF
:101C20000895409114018091EA0580FF24C020911D
:101C3000130130E0C901880F991F820F931F875845
:101C40009D4F539A6BB1677F7BB17860EFB7F89483
:101C500050E09A01220F331F240F351F280F391F20
:101C600028173907E9F4EFBF8FE594E00197F1F702
:101C700000C0000008958091150190911601282F51
:101C800030E0F901EE0FFF1FE20FF31FE758FD4FA1
:101C9000891768F61182108212828F5F3396F8CF0F
:101CA000DC014D91CD0158E07BB9000000C047FF39
:101CB0006BB9440F000000C000C000C06BB900C089
:101CC0005A9591F7CDCF0F931F93CF93DF93EC01EC
:101CD00000E010E040911701842F90E008171907E9
:101CE0006CF00E94110E8C8190E001968170992712
:101CF0008C83DF91CF911F910F91089580911501F1
:101D0000800F912F911D9C01220F331F280F391F27
:101D100027583D4F9C816091EC058091EB054695DD
:101D200050E00417150764F4992361F04091ED0524
:101D3000453608F044E60E94750A0F5F1F4FCACF70
:101D40009923A1F340E0F7CFEF92FF921F93CF9337
:101D5000DF93EC0110E0EE24EA94F12C609117017E
:101D6000161770F00E94110E9A818C8190FF28C086
:101D70008F5F8C83DF91CF911F91FF90EF9008953B
:101D800080911501810F9927991F9C01220F331F04
:101D9000280F391F27583D4F4091ED05453608F073
:101DA00044E670E0C7010E94A135962F8C816091B6
:101DB000EC05199F800D11240E94750A1F5FCECF7C
:101DC0008150D7CFEAEEF5E080818E7F80830E943C
:101DD000160BE7EEF5E08281816082830E94110E8E
:101DE00008959091EA0590FF11C0909115015091CE
:101DF0001601292F30E0F901EE0FFF1FE20FF31F4C
:101E0000E758FD4F951718F00E94110E0895818331
:101E1000608342839F5F3396F5CFA3E0B0E0E3E1B8
:101E2000FFE00C946E359091EA0590FF0DC04536A9
:101E300008F044E69E012F5F3F4F0E94750A4B81D8
:101E400069818A810E94F10E2396E2E00C948A3522
:101E5000CF93DF93EC01EC81F0E0E35EF44F44912B
:101E6000EAEEF5E0628181810E940D0F8C818F5F27
:101E70008C83DF91CF910895CF93DF93EC01EAEE4D
:101E8000F5E0438162818C810E940D0F8C818F5F10
:101E90008C83DF91CF9108950F931F93CF93DF939E
:101EA000EB018A0190911305943079F58093E90054
:101EB0008FEF9091E80095FD07C095ED9A95F1F7A9
:101EC000000081508111F5CF8091E80085FF1DC091
:101ED0000E94FE0C811114C08091E80085FD06C0AF
:101EE0008091E8008E778093E800F2CF888180931C
:101EF000F100015011090115110511F02196ECCFE7
:101F00008091E8008E778093E800DF91CF911F9158
:101F10000F910895CF93DF93D82FC92F48E050E059
:101F2000682F792F81E00E944C0F88E0ED2FFC2F65
:101F3000ABE3B2E001900D928A95E1F7DF91CF918A
:101F40000895BC0140E250E084E00E944C0F0895E7
:101F5000BC0143E050E084E00E944C0F0895A0E0F3
:101F6000B0E0E5EBFFE00C946635F82EE92EB62ED6
:101F7000A72E8A0180912E02CC24C394D12C8A30C2
:101F800018F48AE0C82ED12CC1E0D0E06B2D7A2D58
:101F90008F2D9E2DF8010995811116C02196CC1622
:101FA000DD0694F0CC9FC001CD9F900D900D1124C3
:101FB00020E030E045E34A95F1F700002F5F3F4F06
:101FC00028173907B9F7E2CFCDB7DEB7EAE00C94AE
:101FD00082359091F90592FB222720F9281779F094
:101FE00080FB92F99093F9056091F8057091F905DD
:101FF00084E090E00E94C93682E00E9407080895BC
:102000001F93CF93DF93962F122F632F8430D8F432
:102010009C30C8F44730B8F4C42FD0E0CC0FDD1F9B
:102020002EE0929FC00DD11D112498EA899FC00D0A
:10203000D11D1124CE0189960E94AB36612FCE01AD
:102040008A960E94AB36DF91CF911F9108951F931E
:10205000CF93DF93962F122F632F8430D0F49230DA
:10206000C0F428E0829FE001112424E0929FC00187
:102070001124C80FD91FC753DD4FCE01442369F087
:102080000E94AB3681E090E0612F8C0F9D1F0E9473
:10209000AB36DF91CF911F91089502960E94AB3627
:1020A00083E090E0F1CF8F929F92BF92CF92DF9228
:1020B000EF92FF920F931F93CF93DF930AEF14E0F9
:1020C000E12CF12CC0E04701D0E015C0F6012591CC
:1020D00034914B2D6D2F8C2F0E94001022E0C20EE8
:1020E000D11CB39437E0B312F1CF87E0880E911C76
:1020F000DF5FDC3049F0C401880F991F9C01265A2C
:102100003D4F6901B12CE2CFF8012591349141E0B6
:1021100060E08C2F0E942710F801329625913491AF
:1021200040E060E08C2F0E942710F8013496259142
:10213000349141E061E08C2F0E942710F80136961F
:102140002591349140E061E08C2F0E942710085FB8
:102150001F4FCF5F34E5E30EF11CC43009F0B3CF5D
:10216000DF91CF911F910F91FF90EF90DF90CF9073
:10217000BF909F908F900895CF93DF93C9EED2E0E8
:1021800060E0CE010E94AB362196C11584E0D807ED
:10219000B9F7DF91CF910895CF93882391F064E24E
:1021A00085E290E00E94AB36C4E268E086E290E00F
:1021B0000E94AB366C2F87E290E00E94AB36CF9145
:1021C00008956FEF85E290E00E94AB36CFEF6FEF9E
:1021D000EDCF80E00E94CC1060E088E290E00E94A9
:1021E000AB360E9453100E94BC1081E00E94CC10BC
:1021F00008950F931F93CF93DF93843030F56C30A5
:1022000020F5473010F5C42FD0E0CC0FDD1F2EE0B5
:10221000629FC00DD11D112438EA839FC00DD11DCE
:102220001124CE0189960E948736082F10E0102FC6
:102230000027CE018A960E9487369801282BC90173
:10224000DF91CF911F910F91089580E090E0F8CF3A
:102250000F931F93CF93DF93843078F5623068F546
:1022600028E0829F8001112434E0639FB001112493
:10227000060F171F07531D4FC8014423A1F00E94EA
:102280008736C82FD0E0DC2FCC2781E090E0800F8C
:10229000911F0E9487369E01282BC901DF91CF91A3
:1022A0001F910F91089502960E948736C82FD0E0A3
:1022B000DC2FCC2783E090E0EACF80E090E0EECF07
:1022C0007C3048F4673070F4843060F4462F672F18
:1022D0000E94F91008957D3F41F4623018F441E006
:1022E000843050F080E090E008957C3FD9F7623070
:1022F000C8F78430B8F740E00E9428110895A0E0A4
:10230000B0E0E5E8F1E10C9469357C010091F60557
:102310008091F505082BC3E0D0E010E0C8010C2E39
:1023200002C0959587950A94E2F780FD09C0219730
:10233000A8F7D12C8D2DCDB7DEB7E7E00C9485350D
:10234000DC2EB7018C2F0E9460110E94400901977A
:1023500071F3F0CF0F931F93CF93FC018581008120
:102360001181882391F0662381F0C8010E947F11BA
:10237000C82F682FC8010E94A907B8018C2F0E949E
:102380006011CF911F910F910895C8010E94C3075A
:10239000C82FF3CFCF93DF93D82FC92F0E947F117F
:1023A0006D2F7C2F0E9460110E944009DF91CF9118
:1023B0000895FC0184818823A1F0808191810E948D
:1023C000CA11282F92959F70963091F060F4925F19
:1023D0009F70923030F481E0203F79F030F4283E55
:1023E00030F080E004C09A5FF3CF243FD1F7089526
:1023F00081E0283E18F0213FF9CF0895089585E245
:1024000090E00E948736843289F486E290E00E9450
:102410008736883059F487E290E00E94873691E051
:10242000843209F090E0892F8170089580E0FCCF1C
:1024300080916C01882359F18091F80587FF27C0AE
:102440000E941F088093030240E250E064E675E0BA
:1024500082E092E00E947136892BC1F080E2E2E0D6
:10246000F2E0A4E6B5E001900D928A95E1F7E091E3
:102470008405F0918505309749F086E0809302024B
:102480000480F581E02D82E092E0099508950E9494
:102490001F088093FA0148E050E066E875E08AEF93
:1024A00091E00E947136892B89F388E0EAEFF1E030
:1024B000A6E8B5E001900D928A95E1F7E0918405D8
:1024C000F0918505309711F30280F381E02D8AEFBA
:1024D00091E0DBCFCF93C82F8823C9F08238C9F4AD
:1024E0000E944E0B81FD13C089E30E949D0B0E9448
:1024F00018122FEF37EE83E0215030408040E1F793
:1025000000C0000089E30E94D10B0E941812CF91F5
:1025100008958338A1F40E944E0B80FDF8CF83E527
:102520000E949D0B0E9418129FEF21EE34E0915003
:1025300020403040E1F700C0000083E5E4CF84385C
:10254000A1F40E944E0B82FDE2CF87E40E949D0B16
:102550000E9418128FEF91EE24E0815090402040AD
:10256000E1F700C0000087E4CECF8CEF8C0F813AFA
:1025700088F580916C01882301F18091F80587FF2F
:102580001CC0EC2FE695E695E695F0E0EE5FFD4F7A
:10259000828190E04C2F477021E030E002C0220F92
:1025A000331F4A95E2F782239323892B79F08C2FEE
:1025B0000E94D10B0E94181209C0ECEFF1E081914A
:1025C000C817A9F332E0E230F307C9F78C2F0E9455
:1025D0009D0B9BCF80E28C0F883068F4C77081E040
:1025E00090E001C0880FCA95EAF7C091F205C82BA8
:1025F000C093F2058ACF8BE58C0F833038F42C2FF3
:102600002452330BC9010E94510B81CFC85ACB31E0
:1026100008F07DCFEC2FF0E0EE0FFF1FEE53FE4FE2
:10262000808191810E94770B72CF882309F44DC07D
:10263000823879F40E944E0B81FF47C089E30E94E3
:102640009D0B0E94181289E30E94D10B0E94181260
:102650000895833859F40E944E0B80FF36C083E5FD
:102660000E949D0B0E94181283E5EECF843859F426
:102670000E944E0B82FF29C087E40E949D0B0E949E
:10268000181287E4E1CF9CEF980F913AE8F290E2BC
:10269000980F983050F4877091E001C0990F8A9597
:1026A000EAF7892F0E944508D1CF9BE5980F933018
:1026B00028F480E090E00E94510B0895885A8B31F5
:1026C00020F480E090E00E94770B0895CF93C82F0C
:1026D000893399F489E30E946A1280E590E0EFE97A
:1026E000FFE03197F1F700C0000001970097B9F7BC
:1026F0008C2F0E941513CF9108950E946A128AE0D0
:1027000090E0EDCF882339F09091F205892B8093EA
:10271000F2050E9418120895882321F00E944508AE
:102720000E94181208951092F20580916C0188237E
:10273000C1F08091F80587FF14C0E4E0F2E08EE17B
:10274000DF011D928A95E9F780E090E00E94510B2D
:1027500080E090E00E94770B1092FA050E94181218
:102760000895ECEFF1E086E0EBCF0E9493132FEF9A
:1027700084E39CE0215080409040E1F700C00000DD
:1027800088E19AE00FB6F894A895809360000FBE98
:1027900090936000FFCFAAE2B0E0E1EDF3E10C948A
:1027A0006D3583E392E0FC0101962091F1002083D6
:1027B00022E08B339207B9F780913402893009F413
:1027C00056C0C8F4823009F4B3C0833009F482C023
:1027D000813071F18091E80083FFE7C0809133027E
:1027E000909134029A3008F0E0C0E92FF0E0EF5108
:1027F000F94C0C94F6358A3009F489C08B3051F7C6
:1028000080913302813231F7809137029091380202
:10281000892B01F78091E800877F8093E8000E9470
:10282000DF0C8091350280936C010E949313D2CF0C
:1028300080913302813A71F68091E800877F80931E
:10284000E8008091370290913802892B61F060E0B6
:1028500080E090E070E00E94860C8091E8008B7729
:102860008093E800B7CF68E08BE392E0F3CF8091EC
:102870003302813209F0AECF809137029091380255
:102880008D7F892B09F0A6CF8091E800877F809308
:10289000E8008091E80082FF18C09091F3008091D9
:1028A000F200029731F48091F100813011F086300E
:1028B00021F48091F100809343028091E8008B77AE
:1028C0008093E8000E94DF0C85CF80911305811171
:1028D000E0CF80CF80913302813A09F07BCF8091A5
:1028E000370290913802892B09F074CF8091E8006B
:1028F000877F8093E8008091E80080FFFCCF809183
:102900006C018093F1008091E8008E77D9CF80919F
:102910003302813209F05ECF8091E800877F809397
:10292000E8000E94DF0C8091360280932F0252CF84
:1029300080913302813A09F04DCF8091E800877F82
:102940008093E8008091E80080FFFCCF80912F0207
:10295000D8CF803889F0823841F5809137028F7066
:10296000873018F58093E9008091EB0085FB88277C
:1029700080F91092E90006C0809130029091DF0446
:10298000911182609091E800977F9093E800809386
:10299000F1001092F1008091E8008E7723C0811140
:1029A00016C080913502813011F18091E80083FFDB
:1029B0000AC08091E800877F8093E8008091EB0057
:1029C00080628093EB00AA96E3E00C948935823014
:1029D00061F780913502882389F01092E900809197
:1029E000E800877F8093E8000E94DF0CDECF81E063
:1029F000933009F080E08093DF04EFCF80913702BD
:102A00008F702FEF280F263080F68093E9002091F9
:102A1000EB0020FFE2CF933031F48091EB00806235
:102A20008093EB00DACF9091EB0090619093EB00F4
:102A300021E030E0A90102C0440F551F8A95E2F75A
:102A40004093EA001092EA008091EB008860E8CFA2
:102A50008111ABCF109135021F778091E300807810
:102A6000812B8093E3008091E800877F8093E800CA
:102A70000E94DF0C8091E80080FFFCCF8091E30092
:102A800080688093E30083E0111101C082E08093AD
:102A900013058BCF8058823008F087CF40913502E4
:102AA000509136024C3D83E0580799F583E08A83C4
:102AB0008AE289834FB7F894DE01139620E03EE066
:102AC00051E2E32FF0E050935700849120FF03C0C0
:102AD00082958F703F5F8F708A30C8F0895C90E07C
:102AE0008D939D932F5F243161F74FBF8091E80054
:102AF000877F8093E8006AE270E0CE0101960E9431
:102B0000860C8091E8008B778093E8004ECF805D43
:102B1000E6CF8091370290913802252F332723305A
:102B2000310509F44AC078F52130310509F479C03E
:102B30008BE590E0E3E8F1E02230310509F035CF94
:102B40002091E800277F2093E800209139023091FE
:102B50003A028217930708F49C0140E021153105E1
:102B600009F064C0411162C08091E80082FDC9CFC4
:102B700080911305882329F2853019F28091E800AD
:102B800083FFF2CFBECF2132310509F43BC02232A0
:102B9000310509F00ACF8330910508F006CFFC011A
:102BA000EE0FFF1FEB58FE4F0190F081E02D8E5885
:102BB0009E4FDC018C9190E011C0CA0199274130F1
:102BC00089F082309105B1F0892B09F0EECEE6E56F
:102BD000F2E0E4918E2F90E0E6E5F2E0009709F450
:102BE000E4CEAECFECE2F2E0E4918E2F90E0ECE2A6
:102BF000F2E0F4CFE0EFF1E0E4918E2F90E0E0EF2F
:102C0000F1E0ECCF8330910508F0CFCEFC01EE0F60
:102C1000FF1FE558FE4F0190F081E02D89E090E024
:102C20008FCF82E190E0EEEDF1E08ACF8091130545
:102C3000882309F466CF853009F463CF8091E800DA
:102C400083FD5FCF8091E80082FD8ECF8091E80008
:102C500080FF84CF9091F3008091F200211531051F
:102C600019F08830910550F041E0089709F040E0F4
:102C70008091E8008E778093E80070CF4491409374
:102C8000F1003196215031090196E8CF803809F0E2
:102C90008CCE8091E800877F8093E800809131029C
:102CA0008093F10078CE811180CE109135021230E0
:102CB00008F07BCE8091E800877F8093E800109336
:102CC00031020E94DF0C1123D1F084E080931305C0
:102CD00042E061EC81E00E94600D42E261EC84E040
:102CE0000E94600D42E261EC82E00E94600D42E2CF
:102CF00060EC83E00E94600D8091130556CE8091B8
:102D0000E30087FDE2CF81E0E1CFA0E0B0E0EBE8B7
:102D1000F6E10C9468358901D42FC52F6B017C0135
:102D20000E94010BA8016D2F7C2F88E090E00E948B
:102D3000BD3698014D2F5C2FB601C70100E20E94FD
:102D40003136622F84E290E00E94AB36CDB7DEB719
:102D5000E8E00C948435EAEEF5E089E080831182A6
:102D60008FEF828384E683831482A7EEB5E0129608
:102D70008C911297836012968C93758129E030E0D4
:102D80004FEF54E660E0868197810E948516089592
:102D90008091EE05833018F48F5F8093EE052091CB
:102DA000EA053091EB054091EC055091ED056091FD
:102DB000EE057091EF058091F0059091F1050E946C
:102DC000851608958091EE05882319F0815080932F
:102DD000EE052091EA053091EB054091EC0550910C
:102DE000ED056091EE057091EF058091F0059091F1
:102DF000F1050E9485160895A3E0B0E0E2E0F7E156
:102E00000C946635E82ED62EF42EB22E9091EA055B
:102E100090FF46C03091EB05381308C08091EC0557
:102E2000861304C08091ED05841729F08091E9058F
:102E300082608093E905E92FE695E695AE2FB0E034
:102E4000A757BE4F8C918093E7059C7F943061F526
:102E50004F2D84E68F1508F444E69E012F5F3F4F07
:102E60006D2D8E2D0E94750A4B8169818A810E9489
:102E7000F10E3E2D3093EB05D092EC05F092ED056E
:102E8000BB2071F02091EA056091EE057091EF058D
:102E90004D2D5F2D8091F0059091F1050E948516D2
:102EA0002396EAE00C948235823019F4F090ED0517
:102EB000E0CF8630F9F28930E9F28F30D1F6EF5069
:102EC0009E2F9170A92EE695F0E0E35EF34FE4911A
:102ED000C12C0E2F10E060911701C61618F00E9449
:102EE000110EC7CF2C2D30E0C09EC001C19E900DA9
:102EF000112470E00E944A358E2DA11017C0860F54
:102F000090911501A901490F511D9A01220F331FFC
:102F1000240F351F27583D4F4F2D94E69F1508F479
:102F200044E66D2D0E94750AC394D5CF861BE8CF69
:102F3000EAEEF5E0818121E043816281865F0E94B3
:102F4000FC160895EAEEF5E0818121E0438162817B
:102F50008A500E94FC160895EAEEF5E0628121E1B4
:102F6000620F08F46FEF21E0438181810E94FC161B
:102F70000895EAEEF5E0628121E1621B08F460E069
:102F800021E0438181810E94FC160895EAEEF5E07C
:102F9000438121E1420F08F44FEF21E062818181FA
:102FA0000E94FC160895EAEEF5E0438121E1421B00
:102FB00008F440E021E0628181810E94FC160895BE
:102FC000A8E0B0E0E6EEF7E10C946E3566EE7EEF39
:102FD00080E090E00E94C93660E082E090E00E94CC
:102FE000AB3681E08093F50561E083E090E00E94DC
:102FF000AB3660E074E184E090E00E94C93660E0A6
:1030000086E090E00E94AB366FEF87E090E00E9490
:10301000AB3640E050E0BA0188E090E00E94BD3657
:1030200060E084E290E00E94AB3660E087E190E0EF
:103030000E94AB3660E08CE090E00E94AB3660E02E
:103040008DE090E00E94AB3619821A821B821C82AE
:103050001D821E821F82188648E050E068E170E001
:10306000CE0101960E949B3640E050E0BA0180E21A
:1030700090E00E94BD3680E00E94CC100E94E910D2
:1030800040E050E0BA018FE090E00E94BD3640E0A1
:1030900050E0BA0183E190E00E94BD362896E2E05C
:1030A0000C948A35A0E0B0E0E8E5F8E10C946835CE
:1030B000FA0169017801C82F880FDD0B3097B1F054
:1030C000DE0193E0AA0FBB1F9A95E1F7AC5DBE4FFE
:1030D00011968D919C911297845C9A4F4C9150E07F
:1030E000E417F50708F4AF010E947E36CE010E9476
:1030F000D534182F8823D1F0E114F104B9F083E01E
:10310000CC0FDD1F8A95E1F7FE01EC5DFE4F438198
:1031100050E0E416F50608F4A701CC5DDE4F6C81A3
:103120007D81645C7A4FC6010E947E36812FCDB7C7
:10313000DEB7E8E00C948435A5E0B0E0E2EAF8E11F
:103140000C946235762E6A014901580101E010E0C5
:103150009E012F5F3F4F40E050E060E070E00E9432
:103160005218182F8823B9F1D6018D919D910D9099
:10317000BC91A02DBC01CD010E94510C6980643628
:1031800071058105910530F4B701C5010E94240B3A
:10319000861509F18701940140E050E060E070E09D
:1031A000872D0E945218182FB701C5010E94240BC9
:1031B000861531F010E0812F2596EEE00C947E35D7
:1031C00011701123C1F30E94FE0BF601608371831D
:1031D00082839383F0CFA701B501C4010E947E369C
:1031E000EACFA6E0B0E0E7EFF8E10C9468356B01B8
:1031F00086E0E82EF12C0DE315E09E012F5F3F4F96
:1032000048E355E061E080E00E949C18882349F083
:1032100096E0FE013196A2E3B5E001900D929A95F9
:10322000E1F796E0E2E3F5E0D60101900D929A9580
:10323000E1F72696E8E00C948435AAE0B0E0E3E2FA
:10324000F9E10C946635F82E6D837E83A42ED22E80
:10325000E32EB02EC12EAD81BE818D919D910D903A
:10326000BC91A02DBC01CD010E94510C64367105AA
:103270008105910510F4AA20A9F000E010E020E0FB
:1032800030E04B2D5C2D6D2D7E2D8F2D0E94521820
:10329000882349F00E94FE0BED81FE8160837183DB
:1032A0008283938381E02A96EAE00C9482350F931F
:1032B0001F93CF93DF93D82FC92F46E050E063E4EC
:1032C00075E00E94713641E0892B09F440E006E088
:1032D00010E02D2F3C2F6EE275E082E00E941D1958
:1032E000DF91CF911F910F910895ABE0B0E0EBE734
:1032F000F9E10C946C3528E0EAEEF5E0CE01019698
:10330000DC0101900D922A95E1F73091E7052091BB
:10331000E8055091E90539872A875B8741E09C01E0
:10332000511101C040E00BE010E06EE175E086E075
:103330000E941D1981111092E9052B96E4E00C946E
:103340008835A1E0B0E0E7EAF9E10C946C358091B2
:103350001905898341E090915A05981301C040E016
:1033600001E010E09E012F5F3F4F6AE175E087E0CA
:103370000E941D192196E4E00C948835A1E0B0E08C
:10338000E4ECF9E10C946C3580911405898320916B
:103390005B0530E090E041E02817390709F440E090
:1033A00001E010E09E012F5F3F4F65E175E088E08E
:1033B0000E941D192196E4E00C948835A8E0B0E045
:1033C000E4EEF9E10C946C3580912205909123058F
:1033D000A0912405B0912505BC01CD010E94510C9E
:1033E00011E0643671058105910520F10E941B0CE6
:1033F000DC01CB010296A11DB11D89839A83AB83A9
:10340000BC8300E010E020E030E044E050E0BE018A
:103410006F5F7F4F85E00E945218182F882351F06C
:103420000E94FE0B60932205709323058093240570
:1034300090932505812F2896E4E00C948835A0E030
:10344000B0E0E5E2FAE10C9468357C016B0164E6DA
:1034500070E088E70E949632EC0197FD12C000E010
:1034600010E0F701E00FF11F849164E670E00E9424
:103470000533EC010F5F1F4FC016D10611F097FF07
:10348000F0CF0E94873381E0CD2B09F080E0CDB7EB
:10349000DEB7E8E00C9484358091D404882369F089
:1034A00080911405882349F062E070E081E891E0A2
:1034B0000E941F1A8111109214050895A4E0B0E033
:1034C000E4E6FAE10C946E358091D4048823F9F097
:1034D0000E94FE0BDC01CB018058974CAE4FBF4FD2
:1034E0008093D5049093D604A093D704B093D804C6
:1034F0008091140581110BC062E070E08FE791E0CC
:103500000E941F1A882319F081E0809314052496E5
:10351000E2E00C948A351F93CF93DF93982F162FF8
:1035200081E09A3019F09D3039F480E00E941C1B34
:10353000DF91CF911F910895C091D102D091D20215
:1035400086E0FE01A3E7B2E001900D928A95E1F7D3
:10355000903E90F186E0FE0111928A95E9F7C091C4
:10356000D102D091D202111133C046E050E0BE0129
:1035700083E792E00E9471369E01235D3240892BE1
:1035800091F52A5F3F4F4091D904642F70E0C90143
:103590000E944A35481B463010F4240F311D211576
:1035A00072E0370710F020E030E02D523D4F3093AD
:1035B000D2022093D102BCCFF6E09F9FB00111242C
:1035C00063527A4F46E050E0CE010E945B36C7CF8F
:1035D0009E012A5F3F4FFE012E173F0731F2808187
:1035E00080958193F9CFC90145E0969587954A95D5
:1035F000E1F741E050E0BA0102C0660F771F8A95FB
:10360000E2F7CB016091CF027091D002862B972B0D
:10361000B9016B5F7F4FE5E076956795EA95E1F735
:1036200002C0440F551F6A95E2F7842B952B9093A7
:10363000D0028093CF02A5CFCF93382FE091D10253
:10364000F091D202E35DF2402091D904622F70E044
:10365000CF010E944A35281B822F332369F066E090
:103660000E949535C82FC15010F4CF91089560E0A5
:1036700080E20E948B1AF7CF9F01280F311D211580
:10368000324018F080E0E0E0F0E08E0F9F2F911DB7
:103690008D529D4F9093D2028093D102E6CF1F931B
:1036A000CF93DF93EC01162FFE018491811104C0AA
:1036B000DF91CF911F910895612F0E948B1A21965F
:1036C000F3CF0E944F1B81E00E941C1B08950F93B3
:1036D0001F93CF93DF93EC01FC0101900020E9F7E9
:1036E0008F0101501109C017D10728F0DF91CF9148
:1036F0001F910F91089560E089910E948B1AF3CF7A
:103700001F921FB61F9211248F939F93AF93BF9365
:103710008091DC04811113C0809144029091450294
:10372000A0914602B09147024196A11DB11D809320
:10373000440290934502A0934602B0934702BF9182
:10374000AF919F918F911F901FBE1F9018952FB71B
:10375000F8948091440290914502A0914602B09164
:1037600047022FBF089580916005882319F00E94B9
:10377000A71B08950E941B0CCB0108956091EA05D8
:103780006695669570E04BE050E088E091E00E941D
:103790006436892B19F481E08093E8050E94B31BFD
:1037A0009093FB048093FA048091E90584608093F0
:1037B000E90508959091EA0590FF42C0882309F435
:1037C00040C08A3108F03FC08F73282F220F220F8C
:1037D0008091EA058370282B2093EA058091E90502
:1037E00081608093E905662381F03091EB0540917B
:1037F000EC055091ED056091EE057091EF0580911B
:10380000F0059091F1050E9485166091EA05669594
:10381000669570E04BE050E088E091E00E946436ED
:10382000892B99F00E94160B81E08093FD0420E023
:103830004091ED056091EC058091EB050E94FC162E
:10384000089581E0C2CF89E1C0CF0E94BE1BECCFBA
:103850008091EA05869586958F5F8A3108F081E030
:1038600061E00E94DA1B08959091EA05969596957D
:103870008FEF890F913009F489E161E00E94DA1B32
:103880000895EAEEF5E080818160808360E08695AE
:1038900086950E94DA1B08959091EA0590FF09C071
:1038A00096959695981728F0961718F40E94281C5C
:1038B000089561E00E94DA1B08959C014FB7F894C7
:1038C0008091440290914502A0914602B091470236
:1038D0004FBF821B930B08952F923F925F926F927E
:1038E0007F928F929F92AF92BF92CF92DF92EF9290
:1038F000FF920F931F93CF93DF93CDB7DEB72A9735
:103900000FB6F894DEBF0FBECDBF8091D4048823DC
:1039100009F49FC080917102909172020E945D1C17
:10392000C29708F458C00E94A71B9093720280931C
:10393000710280E00E944E0D80916005882309F499
:10394000A8C060E084ED95E00E944F1B8091F505D2
:103950000E941E07882341F0813031F160E084EC41
:1039600095E00E944F1B05C060E08EEC95E00E9440
:10397000611B60E081EC95E00E944F1B60E08BEBE7
:1039800095E00E94611B8091F6050E941E0782301F
:1039900009F477C068F0833009F477C060E083EA07
:1039A00095E00E94611B09C060E088EC95E0DFCFE4
:1039B00060E085EB95E00E944F1B60E080EA95E0B7
:1039C0000E944F1B0E944E0B81FB662760F98AE91B
:1039D00095E00E94611B8091CF029091D002892BCB
:1039E000A9F08091D404882389F08091D3048111B7
:1039F0000DC00E945E1A2091CF023091D00280E06B
:103A000061E070E02115310509F03EC18091140597
:103A10008823F9F00E94FE0B69837A838B839C8351
:103A20008091D5049091D604A091D704B091D80488
:103A300029813A814B815C81281B390B4A0B5B0B36
:103A4000DA01C9018F3F9F4FAF4FBF4710F40E946B
:103A50004C1A2A960FB6F894DEBF0FBECDBFDF9189
:103A6000CF911F910F91FF90EF90DF90CF90BF907B
:103A7000AF909F908F907F906F905F903F902F902E
:103A8000089560E08FEA95E096CF60E089EA95E0DE
:103A900092CF83E00E944E0D8DE691E00E94671B5D
:103AA00087E00E944E0D2091D1023091D202C901CF
:103AB000835D9240235532402130324098F120E01E
:103AC00032E0281B390B4091CF025091D002FAE12D
:103AD000EF2EF5E0FF2EDC01AD52BD4FBC01620FB1
:103AE000731FCC24C394D12C86179707F0F0509302
:103AF000D0024093CF028DE00E944E0D60E087ED32
:103B000095E00E944F1B8091190590910001981338
:103B100029C090915002903229F58CE492E00E94E5
:103B2000671B59CF20E830E0CECFF70124913D91BB
:103B3000231799F08D0101501109F80120839C0190
:103B4000E5E036952795EA95E1F7460102C0880C35
:103B5000991C2A95E2F74829592901962FEFE21A74
:103B6000F20AC2CF8093000190E290935002882E17
:103B7000912CA12CB12C89829A82AB82BC821092AA
:103B80004F020FE412E08AE0C82ED12CE12CF12C78
:103B9000C501B401A70196010E94B5356D837E83EE
:103BA0008F839887862F805D8D809E80AF80B884BC
:103BB00089288A288B2809F05EC00EE412E08093E1
:103BC0004E0229833A834B835C8369817A818B819E
:103BD0009C81A70196010E94B5356D837E838F83FA
:103BE0009887862F805D2D813E814F815885232BBC
:103BF000242B252B09F042C041E050E05A87498729
:103C000080E289809A80AB80BC8089288A288B28B2
:103C100009F080E3BAE0CB2ED12CE12CF12CD801B5
:103C20008E938D0169817A818B819C81A701960198
:103C30000E94B53529833A834B835C83E985FA85F5
:103C40003196FA87E987339709F467CFCA01B9013A
:103C5000A70196010E94B5356D837E838F83988777
:103C6000862F805D8D809E80AF80B88489288A28C9
:103C70008B28A9F6C5CF1A861986CCCF21E030E073
:103C80003A872987C7CF8F5F082F10E01B01082EC6
:103C900002C0220C331C0A94E2F7A10142235323F1
:103CA000452B89F39091DA0490FD44C09801369534
:103CB000279536952795922F8295880F80763FE13C
:103CC000380F8093030120930601309304019093F1
:103CD000070124E630E047E050E061E071E088E76A
:103CE0000E943533892B09F091CEA801F5E0440FED
:103CF000551FFA95E1F78091DA0480FD23C04D52FB
:103D00005D4F04E610E020E230E060E488E70E94C6
:103D10005C33892B09F07ACE5101A094B094809144
:103D2000CF029091D002A822B922B092D002A092E4
:103D3000CF026CCE880F880F880F37E0380F20E055
:103D400093E0BFCFE1E5F2E080E2DF011D928A95CA
:103D5000E9F7E5E8F1E0FE83ED8301E811E079E8B9
:103D6000C72E71E0D72EE7E05E2E77247394AD81E5
:103D7000BE818D91BE83AD83F80121918F01240F07
:103D8000352F311D2D523D4FE82FF0E0EF5AFD4FFA
:103D900080E090E0652C681A872C082E01C0880C02
:103DA0000A94EAF77901A12CD701BD907D01B820D2
:103DB000662D6A19677070E0BB2D062E01C0BB0F1F
:103DC0000A94EAF79B2E71956195710967707727C0
:103DD00001C0B6946A95EAF79B286081962A908282
:103DE000A39468E0962EA910DFCF01963196883013
:103DF000910581F6AD80BE80CA14DB0409F0B7CF0F
:103E000004E610E020E230E041E552E07ECF0F937F
:103E10001F93CF93DF93C62FD42F122F8823A9F09F
:103E20006093E5050E94A71B90932D0280932C02BE
:103E3000C77081E001C0880FCA95EAF70E9482131B
:103E4000DF91CF911F910F9108958091E50568133F
:103E500032C080912C0290912D020E945D1C883707
:103E6000910548F5CD130CC0812F0E946613D770C1
:103E700081E001C0880FDA95EAF70E948C13E0CF49
:103E8000C77001E0802F01C0880FCA95EAF70E9431
:103E90008C1380E28D0F883050F48D2F877001C015
:103EA000000F8A95EAF7802F0E948213DDCF812FC1
:103EB0000E946613C5CFC77081E001C0880FCA9504
:103EC000EAF7DBCFA8E0B0E0E8E6FFE10C9462356A
:103ED0006C01DC0114968C91882309F4E4C061E044
:103EE000C6010E94AA118C01F6018581882309F47C
:103EF0007FC198013A9521153F4408F08DC0980183
:103F00003327A901445051094432510528F02B525E
:103F100031092E30310588F4E091E405F0E0EE0F30
:103F2000FF1FEE54FA4F208131812F3F4FE73407B6
:103F300021F02F5F3F4F318320839801375720387E
:103F4000310508F06EC1003108F09DC08FEF93E09D
:103F50000E948736811197C059EEE52E52E0F52E6A
:103F6000011161C01A821982FE01339686E0DF01D9
:103F70001D928A95E9F74AE0642E5701BFEFAB1A0C
:103F8000BB0AC7010E94873689831A82882309F4F5
:103F90007AC0813009F08BC087010E5F1F4FC501C9
:103FA0000E9487368A83882309F46DC09FEF980F9B
:103FB000933008F046C0E3E0EE0EF11CC8010E9409
:103FC00087368B83882309F45EC01C828E010F5FC5
:103FD0001F4FD8018C91882381F2813009F0A9C04C
:103FE00011968C911197813009F063C05801B2E0AD
:103FF000AB0EB11CF80182810E94661385010F5F30
:104000001F4F8AE0AFE9BFE01197F1F700C0000051
:1040100081508111F7CFDDCF0F3F110511F008F06E
:104020008CCF98016ECFE11484E0F80661F1C701EE
:104030000E948736D70111967D018111F4CF01507E
:104040008FCF8430B9F432E0E32EF12CC8010F5F3A
:104050001F4F0E948736E1E0F0E0EC0FFD1FEE0DF0
:10406000FF1D8083882379F08C3731F4FE01EE0D3B
:10407000FF1D12827801AACFFFEFEF1AFF0A27E097
:10408000E216F10419F78091F7058770882359F03B
:10409000F6018581882339F08091F90582FF03C0FC
:1040A00082E00E9407082896EEE00C947E357501A8
:1040B0008DCF823049F45801F2E0AF0EB11C129658
:1040C0008C910E946A129ACF833049F45801B2E071
:1040D000AB0EB11CF80182810E9415138FCF843082
:1040E00019F00F5F1F4F8BCF12962C910E5F1F4F51
:1040F00080E090E0A8014F5F5F4F2053330B2A30E0
:10410000310558F0009709F47ACFAFE9BFE0119775
:10411000F1F700C000000197F5CF689EB001699EDD
:10412000700D1124C901860F971FF80121818A01A2
:10413000E1CFE82FF0E0E258F24F7490282F269557
:104140002695269530E0F901E259F24F9491877057
:10415000F901E25AF24FA490B12C082E02C0B59496
:10416000A7940A94E2F7B1E0AB22BB24F901E25B29
:10417000F24F8490912C082E02C0959487940A9453
:10418000E2F7E1E08E229924292F30E002C0359534
:1041900027958A95E2F720FF0AC081EE0E946A12F5
:1041A000AB28E1F4872D0E94661381EE14C0AB2882
:1041B00059F4872D0E9466138114910409F41FCFCE
:1041C0008CE20E9466131BCF86EE0E946A12872D36
:1041D0000E94661386EE0E941513EECF86EE0E94B3
:1041E0006A12872D0E94661386EE0E941513DDCF9A
:1041F0000034BEE71B0708F046CFF801E851FC4742
:10420000E730F10508F47FC406312CE7120709F006
:1042100036C18091E605811130C189E20E94D10B3F
:1042200058C00034EEE71E0708F466C40134FEE708
:104230001F0709F028CF8091F5050E941E0790E026
:1042400001968170992701E010E002C0000F111F54
:104250008A95E2F7602F83E090E00E94AB36802FD2
:104260000E94300710CF26E241EE61EE0E94071F48
:104270000ACF27E245EE65EEF9CF26E241EE60EE89
:10428000F5CF27E245EE64EEF1CF26E241EE62EE95
:10429000EDCF27E245EE66EEE9CF28E241E0EBCF35
:1042A0001092E505C80190578397B0F006313CE7BE
:1042B000130709F062C18091F2058A7A91E08111B9
:1042C00001C090E09093E6058111D5C089E20E947B
:1042D0009D0B0E941812D7CE84E090E00E94953684
:1042E0009093F9058093F805F801E150F047E23228
:1042F000F10520F4E551F94C0C94F6358091F80560
:1043000081608093F8056091F8057091F90584E06B
:1043100090E00E94C9360E949313B5CE8091F905B2
:1043200088608093F905EFCF8091F8058260E9CF2E
:104330008091F8058460E5CF8091F8058860E1CF31
:104340008091F9058160EDCF8091F9058260E9CF18
:104350008091F8058061D5CF8091F8058062D1CF3A
:104360008091F8058064CDCF0E9493138091F80569
:104370008068C7CF8091F8058C60C3CF8091F90524
:104380008360CFCF8091F8058E7FBBCF8091F905F8
:10439000877FC7CF8091F8058D7FB3CF8091F805D7
:1043A0008B7FAFCF8091F805877FABCF8091F905E8
:1043B0008E7FB7CF8091F9058D7FB3CF8091F805BF
:1043C0008F7E9FCF8091F8058F7D9BCF8091F805E0
:1043D0008F7B97CF0E9493138091F8058F7791CFB1
:1043E0008091F805837F8DCF8091F9058C7F99CFDF
:1043F0008091F80582FB992790F921E0922790FBA4
:1044000082F990FB83F97DCF8091F905982F9095E3
:1044100091708E7F892B90FB81F983CF9091F80565
:10442000892F8F7B96FF80646CCF0E9493139091AD
:10443000F805892F97FB87F9805863CF61E08EE0FC
:1044400090E00E94AB365FCF60E0F9CF9091F80525
:10445000892F8F7E94FF806154CF9091F805892F2A
:104460008E7F90FF81604DCF9091F905892F877FD6
:1044700093FF886056CF85E32ACF85E3CFCE809126
:10448000F2058272F801E052F847E531F10508F0D3
:104490009FC0E35FF84C0C94F6358091EA0580FFED
:1044A0001EC0282F2E7F2093EA053091EB05409106
:1044B000EC055091ED056091EE057091EF0580914E
:1044C000F0059091F1050E9485160E94160B8091CF
:1044D000E90581608093E9050E94110ED4CD8160C9
:1044E0008093EA0561E0869586950E94DA1BCBCD24
:1044F00044E35CE168E27CE10E941D0BC4CD48E22C
:104500005CE164E37CE1F8CF42EA57E168E977E1F6
:10451000F3CF48E957E162EA77E1EECF49EB57E1A3
:104520006CEA77E1E9CF4CEA57E169EB77E1E4CF58
:1045300043ED57E166EC77E1DFCF46EC57E163ED01
:1045400077E1DACF42EE56E168EC76E1D5CF48EC80
:1045500056E162EE76E1D0CF61E081E0C6CF65E062
:1045600082E00E944C1C8FCD68E086E0FACF6EE0BE
:1045700089E0F7CF68E18FE0F4CF07374CE7140705
:1045800009F499C008378CE7180709F4A1C00A3567
:10459000BCE71B0709F4B8C008F09CC00130FCE779
:1045A0001F0709F4AFC003302CE7120709F4A4C0B9
:1045B00001151C47C1F40E9493139FEFA4E3BCE0D4
:1045C0009150A040B040E1F700C000000E94710C83
:1045D00007379CE7190709F477C082E00837ACE792
:1045E0001A0709F472C0D60115968C911597ED90B3
:1045F000FC90882309F48CC0C7010E947F11182FFA
:10460000682FC7010E94A907B701812F0E9460117E
:104610000E9440098C01F601B580A680A2942FE08B
:10462000A2228091F7058770882301F1EB2CBB2033
:10463000F1F0812F807F803461F080E2800F88303C
:10464000A8F0812F807E803221F4023078F0AA20F9
:1046500069F08091F90582FF09C082E00E94070895
:104660008091F7058770EE24E3948111E12C812F6E
:1046700082958F70883009F444C108F06EC0843090
:1046800008F04BC0F12FFF70FF2E823008F476C087
:10469000107F103219F0F29480EFF822002309F411
:1046A000A4C0013009F4EDC0BB2009F4F9C0AA2070
:1046B00009F4B9C079C081E00E94360743E062E0A6
:1046C00081E00E94DC07DFCC81E00E944207F6CF48
:1046D00082E0F2CF0B354CE71407C1F00C351C47D4
:1046E00009F081CF8091F90582FB882780F991E05C
:1046F00089270E94E90F77CF6FEF7FEF80E090E08E
:104700000E94C9360E94B51381E0F3CF80E0F1CF5B
:10471000C7010E94C307182F77CF843009F4D6C091
:10472000EE20B1F08091F70580FD12C0D6011596FC
:104730001C928695869586950E943607C6010E9432
:10474000621F8091F7058695869586950E9442079F
:1047500060E0C6010E94AA11A6CC893009F440C1CC
:104760008A5F8F708230E0F6023F09F04AC1812FE4
:104770008F71B11043C10E943607F0C0103118F09C
:10478000F29490EFF922BB20B9F0FF2069F080E2AB
:10479000800F883010F0011109C08091F2058F2937
:1047A0008093F2050E941812802F2FC08091FA0585
:1047B0008F298093FA05F6CF802F0E941513FF20D2
:1047C00009F4AECF80E2800F883010F0011104C0F0
:1047D0008F2D0E94450806C0F0948091FA058F2124
:1047E0008093FA050E9418129BCF8091F90582FDF3
:1047F00016C0BB2069F0FF2039F08091F2058F29A7
:104800008093F2050E94181280E00E946A1288CFFD
:1048100080E00E941513FF2009F482CFD9CFBB207E
:10482000A1F0A11004C08F2D0E94821379CF21E046
:10483000A21276CF8091F3059F2D9823F91609F4E3
:104840006FCF8F298093F3056BCFA11069CF8F2D88
:104850000E948C139091F3058F2D8923882329F0D2
:104860008F2D809589238093F3058091F4059F2DEA
:104870009823992309F454CFF094F822F092F40588
:104880004FCFBB2029F035E03A1508F449CFCBCF04
:1048900044E04A1508F444CF8F2D0E948C1340CF7A
:1048A000AA20D1F3093369F48FEF97EEA3E081508A
:1048B0009040A040E1F700C00000802F0E94151337
:1048C0002FCFEFE3FCE93197F1F7F5CF812F8695F4
:1048D00086958370882361F0813009F021CFC8016B
:1048E0009370B11002C080E090E00E94770B18CF67
:1048F000C8019370B11002C080E090E00E94510B9B
:104900000FCF812F8370811134C0B11027C0402F89
:10491000429546954770440F440F802F8F70042EA8
:1049200001C0880F0A94EAF70071002341F02FE0DC
:1049300030E001C0220F4A95EAF7022F0095169544
:1049400016951370123081F0133061F02091F50547
:10495000113039F0802B82230E9430070E943D0BDA
:10496000DFCE822B802BF8CF802B9091F505892705
:10497000F3CFBB2051F110FFF1CF402F4295469568
:104980004770440F440F802F8F70042E01C0880F92
:104990000A94EAF70071002341F02FE030E001C0F3
:1049A000220F4A95EAF7022F009516951695137077
:1049B000123089F0133069F02091F605113041F082
:1049C000802B82230E943307C9CF823038F2D5CFA3
:1049D000822B802BF7CF802B9091F6058927F2CF81
:1049E0001F70BB2039F0812F0E943607802F0E9454
:1049F0008213B4CF802F0E948C13812F0E94420714
:104A0000ADCF033F70F4003FB9F0013FB9F1BB20D7
:104A100009F45BC0AA2009F455C0802F0E946A12D5
:104A20009DCF033FD9F0043F29F1B110F3CFA1107E
:104A30005EC0812F8F71E2CFBB2069F0F4E0FA15E0
:104A400008F48CCF1F7181E090E0012E01C0880F27
:104A50000A94EAF7C1CF25E0A216F2CF80E0BB208E
:104A600009F4B0CF1F7181E0012E01C0880F0A94B4
:104A7000EAF7A8CF8091F90582FD06C0812F8F71DA
:104A8000BB2009F4BBCF77CEBB2089F01F71812FEB
:104A90000E9436078091F90582FF07C038E0139F16
:104AA000C001112483608093F705812F64CE81E0DB
:104AB0000E94070841E04A1508F050CF82E00E94AA
:104AC00007084CCF812F8F7156CEAA2009F4B1CFA1
:104AD000093369F48FEF97EEA3E081509040A04036
:104AE000E1F700C00000802F0E94151337CFEFE3DD
:104AF000FCE93197F1F7F5CFF801E851FC47E730D1
:104B0000F10508F0CDCBEE5DF84C0C94F6358091B4
:104B10003B06803178F480913A06882359F0E09181
:104B2000FC052091FB05309136064091350657E093
:104B30002E1301C008956E2F70E05E9FF0011124C6
:104B4000DF01A350BA4F14968C911497882361F11A
:104B500011968C911197831327C08C91841324C0D4
:104B600015968C91159781111FC012968D919C916D
:104B7000A0913706B09138068A1B9B0B88379105A8
:104B800098F480913B068F70806180933B06ED5FC7
:104B9000F94F80818F708061808385E396E00E9469
:104BA000621F0E94FD070895FB013196E770C0CF98
:104BB000ADE0B0E0EEEDF5E20C9462358C0186E0FC
:104BC000F801DE01189601900D928A95E1F7F8013F
:104BD0007080F580A280B380848195E3892E96E071
:104BE000992E60903906611018C0882399F0FF2033
:104BF00009F413C1C8010E94D911882309F40DC119
:104C000087E0F801A5E3B6E001900D928A95E1F7FF
:104C10000E948725FF24F39453C0D0903A06209138
:104C2000370630913806A501421B530BDD2009F4ED
:104C3000C4C04837510508F07AC0882359F38091E1
:104C40003606C180E0903B06FFE0FE1508F459C02F
:104C5000C81215C080913506871111C0F1104BC0E4
:104C60008E2D8F70806180933B0685E396E00E94D5
:104C7000621F80913B06F8018683F12C21C0F11060
:104C80003AC040E06C2D872D0E94F20D40E06C2D63
:104C9000872D0E94F20DF82E8111EFCF888599851E
:104CA0000E94CA11292F22952F70903470F49F70A2
:104CB0002230A0F09923B1F0F8019681903190F460
:104CC0008F2D2D96EEE00C947E352A5F2F702230CA
:104CD00068F0C8010E94621FFD2CF2CF992311F0E9
:104CE000882371F3805E883058F3F3CF803F40F320
:104CF000815F8230F9CF80913B06816080933B06D3
:104D0000BCCFC8123CC080913506871138C0F11065
:104D100036C0F801E682C8010E94621F87E0F801F0
:104D2000A5E3B6E001900D928A95E1F773CFE0908C
:104D30003B06FFE0FE1550F085E396E00E94621FFF
:104D400087E0F40111928A95E9F797CF882309F457
:104D500061CF90913606F8018181981310C080913F
:104D6000350687110CC0F1100AC0E682C8010E9406
:104D7000621F87E0F40111928A95E9F74BCFC801D1
:104D80000E94D911882309F448C0FF2009F445C0C6
:104D900080913B06803208F433CF809135069091A4
:104DA00036069A838983BC82AB826D821E82EF8233
:104DB000CE0101960E94621F23CF4837510508F0AB
:104DC000BFCF882309F426CFFF2039F19091360612
:104DD0008181981318C080913506871114C0809185
:104DE0003B0680FD9BCF803108F498CF8683807F7F
:104DF000803F09F490CF8681982F907F905F8F70CD
:104E0000892B868388CFC8010E94D9118111F8CEE1
:104E100080913B06816080933B06C8010E94621F1F
:104E2000F9CEABE1B0E0E7E1F7E20C946D354E8BE3
:104E30005F8B688F798F8A8F9B8F91111092FA0503
:104E40001D8A86E0FE017696DE011F9601900D9286
:104E50008A95E1F78B89882329F061E0CE010F96CE
:104E60000E94AA1187E0FE013F96DE01189601908C
:104E70000D928A95E1F7CE0108960E94D8258111FE
:104E80002BC087E0FE013896DE01119601900D924D
:104E90008A95E1F72091FB054091FC058C858823DC
:104EA000D9F030E0C90101968770992750E0841746
:104EB0009507E9F097E0929FD001939FB00D1124E0
:104EC000A350BA4FFE01319601900D929A95E1F7E9
:104ED0008093FB050E94FD0717E08091FC059091EF
:104EE000FB05891312C06B96E3E00C9489350E9490
:104EF00093131092FB051092FC0587E0E5E3F6E0C2
:104F0000DF011D928A95E9F7E7CF189FC0011124B0
:104F100083509A4F0E94D825882329F38091FC055D
:104F200090E00196877099278093FC05D6CFA6E084
:104F3000B0E0EDE9F7E20C946C350E94A71B8C0100
:104F400080916205909163058017910779F019822D
:104F50001A820E94A71BBC0149815A8180E090E01F
:104F60000E94112710936305009362052696E4E0E2
:104F70000C948835ACE0B0E0E0ECF7E20C946C35D2
:104F8000182F8F83662391F10DEF08870E94A71BCE
:104F9000BC0189879A8782E08B8781E08C874F816B
:104FA000588582E091E00E9411278FE39CE90197E8
:104FB000F1F700C0000019830A830E94A71B282F65
:104FC00082E0622F792F2B839C838D831E824981FF
:104FD0005A8190E00E9411278FE39CE90197F1F735
:104FE00000C000002C96E4E00C9488350CEF088794
:104FF0000E94A71BBC0189879A8783E08B8781E089
:105000008C874F81588583E091E00E9411278FE3C0
:105010009CE90197F1F700C0000019830A830E9400
:10502000A71B282F83E0CDCFA1E0B0E0EAE1F8E2B2
:105030000C946735EE24E394F12C0AE415E09E010C
:105040002F5F3F4F4AE255E064E083E00E949C18E6
:10505000082F882339F1D12C80E01DC0C09029058C
:10506000CD0C2C2D30E0A901495D5A4F7A01E1E0C9
:10507000F0E0EC0FFD1FED0DF11D1081FA019081A4
:10508000191BB12E1B149CF0912F17FD90E0191BDA
:10509000111118C0D39490912605D916F8F28111F8
:1050A0000E944E0C802F2196E9E00C948335BA942F
:1050B000F70180818F5F808360E08C2D0E94BA278A
:1050C000802FE0CF1F5FF70180818150808361E0F6
:1050D0008C2D0E94BA27802FDBCFABE1B0E0E3E755
:1050E000F8E20C9463351A821982FE0133968AE045
:1050F000DF011D928A95E9F783EAA82E81E0B82E98
:105100008E010F5F1F4F4801EE24E394F12C20EB3A
:10511000C22E21E0D22EF50181915F018F3F09F46B
:1051200041C0F894E82FE295EF70F0E021A18F7074
:10513000A70102C0440F551F8A95E2F7CA01922FBA
:10514000982B91A392A18095892382A3789400C083
:10515000E9EAF1E031E0712C21912F3F09F4B7C069
:10516000A22FA295AF70A05EB0E08C9190E02F705E
:1051700002C0959587952A95E2F781708111A7C0A5
:10518000832F782A330FCE16DF0631F7F5013197DA
:1051900080818F3F11F00E945B0A50EA5A95F1F727
:1051A000D8017C920F5F1F4FB9EAAB16B1E0BB0686
:1051B00009F0B1CF4CE050E0B40181EC92E00E94E4
:1051C00071360091CE0210E0095F1A4F892B09F465
:1051D00080C08CE0F401A1ECB2E001900D928A95C0
:1051E000E1F781E080932B020E94A71B90932A0293
:1051F0008093290280916005882309F4C2C01E862D
:105200001D86FE013F9684E0DF011D928A95E9F735
:1052100080912E028A3008F07EC07E01BDE0EB0E48
:10522000F11C41EF58E1B701C8010E94AF0F6701BF
:10523000882309F494C047E559E1B701C8010E94E9
:10524000AF0F882309F48BC044E158E2B701C801CD
:105250000E94AF0F882309F482C04EED59E1B701D7
:10526000C8010E94AF0F882309F479C045E759E1CE
:10527000B701C8010E94AF0F882309F470C041EA4A
:1052800059E1B701C8010E94AF0F882309F467C034
:105290004EEB59E1B701C8010E94AF0F882309F412
:1052A0005EC010922E028091CD0290E046E050E068
:1052B000B601895F9A4F0E94713621E0209328023F
:1052C000892B09F03FC06B96EDE00C947F3580E0B0
:1052D00058CF80912B02882309F48CCF809129022A
:1052E00090912A020E945D1C059708F483CF46E046
:1052F00050E061EC72E0C8010E947136892B41F0E8
:1053000086E0E1ECF2E0D80101900D928A95E1F798
:1053100010922B026FCF80912602909127020E945B
:105320005D1C843F914008F078CF8091280288234B
:1053300051F2FE013D9686E0DF011D928A95E9F764
:1053400010922802A091CD02B0E0A95FBA4F86E08A
:10535000FE013D9601900D928A95E1F7B4CF8091C0
:105360002E028F3F39F40E94A71B9093270280934F
:105370002602DBCF8F5F80932E028A3008F493CF12
:10538000F2CFE090CD02F12CF701E95FFA4F7F01F7
:1053900086E0F801ADE3B5E001900D928A95E1F762
:1053A00066E070E08DE395E00E94240B80933C055D
:1053B00086E0E3E4F5E0D70101900D928A95E1F7EC
:1053C0004091030550E06091020570E0695D7A4FFD
:1053D000CE010D960E947E368D8580934A0561E050
:1053E00070E0CE010D960E94240B80934905C09079
:1053F0004B05D0904C05E0904D05F0904E05809106
:10540000220290912302A0912402B0912502C81695
:10541000D906EA06FB06B1F0C0922202D09223021E
:10542000E0922402F09225020E94FE0BC61AD70ACF
:10543000E80AF90AC0925C05D0925D05E0925E052B
:10544000F0925F058BE0EFE4F5E0DE011D96019040
:105450000D928A95E1F780914F0586958695F0909B
:105460005005E0905105D0905205009158051091DB
:10547000590510925905112301F110FF0BC09D85AC
:1054800090FF26C09091EA0591609093EA0560E054
:105490000E94DA1B11FF06C020E04D2D6E2D8F2DCE
:1054A0000E94FC1612FF04C00023A9F00E94BE1B3C
:1054B00013FF03C081E08093FD0480915A0580931F
:1054C000190580915B05882349F00E945E1AFBCE86
:1054D0000E94E20EDFCF0E94160BEACF0E944C1A08
:1054E000F2CECDB7DEB7A8970FB6F894DEBF0FBEE9
:1054F000CDBF85B7806885BF85B7806885BF84B715
:10550000877F84BF0FB6F894A8958091600088616A
:1055100080936000109260000FBE80E890E00FB6AC
:10552000F89480936100909361000FBE89E59AE042
:105530009093F9018093F8010E942F0D0E94970D1E
:105540008091E20084608093E2007894809113055A
:10555000882399F08091E9001091EC0017951127AC
:1055600017958F70182B1092E9008091E80083FD49
:105570000E94CB131F701093E90082E084BD93E07A
:1055800095BD9AEF97BD80936E0010925C051092C6
:105590005D0510925E0510925F050E94FF1181115A
:1055A00002C00E94E91088EC90E02091E30027FD02
:1055B00063C6AFE3BCE91197F1F700C000000197A3
:1055C000009799F70E942F0D109213051092600515
:1055D00010926105109218018CE080931301809362
:1055E00014018091180191E0892780930205B92F59
:1055F000B81BB09329058091180190930305809101
:1056000018019093260584988C9A26982E9AEFE894
:10561000F1E03197F1F700C000002091030544E06C
:1056200055E0FA018E2F841B821708F471C0809117
:1056300018018091180190E0811101C096E09093CB
:10564000CE0286E0891B8093CD0203EA11E0B9EA1D
:10565000EB2EB1E0FB2ED8018D918D018F3F11F023
:105660000E945B0AE016F106B1F709EA11E0A0EB2F
:10567000EA2EA1E0FA2EF80181918F018F3F11F0FF
:105680000E945B0AE016F106B1F78CE0E7E0F5E076
:10569000DF01282F1D922A95E9F7E1ECF2E0DF0106
:1056A0001D928A95E9F755985D982098289880E092
:1056B00090E00E949536863E9E4F21F40E94FF1195
:1056C000811102C00E94E01782E090E00E948736BC
:1056D0008093E00484E090E00E9495369093F90571
:1056E0008093F8050E946D28EFE3FCE93197F1F70C
:1056F00000C000000E946D288091070580FF13C044
:105700006FEF7FEF80E090E00E94C9360E94710C3D
:105710009FB183B186FB882780F9880F929591709D
:10572000892B81937FCF83E090E00E9487360E948F
:10573000300783E08093DA0480E28093D9040E94EA
:1057400090326BE070E089E39DE00E941F1A88238D
:1057500009F443C08091DA0465E070E081FD4CC13A
:1057600084E39DE00E941F1A8823B9F16DE070E088
:1057700082E29DE00E941F1A882379F10E94FE0BAD
:1057800069A37AA38BA39CA3DC01CB018058974C1F
:10579000AE4FBF4F8093D5049093D604A093D70407
:1057A000B093D804E3EDF2E080E092E0DF019C01E9
:1057B0001D9221503040E1F7F093D202E093D102E4
:1057C0008FEF9FEF9093D0028093CF0281E0809380
:1057D000D404809314051092D3048091DB048111CA
:1057E00097C080E090E00E949536863E9E4F21F45F
:1057F0000E94FF11811104C00E94E0170E94AB16A5
:1058000088E090E00E948F366B017C0184E290E09A
:105810000E948736282F30E040E050E060E070E0E2
:1058200080E090E000E20E941636E22FA32EB42E14
:10583000B52FA62FF72F9701860140E050E0BA015F
:10584000EC29A12AB22AB32BA42BF52B862B972B5C
:10585000E093EA05A092EB05B092EC05B093ED055C
:10586000A093EE05F093EF058093F0059093F1057A
:105870008091E90583608093E905E430C8F50E94D2
:10588000AB1688E090E00E948F366B017C0184E2C9
:1058900090E00E948736282F30E040E050E060E042
:1058A00070E080E090E000E20E9416365901B42FCB
:1058B000A52FF62FE72F9701860140E050E0BA01AF
:1058C000AC28B12AB22BA32BF42BE52B862B972BDC
:1058D000A092EA05B092EB05B093EC05A093ED051C
:1058E000F093EE05E093EF058093F0059093F105BA
:1058F0000E94010B0E94160B8091EA0580FF05C0F3
:1059000060E0869586950E94DA1B81E08093DB0437
:1059100080916005811102C00E94EA3389E191E023
:1059200090938505809384053324339480911305E7
:10593000853091F480911305853009F460C00E9490
:1059400093130E943D0B1092DE048091DD048111BF
:105950000E94411C0E94BE1B0E946D2801EE14E0B3
:10596000F7E0EF2EF5E0FF2E2DEE34E0D701F80141
:1059700091918D912E173F0709F4A5C09817C1F397
:1059800080906005D12CF701C1907F01D8019D90D6
:105990008D019C1441F19C24B12CAA24A394892D3F
:1059A0008A218823C1F08820B1F0B982DA820E946E
:1059B000A71B9C838B83B1E0BD8391E08C2D8A2152
:1059C000811101C090E09E8349815A816B817C8165
:1059D0008D810E941127B394AA0CE7E0BE12DFCF9D
:1059E000F8013197C082D394FCE0DF12CCCF0E9443
:1059F0001B0C222423946CC08FE29DE0B3CE8091D7
:105A00001305843009F435C00E94160B8091DE0422
:105A1000811109C03092DE048091EA058170809383
:105A2000DD040E94E20E0E944C1A1092DC0488E110
:105A300090E0A0E40FB6F894A895809360000FBEA4
:105A4000A093600083B7817F846083BF83B7816048
:105A500083BF7894889583B78E7F83BF0FB6F89401
:105A6000A89580916000886180936000109260002A
:105A70000FBE8091DF04882309F45CCF0E946D285B
:105A8000E7E0F5E083E195E02191211104C08E1754
:105A90009F07D1F74FCF80E189BD82E189BD09B46D
:105AA00000FEFDCF8091D8008F7D8093D80080913B
:105AB000E00082608093E0008091E00081FDFCCFF7
:105AC0000E94931337CF98135BCF0E949727212C06
:105AD00080916005882309F4CAC0C090B205D090B7
